:020000040000FA
:0600000030EF87F0120052
:020006001200E6
:0600080045EF02F01200BA
:060018004EEF02F01200A1
:02001E000400DC
:100020007511010060000000930000005C110100E8
:1000300000070000190000003C0F0100000800004C
:1000400020020000910E0100000B0000AB00000038
:100050000801ED0EDB6F400EDC6FEE0EDD6F200E43
:10006000DE6F5AD869D886D81FD927D9F6D912ECAD
:1000700064F00E01040E086F3FEC6AF0000173514A
:10008000070A3FE0010A35E0030A2BE0010A21E0FC
:10009000070A17E0010A10E0030A03E0010E736F7C
:1000A00039D0E66AE66A030EE66E75DAE552E55285
:1000B000E5520001732B2ED083EC14F00001732B5A
:1000C00029D0020EE66E14EC39F0E5520001732BD4
:1000D00021D0030EE66E14EC39F0E5520001732BCB
:1000E00019D0040EE66E78EC3DF0E5520001732B5A
:1000F00011D0030EE66E78EC3DF0E5520001732B53
:1001000009D0020EE66EDAEC3FF0E5520001010E76
:10011000736F00D0AED71200D39E8F0ED314700928
:10012000D36EFC0ED3140009D36E9B9E9B8CC00E25
:100130009B1402099B6E12000F01030E256F246BA6
:10014000236B806A040E816E826E836A846A856A7C
:10015000866A876A886A3F0E926E3E0E936ED30E51
:10016000946E956A966A976A986A996AF00E9A6E82
:10017000F18E1200F28EF28CD08ED59AD598D5964B
:10018000F80ED5140009D56ED59CF28AF194DBC81F
:10019000D7FFDCC8D6FFF294D59E0701046BAA9E58
:1001A0003F0ECD144009CD6ECF0ECD140009CD6E9B
:1001B000CD96CD829D809F90CF68A00ECE6E9E90F2
:1001C000CD90056B870ECA147809CA6EFC0ECA144E
:1001D0000309CA6E9D829F92CC6AFA0ECB6E9E92E4
:1001E000CA94B09E3F0EB1140009B16ECF0EB11487
:1001F0003009B16EB196B182A082A292A192B19063
:100200000F0103870389038B038D03810383B98067
:10021000D290056BFA0E046FBA900395129F139D4E
:10022000139F1389138B13971383B982D292BA92B7
:10023000630E156FC00E146F138139873989398B9E
:10024000398D39813983B984D2943B6BFA0E3A6F78
:10025000BA9439953C9F3D9D3D9F3D893D8B3D978F
:100260003D83B986D296BA96630E3F6FC00E3E6F3D
:100270003D9136873689368B368D36813693B988EF
:10028000D298386B190E376FBA9836953387338901
:10029000338B338D33813393B98AD29A386B7D0E89
:1002A000376FBA9A33951200C78EC79CC69AC68814
:1002B000F00EC6140209C66E12000701116BF00E93
:1002C000B36E600EB26EB1800B010A0E006FE66A6B
:1002D000E66A010EE66E5FD9E552E552E5527C0E04
:1002E000E66E0E0EE66E010EE66E030EE66E0B0E69
:1002F000E66E07EC87F0146E050EE15E14507C0E7E
:10030000E66E0E0EE66E010EE66E180EE66E0B0E33
:10031000E66E07EC87F0146E050EE15E14507C0E5D
:10032000E66E0E0EE66E010EE66E2D0EE66E0B0EFE
:10033000E66E07EC87F0146E050EE15E14507C0E3D
:10034000E66E0E0EE66E010EE66E420EE66E0B0EC9
:10035000E66E07EC87F0146E050EE15E14500B019B
:10036000016B026B0701115101E1FCD7380EE66EFB
:10037000000EE66EE66AE66EE66AFDEC12F0146EBA
:10038000050EE15E14500701115101E1FCD7080E82
:10039000E66E000EE66EE66AE66EE66AFDEC12F0C8
:1003A000146E050EE15E14500701115101E1FCD7F6
:1003B000010EE66E000EE66EE66AE66EE66AFDEC9B
:1003C00012F0146E050EE15E14500701115101E1A7
:1003D000FCD7060EE66E000EE66EE66AE66EE66A8C
:1003E000FDEC12F0146E050EE15E14500701115180
:1003F00001E1FCD7060EE66E000EE66EE66AE66EDA
:10040000E66AFDEC12F0146E050EE15E1450070171
:10041000115101E1FCD7020EE66E000EE66EE66AAF
:10042000E66EE66AFDEC12F0146E050EE15E145005
:100430000701115101E1FCD70C0EE66E000EE66ECD
:10044000E66AE66EE66AFDEC12F0146E050EE15EF9
:1004500014505CEC11F0ACEF11F0CF0EC114000998
:10046000C16EC196F80EC1140009C16EC09EC70EC0
:10047000C0141009C06EF80EC0140609C06E830EB9
:10048000C2140009C26EC2901200DACFE4FFE2CFBC
:10049000DAFFE652E552E5CFDAFF1100DACFE4FFEA
:1004A000E2CFDAFFE652F2A409D0DBC8D7FFDCC8FE
:1004B000D6FFF2940701010E046FF29C9EA009D0B2
:1004C000DDC8CFFFDEC8CEFF9E900701010E056F8D
:1004D000F29CA1A205D0A1920701010E116FB1906B
:1004E000BAA20BD00F01630E156FC00E146F070177
:1004F0000051000801E20007BA92BAA60FD00F011E
:10050000630E3F6FC00E3E6F0701065105E1010EFD
:10051000016F050E066F01D00607BA969EA208D09D
:1005200007011507155103E1010E146F156F9E9217
:10053000BAA007D007011207125102E1010E136F92
:10054000BA90BAA40CD007011607000E175B16511B
:10055000171104E1010E186F0F013995BA94BAA86A
:100560000AD007010807000E095B0851091102E1D2
:10057000010E076FBA98BAAA0AD007010F07000E3A
:10058000105B0F51101102E1010E0E6FBA9AE55285
:10059000E5CFDAFF1100D9CFE6FFE1CFD9FFFE0E9C
:1005A000DB50030A0AE0010A05E0030A01E00BD070
:1005B000B3D809D07CEC10F006D00701115101E14D
:1005C00002D005D800D0E552E7CFD9FF1200140EB3
:1005D0000B01025D20E10151030A11E0010A0CE068
:1005E000030A07E0010A02E0016B0BD0010E016F64
:1005F00008D0020E016F05D0030E016F02D0016B0F
:1006000000D00E01040E086F3FEC6AF00B01026B84
:1006100018EC11F080D00E01040E086F3FEC6AF068
:100620000B010151150DF3CF15F0F4CF16F0030EA9
:1006300015260B0E162202510F011524E96E000E2D
:100640001620EA6EEFCF14F00B010151150DF3CF18
:1006500017F0F4CF18F0570E17260B0E1822025180
:100660000F011724E96E000E1820EA6EEF50145C9B
:100670004CE00001755105E018EC11F00001756BBC
:100680004AD00B010151150DF3CF14F0F4CF15F042
:10069000570E14260B0E152202510F011424E96E79
:1006A000000E1520EA6EEF50E66ED2EC13F0E55224
:1006B0000B010151150DF3CF16F0F4CF17F0570EC3
:1006C00016260B0E172202510F011624E96E000E9A
:1006D0001720EA6EEF50E66E0B010151150DF3CFB6
:1006E00014F0F4CF15F0030E14260B0E1522025150
:1006F0000F011424E96E000E1520EA6EE552E75052
:10070000EF6E0B010229026F06D00B01022B0001D4
:10071000010E756F5CD71200D9CFE6FFE1CFD9FF8C
:10072000080EE126DE6ADD6A020EDB6A030EDB6A72
:10073000050EDB6A0B0100516B0A02E131EF10F08C
:10074000E10A02E12CEF10F0030A02E121EF10F0C0
:10075000010A02E116EF10F00F0A02E10CEF0FF0B0
:10076000010A02E106EF0FF0030A02E100EF0FF0C9
:10077000010A02E1FAEF0EF0070A02E1F4EF0EF0CF
:10078000020A02E1B3EF0EF0010A02E1B0EF0EF04F
:10079000FF0A02E1AAEF0EF0010A02E1A7EF0EF054
:1007A000030A02E1A1EF0EF0010A02E19EEF0EF052
:1007B000070A02E198EF0EF0010A02E195EF0EF050
:1007C000030A02E18FEF0EF0EC0A02E189EF0EF06E
:1007D000010A02E182EF0EF0E30A02E17BEF0EF084
:1007E000010A02E175EF0EF0030A02E16FEF0EF06D
:1007F000010A02E1EDEF0CF0070A02E1E7EF0CF06D
:10080000010A02E1E1EF0CF0030A02E1DBEF0CF078
:10081000010A02E1D5EF0CF01E0A02E1D0EF0CF064
:10082000030A02E18CEF0CF0090A02E187EF0CF0F9
:10083000070A02E17CEF0CF0010A02E171EF0CF013
:100840000A0A02E167EF0BF0090A02E160EF0BF020
:10085000010A02E159EF0BF03F0A02E152EF0BF0FF
:10086000010A02E14BEF0BF0CF0A02E145EF0BF07A
:10087000020A02E145EF0BF0030A02E100EF0BF080
:10088000020A02E100EF0BF0CE0A02E1BEEF0AF02D
:10089000070A02E1BAEF0AF0010A02E1B3EF0AF037
:1008A000030A02E1AFEF0AF0010A02E1A8EF0AF041
:1008B0000F0A02E1A4EF0AF0010A02E19DEF0AF03B
:1008C000030A02E199EF0AF0010A02E192EF0AF04D
:1008D000D90A02E18BEF0AF0DF0A02E183EF0AF0A6
:1008E000030A02E17BEF0AF0010A02E174EF0AF069
:1008F0001F0A02E16DEF0AF0C30A02E1CCEF09F032
:10090000C20A02E1C5EF09F0030A02E1BEEF09F0F5
:10091000010A02E1B7EF09F0070A02E1B0EF09F0BE
:10092000020A02E1AAEF09F0010A02E165EF09F00B
:10093000210A02E15DEF09F02E0A02E155EF09F00C
:10094000010A02E110EF09F07A0A02E109EF09F069
:10095000070A02E102EF09F0010A02E1FBEF08F0E9
:10096000030A02E1F4EF08F00E0A02E1EEEF08F0EC
:10097000010A01E1EED3030A01E1E4D3010A01E136
:10098000DAD3070A01E1D0D3010A01E1C6D3020A92
:1009900001E1BFD31F0A01E1B5D3010A01E1AED3E2
:1009A000030A01E1A4D3010A01E19DD3070A01E191
:1009B00093D3010A01E18CD3030A01E182D3360A01
:1009C00001E179D3010A01E131D3090A01E1ECD255
:1009D000720A01E1D1D2030A01E1B6D2700A01E143
:1009E000ACD2030A01E181D2010A01E156D2730AB5
:1009F00001E10ED26B0A01E103D2070A01E1F9D14C
:100A0000010A01E1B1D1840A01E1BCD0010A01E18E
:100A1000B9D0D20A01E1B6D0DF0A01E1B3D0C80AE9
:100A200001E1B0D0250A01E1ADD0570A01E1AAD019
:100A3000090A01E1A7D0620A4AE02B0A48E0500AFD
:100A400046E0280A02E072EF10F0A80EE66E150EDE
:100A5000E66E010EE66E570EE66E0B0EE66E07ECC6
:100A600087F0146E050EE15E1450BD0EE66E150E95
:100A7000E66E010EE66E6C0EE66E0B0EE66E07EC91
:100A800087F0146E050EE15E1450D20EE66E150E60
:100A9000E66E010EE66E810EE66E0B0EE66E07EC5C
:100AA00087F0146E050EE15E1450E70EE66E150E2B
:100AB000E66E010EE66E960EE66E0B0EE66E07EC27
:100AC00087F0146E050EE15E145072EF10F0000E08
:100AD000E66E150EE66E010EE66E570EE66E0B0E16
:100AE000E66E07EC87F0146E050EE15E1450150EED
:100AF000E66E150EE66E010EE66E6C0EE66E0B0EE1
:100B0000E66E07EC87F0146E050EE15E14502A0EB7
:100B1000E66E150EE66E010EE66E810EE66E0B0EAB
:100B2000E66E07EC87F0146E050EE15E14503F0E82
:100B3000E66E150EE66E010EE66E960EE66E0B0E76
:100B4000E66E07EC87F0146E050EE15E14500B01A3
:100B5000070E586F0051380A06E0100A01E010D065
:100B6000290E006F0DD0390E006F0E01066B076B5A
:100B7000E66A030EE66E63EC5EF0E552E55200D0E5
:100B800072EF10F0540EE66E150EE66E010EE66E74
:100B9000570EE66E0B0EE66E07EC87F0146E050E30
:100BA000E15E1450690EE66E150EE66E010EE66EFD
:100BB0006C0EE66E0B0EE66E07EC87F0146E050EFB
:100BC000E15E14507E0EE66E150EE66E010EE66EC8
:100BD000810EE66E0B0EE66E07EC87F0146E050EC6
:100BE000E15E1450930EE66E150EE66E010EE66E93
:100BF000960EE66E0B0EE66E07EC87F0146E050E91
:100C0000E15E14500B01070E586F00518F0A01E18D
:100C100083D0010A5BE0E10A4CE0ED0A3DE0C80A3E
:100C20002EE0170A1FE0650A10E0090A01E09AD0D9
:100C3000320E006F0E01066B076BE66A030EE66E5E
:100C400063EC5EF0E552E5528DD0390E006F0E0177
:100C5000066B076BE66A030EE66E63EC5EF0E55228
:100C6000E55280D05E0E006F0E01066B076BE66AE0
:100C7000040EE66E63EC5EF0E552E55273D04B0E67
:100C8000006F0E01066B076BE66A040EE66E63ECFE
:100C90005EF0E552E55266D0830E006F0E01066BE2
:100CA000076BE66A050EE66E63EC5EF0E552E55210
:100CB00059D0700E006F0E01066B076BE66A050EC9
:100CC000E66E63EC5EF0E552E5524CD00A011C5131
:100CD000040A11E0070A09E0010A01E012D00B0141
:100CE000070E6D6F200E586F0CD00B01070E826F30
:100CF000200E586F06D00B01070E976F200E586F0D
:100D000000D00E01066B076BE66A040EE66E63EC1C
:100D10005EF0E552E55226D00A011C51080A11E0A6
:100D20000F0A09E0010A01E012D00B01070E6D6FF6
:100D3000200E586F0CD00B01070E826F200E586FDB
:100D400006D00B01070E976F200E586F00D00E01D2
:100D5000066B076BE66A050EE66E63EC5EF0E55225
:100D6000E55200D072EF10F0720EE66E180EE66ECD
:100D7000010EE66E570EE66E0B0EE66E07EC87F080
:100D8000146E050EE15E1450870EE66E180EE66EC8
:100D9000010EE66E6C0EE66E0B0EE66E07EC87F04B
:100DA000146E050EE15E14509C0EE66E180EE66E93
:100DB000010EE66E810EE66E0B0EE66E07EC87F016
:100DC000146E050EE15E1450B10EE66E180EE66E5E
:100DD000010EE66E960EE66E0B0EE66E07EC87F0E1
:100DE000146E050EE15E14500B01070E596F72EF81
:100DF00010F0070E6E6F200E596F836F72EF10F0B8
:100E0000070E836F200E6E6FA26F596F72EF10F096
:100E1000C60EE66E180EE66E010EE66E570EE66E14
:100E20000B0EE66E07EC87F0146E050EE15E1450B3
:100E3000DB0EE66E180EE66E010EE66E6C0EE66ECA
:100E40000B0EE66E07EC87F0146E050EE15E145093
:100E5000F00EE66E180EE66E010EE66E810EE66E80
:100E60000B0EE66E07EC87F0146E050EE15E145073
:100E7000050EE66E190EE66E010EE66E960EE66E35
:100E80000B0EE66E07EC87F0146E050EE15E145053
:100E90000B01070E596F72EF10F01A0EE66E190E65
:100EA000E66E010EE66E570EE66E0B0EE66E07EC72
:100EB00087F0146E050EE15E14502F0EE66E190ECB
:100EC000E66E010EE66E960EE66E0B0EE66E07EC13
:100ED00087F0146E050EE15E14500B01070E596F7A
:100EE000200E6E6F836F72EF10F0440EE66E190ED7
:100EF000E66E010EE66E570EE66E0B0EE66E07EC22
:100F000087F0146E050EE15E1450590EE66E190E50
:100F1000E66E010EE66E960EE66E0B0EE66E07ECC2
:100F200087F0146E050EE15E14500B01070E596F29
:100F3000200E6E6F836F72EF10F0070E6E6F200E33
:100F4000596F836F72EF10F0830EE66E190EE66E26
:100F5000010EE66E810EE66E0B0EE66E07EC87F074
:100F6000146E050EE15E14500B01070E836F200E08
:100F70006E6F596F72EF10F06E0EE66E190EE66E20
:100F8000010EE66E810EE66E0B0EE66E07EC87F044
:100F9000146E050EE15E14500B01070E836F200ED8
:100FA0006E6F596F72EF10F0980EE66E190EE66EC6
:100FB000010EE66E570EE66E0B0EE66E07EC87F03E
:100FC000146E050EE15E1450AD0EE66E190EE66E5F
:100FD000010EE66E6C0EE66E0B0EE66E07EC87F009
:100FE000146E050EE15E1450C20EE66E190EE66E2A
:100FF000010EE66E810EE66E0B0EE66E07EC87F0D4
:10100000146E050EE15E1450D70EE66E190EE66EF4
:10101000010EE66E960EE66E0B0EE66E07EC87F09E
:10102000146E050EE15E145072EF10F0EC0EE66ED9
:10103000190EE66E010EE66E570EE66E0B0EE66EAC
:1010400007EC87F0146E050EE15E1450010EE66E9B
:101050001A0EE66E010EE66E6C0EE66E0B0EE66E76
:1010600007EC87F0146E050EE15E1450160EE66E66
:101070001A0EE66E010EE66E810EE66E0B0EE66E41
:1010800007EC87F0146E050EE15E14502B0EE66E31
:101090001A0EE66E010EE66E960EE66E0B0EE66E0C
:1010A00007EC87F0146E050EE15E14500B01070E7D
:1010B0006D6F72EF10F0070E826F200E6D6F72EF82
:1010C00010F0070E586F200E6D6F976F72EF10F0D3
:1010D000200E586F72EF10F0070E6D6F200E586FD4
:1010E000826F72EF10F0200E6D6F72EF10F0070E2E
:1010F000826F200E6D6F976F72EF10F0200E826F6F
:1011000072EF10F0070E976F200E826F586F72EF1C
:1011100010F0200E976F72EF10F0070E586F200E30
:101120006D6F976F72EF10F0070E6D6F200E586F96
:10113000826F72EF10F0070E826F200E6D6F976F47
:1011400072EF10F0070E976F200E826F586F72EFDC
:1011500010F0400EE66E1A0EE66E010EE66E570EA9
:10116000E66E0B0EE66E07EC87F0146E050EE15E80
:101170001450550EE66E1A0EE66E010EE66E6C0EFB
:10118000E66E0B0EE66E07EC87F0146E050EE15E60
:1011900014506A0EE66E1A0EE66E010EE66E810EB1
:1011A000E66E0B0EE66E07EC87F0146E050EE15E40
:1011B00014507F0EE66E1A0EE66E010EE66E960E67
:1011C000E66E0B0EE66E07EC87F0146E050EE15E20
:1011D00014500B01070E886F72EF10F0070E9D6F11
:1011E000200E886F72EF10F0070E586F200E6D6F93
:1011F000976F72EF10F0070E6D6F200E586F826FB1
:1012000072EF10F0070E826F200E6D6F976F72EF06
:1012100010F0070E976F200E826F586F72EF10F06C
:10122000940EE66E1A0EE66E010EE66E570EE66E30
:101230000B0EE66E07EC87F0146E050EE15E14509F
:10124000A90EE66E1A0EE66E010EE66E6C0EE66EE6
:101250000B0EE66E07EC87F0146E050EE15E14507F
:10126000BE0EE66E1A0EE66E010EE66E810EE66E9C
:101270000B0EE66E07EC87F0146E050EE15E14505F
:10128000D30EE66E1A0EE66E010EE66E960EE66E52
:101290000B0EE66E07EC87F0146E050EE15E14503F
:1012A0000B01070E6D6F72EF10F0200E6D6F070EC1
:1012B000826F200E976F72EF10F0200E826F070E74
:1012C000976F200E6D6F72EF10F0E80EE66E1A0E3B
:1012D000E66E010EE66E570EE66E0B0EE66E07EC3E
:1012E00087F0146E050EE15E1450FD0EE66E1A0EC8
:1012F000E66E010EE66E6C0EE66E0B0EE66E07EC09
:1013000087F0146E050EE15E1450120EE66E1B0E91
:10131000E66E010EE66E810EE66E0B0EE66E07ECD3
:1013200087F0146E050EE15E1450270EE66E1B0E5C
:10133000E66E010EE66E960EE66E0B0EE66E07EC9E
:1013400087F0146E050EE15E14500B01070E6D6FF1
:1013500072EF10F0200E6D6F070E826F72EF10F0BB
:10136000070E586F200E6D6F976F72EF10F0070E1B
:101370006D6F200E826F586F72EF10F0070E826F44
:10138000200E6D6F976F72EF10F0070E976F200EA3
:10139000826F586F72EF10F03C0EE66E1B0EE66E19
:1013A000010EE66E570EE66E0B0EE66E07EC87F04A
:1013B000146E050EE15E1450510EE66E1B0EE66EC5
:1013C000010EE66E6C0EE66E0B0EE66E07EC87F015
:1013D000146E050EE15E1450660EE66E1B0EE66E90
:1013E000010EE66E810EE66E0B0EE66E07EC87F0E0
:1013F000146E050EE15E14507B0EE66E1B0EE66E5B
:10140000010EE66E960EE66E0B0EE66E07EC87F0AA
:10141000146E050EE15E14501BCA09F094EC84F0C2
:1014200007C014F008C015F009C016F00AC017F084
:10143000CD0E0C6ECC0E0D6E0E6E3D0E0F6E14C0EA
:1014400007F015C008F016C009F017C00AF051ECFB
:1014500085F003EC86F0060E08C0DBFF070E09C01E
:10146000DBFFD950060FE96EDACFEAFF000ED88015
:10147000EE54000EED540AE2060EDBCF14F0070E18
:10148000DBCF15F0300E14240B01616F0A011B51E4
:10149000166E176A0A0E086E096A060EDBCF0DF08B
:1014A000070EDBCF0EF0BEEC85F00650165C146E16
:1014B00007501758156E060E14C0DBFF070E15C037
:1014C000DBFF060EDBCF14F0070EDBCF15F0300E7E
:1014D00014240B01626F72EF10F0070E6D6F200E77
:1014E000826FA46F72EF10F0070E826F200E6D6F87
:1014F000966F72EF10F0070E966F200E826F6C6F72
:101500009D6F72EF10F0070E9D6F200E966F6C6F3F
:10151000A46F72EF10F0070EA46F200E9D6F6D6F19
:1015200072EF10F0070E586F200E6D6F976F72EF0D
:1015300010F0200E586F72EF10F0070E6D6F200E36
:10154000586F826F72EF10F0200E6D6F72EF10F017
:10155000070E826F200E6D6F976F72EF10F0200EE6
:10156000826F72EF10F0070E976F200E826F586F28
:1015700072EF10F0200E976F72EF10F0900EE66E83
:101580001B0EE66E010EE66E570EE66E0B0EE66E55
:1015900007EC87F0146E050EE15E1450A50EE66EA2
:1015A0001B0EE66E010EE66E6C0EE66E0B0EE66E20
:1015B00007EC87F0146E050EE15E1450BA0EE66E6D
:1015C0001B0EE66E010EE66E810EE66E0B0EE66EEB
:1015D00007EC87F0146E050EE15E1450CF0EE66E38
:1015E0001B0EE66E010EE66E960EE66E0B0EE66EB6
:1015F00007EC87F0146E050EE15E145072EF10F0E8
:10160000E40EE66E1B0EE66E010EE66E570EE66EFB
:101610000B0EE66E07EC87F0146E050EE15E1450BB
:10162000F90EE66E1B0EE66E010EE66E6C0EE66EB1
:101630000B0EE66E07EC87F0146E050EE15E14509B
:101640000E0EE66E1C0EE66E010EE66E810EE66E66
:101650000B0EE66E07EC87F0146E050EE15E14507B
:10166000230EE66E1C0EE66E010EE66E960EE66E1C
:101670000B0EE66E07EC87F0146E050EE15E14505B
:101680000B01070E9A6F72EF10F0200E9A6F070E83
:10169000856F72EF10F0070E586F200E6D6F976F09
:1016A00072EF10F0070E6D6F200E826F586F72EFA1
:1016B00010F0070E826F200E6D6F976F72EF10F0B3
:1016C000070E976F200E826F586F72EF10F0040EA6
:1016D000DB6A0E0EF36E040EDBCFF4FFF350F45C06
:1016E00023E20A011C05150DF3CF14F0F4CF15F019
:1016F000570E14260B0E1522040EDB50050F0F019A
:101700001424E96E000E1520EA6EEF50E66E040E0A
:10171000DB50EA6A620FE96E000EEA22E552E750FA
:10172000EF6E040EDB2AD5D7380EE66E1C0EE66E81
:10173000010EE66E570EE66E0B0EE66E07EC87F0B6
:10174000146E050EE15E14504D0EE66E1C0EE66E34
:10175000010EE66E6C0EE66E0B0EE66E07EC87F081
:10176000146E050EE15E1450620EE66E1C0EE66EFF
:10177000010EE66E810EE66E0B0EE66E07EC87F04C
:10178000146E050EE15E1450770EE66E1C0EE66ECA
:10179000010EE66E960EE66E0B0EE66E07EC87F017
:1017A000146E050EE15E14500E0EF36E050EF3CFAF
:1017B000DBFF0E0EF36E040EF3CFDBFFDB500008F1
:1017C00015E2040EDB04EA6A620FE96E000EEA22FB
:1017D000EF50200803E1050EDB0605D0010EF36E85
:1017E000040EF3CFDBFF040EDB06E8D7146A156A9C
:1017F000200E166E410E176E050EDBCF20F020C0B6
:1018000009F094EC84F007C01CF008C01DF009C07A
:101810001EF00AC01FF00C6A0D6A0E6A3F0E0F6EB2
:101820001CC007F01DC008F01EC009F01FC00AF060
:1018300051EC85F007C018F008C019F009C01AF083
:101840000AC01BF018C00CF019C00DF01AC00EF041
:101850001BC00FF014C007F015C008F016C009F047
:1018600017C00AF0BAEC84F003EC86F0060E08C04C
:10187000DBFF070E09C0DBFF060EDBCF14F0070EFF
:10188000DBCF15F06C0E14260B0E152214C0DEFFF4
:1018900015C0DDFF040EDB6A050EDB50F36E040E8F
:1018A000DBCFF4FFF350F45C17E2040EDB50EA6A7E
:1018B000620FE96E000EEA22EF50E66EDECFE9FF1E
:1018C000DDCFEAFFE552E750EF6EDF2A010E01E3BC
:1018D000DB2A040EDB2AE0D70B01070E826F72EFC2
:1018E00010F0610E866F720E876F740E886F070E90
:1018F000826F200E976FF6D36F0E866F700E876F14
:10190000200E886F070E826F200E976FEBD3070EA5
:10191000976F200E826FE6D38C0EE66E1C0EE66E7D
:10192000010EE66E570EE66E0B0EE66E07EC87F0C4
:10193000146E050EE15E1450A10EE66E1C0EE66EEE
:10194000010EE66E6C0EE66E0B0EE66E07EC87F08F
:10195000146E050EE15E1450B60EE66E1C0EE66EB9
:10196000010EE66E810EE66E0B0EE66E07EC87F05A
:10197000146E050EE15E1450CB0EE66E1C0EE66E84
:10198000010EE66E960EE66E0B0EE66E07EC87F025
:10199000146E050EE15E14500B01070E6D6FA2D39D
:1019A000200E6D6F070E826F9DD3070E586F200EAD
:1019B0006D6F976F97D3070E6D6F200E826F586F04
:1019C00091D3070E826F200E6D6F976F8BD3070E2A
:1019D000976F200E826F586F85D3E00EE66E1C0E57
:1019E000E66E010EE66E570EE66E0B0EE66E07EC27
:1019F00087F0146E050EE15E1450F50EE66E1C0EB7
:101A0000E66E010EE66E6C0EE66E0B0EE66E07ECF1
:101A100087F0146E050EE15E14500A0EE66E1D0E80
:101A2000E66E010EE66E810EE66E0B0EE66E07ECBC
:101A300087F0146E050EE15E14501F0EE66E1D0E4B
:101A4000E66E010EE66E960EE66E0B0EE66E07EC87
:101A500087F0146E050EE15E14500A011B516308F5
:101A600001E3DDD01BCA09F094EC84F007C014F048
:101A700008C015F009C016F00AC017F00A0E0C6E67
:101A8000D70E0D6E230E0E6E3C0E0F6E14C007F0B7
:101A900015C008F016C009F017C00AF051EC85F027
:101AA00003EC86F0060E08C0DBFF070E09C0DBFF63
:101AB000060EDBCF14F0070EDBCF15F0300E14242A
:101AC0000B01606F1BCA09F094EC84F007C018F09A
:101AD00008C019F009C01AF00AC01BF00C6A0D6AA0
:101AE000C80E0E6E420E0F6E18C007F019C008F037
:101AF0001AC009F01BC00AF0BAEC84F007C014F059
:101B000008C015F009C016F00AC017F0CD0E0C6E13
:101B1000CC0E0D6E0E6E3D0E0F6E14C007F015C08C
:101B200008F016C009F017C00AF051EC85F003EC7C
:101B300086F0060E08C0DBFF070E09C0DBFF060EAD
:101B4000DBCF14F0070EDBCF15F0300E14240B01A1
:101B5000616F1BCA09F094EC84F007C018F008C04C
:101B600019F009C01AF00AC01BF0060EDBCF20F0F6
:101B7000070EDBCF21F00A0E2102F3CF21F0200265
:101B8000F3CF20F0F450212620C008F021C009F046
:101B9000A5EC84F007C01CF008C01DF009C01EF0C1
:101BA0000AC01FF01CC00CF01DC00DF01EC00EF0CE
:101BB0001FC00FF018C007F019C008F01AC009F0D4
:101BC0001BC00AF0BAEC84F007C014F008C015F08E
:101BD00009C016F00AC017F00C6A0D6AC80E0E6E26
:101BE000420E0F6E14C007F015C008F016C009F0C1
:101BF00017C00AF0BAEC84F003EC86F0060E08C0B9
:101C0000DBFF070E09C0DBFF060EDBCF14F0070E6B
:101C1000DBCF15F0300E14240B01626F5FD01BCAAE
:101C200009F094EC84F007C014F008C015F009C066
:101C300016F00AC017F0CD0E0C6ECC0E0D6E0E6EA7
:101C40003D0E0F6E14C007F015C008F016C009F065
:101C500017C00AF051EC85F003EC86F0060E08C0C0
:101C6000DBFF070E09C0DBFFD950060FE96EDACFA4
:101C7000EAFF000ED880EE54000EED540AE2060E84
:101C8000DBCF14F0070EDBCF15F0300E14240B0160
:101C9000616F0A011B51166E176A0A0E086E096AF7
:101CA000060EDBCF0DF0070EDBCF0EF0BEEC85F09D
:101CB0000650165C146E07501758156E060E14C0A9
:101CC000DBFF070E15C0DBFF060EDBCF14F0070E9F
:101CD000DBCF15F0300E14240B01626F03D2070E18
:101CE0006D6F200E826FA46FFDD1070E826F200EE4
:101CF0006D6F966FF7D1070E966F200E826F6C6F27
:101D00009D6FF0D1070E9D6F200E966F6C6FA46FC4
:101D1000E9D1070EA46F200E9D6F6D6FE3D1070E02
:101D2000586F200E6D6F976FDDD1200E586FDAD18E
:101D3000070E6D6F200E586F826FD4D1200E6D6F1D
:101D4000D1D1070E826F200E6D6F976FCBD1200E11
:101D5000826FC8D1070E976F200E826F586FC2D165
:101D6000200E976FBFD1340EE66E1D0EE66E010E8B
:101D7000E66E570EE66E0B0EE66E07EC87F0146EFD
:101D8000050EE15E1450490EE66E1D0EE66E010E64
:101D9000E66E6C0EE66E0B0EE66E07EC87F0146EC8
:101DA000050EE15E14505E0EE66E1D0EE66E010E2F
:101DB000E66E810EE66E0B0EE66E07EC87F0146E93
:101DC000050EE15E1450730EE66E1D0EE66E010EFA
:101DD000E66E960EE66E0B0EE66E07EC87F0146E5E
:101DE000050EE15E14507ED1070E586F200E6D6F08
:101DF000976F78D1070E6D6F200E826F586F72D17A
:101E0000070E826F200E6D6F976F6CD1070E976F64
:101E1000200E826F586F66D1040EDB6A0E0EF36ED1
:101E2000040EDBCFF4FFF350F45C24E2050E0A014C
:101E30001C5D150DF3CF14F0F4CF15F0570E1426DA
:101E40000B0E1522040EDB50050F0F011424E96E52
:101E5000000E1520EA6EEF50E66E040EDB50EA6AC3
:101E6000620FE96E000EEA22E552E750EF6E040EB3
:101E7000DB2AD4D7880EE66E1D0EE66E010EE66EE6
:101E8000570EE66E0B0EE66E07EC87F0146E050E2D
:101E9000E15E14509D0EE66E1D0EE66E010EE66EBE
:101EA0006C0EE66E0B0EE66E07EC87F0146E050EF8
:101EB000E15E1450B20EE66E1D0EE66E010EE66E89
:101EC000810EE66E0B0EE66E07EC87F0146E050EC3
:101ED000E15E1450C70EE66E1D0EE66E010EE66E54
:101EE000960EE66E0B0EE66E07EC87F0146E050E8E
:101EF000E15E14500E0EF36E050EF3CFDBFF0E0EF7
:101F0000F36E040EF3CFDBFFDB50000815E2040E86
:101F1000DB04EA6A620FE96E000EEA22EF50200845
:101F200003E1050EDB0605D0010EF36E040EF3CFC0
:101F3000DBFF040EDB06E8D7146A156A200E166E66
:101F4000410E176E050EDBCF20F020C009F094EC97
:101F500084F007C01CF008C01DF009C01EF00AC0C4
:101F60001FF00C6A0D6A0E6A3F0E0F6E1CC007F060
:101F70001DC008F01EC009F01FC00AF051EC85F02A
:101F800007C018F008C019F009C01AF00AC01BF009
:101F900018C00CF019C00DF01AC00EF01BC00FF0E5
:101FA00014C007F015C008F016C009F017C00AF0F9
:101FB000BAEC84F003EC86F0060E08C0DBFF070ED7
:101FC00009C0DBFF060EDBCF14F0070EDBCF15F0E8
:101FD0006C0E14260B0E152214C0DEFF15C0DDFF9B
:101FE000040EDB6A050EDB50F36E040EDBCFF4FF4C
:101FF000F350F45C17E2040EDB50EA6A620FE96EFC
:10200000000EEA22EF50E66EDECFE9FFDDCFEAFFF9
:10201000E552E750EF6EDF2A010E01E3DB2A040EE2
:10202000DB2AE0D70B01070E826F5CD0610E866F52
:10203000720E876F740E886F070E826F200E976F77
:1020400051D06F0E866F700E876F200E886F070E4F
:10205000826F200E976F46D0070E976F200E826F0B
:1020600041D0DC0EE66E1D0EE66E010EE66E570EDA
:10207000E66E0B0EE66E07EC87F0146E050EE15E61
:102080001450F10EE66E1D0EE66E010EE66E6C0E3D
:10209000E66E0B0EE66E07EC87F0146E050EE15E41
:1020A0001450060EE66E1E0EE66E010EE66E810EF2
:1020B000E66E0B0EE66E07EC87F0146E050EE15E21
:1020C00014501B0EE66E1E0EE66E010EE66E960EA8
:1020D000E66E0B0EE66E07EC87F0146E050EE15E01
:1020E000145000D0080EE15C02E2E16AE552E16EB4
:1020F000E552E7CFD9FF12000801DF511FE1E66A80
:10210000090EE66E010EE66E47EC43F0E552E5522D
:10211000E552E66A090EE66E020EE66E47EC43F003
:10212000E552E552E552E66A090EE66E030EE66EEA
:1021300047EC43F0E552E552E55246D0DF51030D3E
:10214000F3CFE9FFF4CFEAFF580EE926080EEA22A2
:10215000EF50E66E090EE66E010EE66E47EC43F0B8
:10216000E552E552E5520801DF51030DF3CFE9FFD7
:10217000F4CFEAFF580EE926080EEA22EE52EF509D
:10218000E66E090EE66E020EE66E47EC43F0E5528F
:10219000E552E5520801DF51030DF3CFE9FFF4CF1B
:1021A000EAFF580EE926080EEA22020EE926000E82
:1021B000EA22EF50E66E090EE66E030EE66E47EC7D
:1021C00043F0E552E552E5520801DF510A0A27E0E3
:1021D000010A1EE0070A14E00C0A0BE00B01200EB6
:1021E000636F300E0801DF250B01646F200E656FF1
:1021F0001ED00B01410E636F6C0E646F656F17D0BC
:102200000B01200E636F310E646F320E656F0FD0BD
:102210000B01200E636F310E646F656F08D00B01E8
:10222000200E636F310E646F300E656F00D01200A8
:102230000B010151030A31E0010A21E0030A11E018
:10224000010A01E038D0800E0225E66E000EE66E2F
:10225000E66AE66EE66AD1D9146E050EE15E1450A8
:102260002AD0C00E0225E66E000EE66EE66AE66E25
:10227000E66AC3D9146E050EE15E14501CD0940EAC
:102280000225E66E000EE66EE66AE66EE66AB5D9EF
:10229000146E050EE15E14500ED0D40E0225E66ECB
:1022A000000EE66EE66AE66EE66AA7D9146E050EC3
:1022B000E15E145000D012000701115101E1FCD77A
:1022C000780EE66E000EE66EE66AE66EE66A95D970
:1022D000146E050EE15E14500701115101E1FCD7A7
:1022E000E66A60DAE5520701115101E1FCD7080EF8
:1022F000E66E58DAE5520701115101E1FCD70C0EE8
:10230000E66E50DAE5520701115101E1FCD71E0ECD
:10231000E66E48DAE5520701115101E1FCD71F0EC4
:10232000E66E40DAE5520701115101E1FCD71E0EBD
:10233000E66E38DAE5520701115101E1FCD70C0EC7
:10234000E66E30DAE5520701115101E1FCD7080EC3
:10235000E66E28DAE55212000701115101E1FCD7BF
:10236000500EE66E000EE66EE66AE66EE66A45D947
:10237000146E050EE15E14500701115101E1FCD706
:10238000100EE66E0FDAE5520701115101E1FCD79C
:10239000100EE66E07DAE5520701115101E1FCD794
:1023A000100EE66EFFD9E5520701115101E1FCD78D
:1023B000100EE66EF7D9E5520701115101E1FCD785
:1023C000100EE66EEFD9E5520701115101E1FCD77D
:1023D000100EE66EE7D9E5520701115101E1FCD775
:1023E000100EE66EDFD9E5520701115101E1FCD76D
:1023F000100EE66ED7D9E5520701115101E1FCD765
:10240000180EE66ECFD9E5520701115101E1FCD754
:10241000180EE66EC7D9E5520701115101E1FCD74C
:10242000180EE66EBFD9E5520701115101E1FCD744
:10243000180EE66EB7D9E5520701115101E1FCD73C
:10244000180EE66EAFD9E5520701115101E1FCD734
:10245000180EE66EA7D9E5520701115101E1FCD72C
:10246000180EE66E9FD9E5520701115101E1FCD724
:10247000180EE66E97D9E5520701115101E1FCD71C
:102480001C0EE66E8FD9E5520701115101E1FCD710
:102490001C0EE66E87D9E5520701115101E1FCD708
:1024A0001C0EE66E7FD9E5520701115101E1FCD700
:1024B0001C0EE66E77D9E5520701115101E1FCD7F8
:1024C0001C0EE66E6FD9E5520701115101E1FCD7F0
:1024D0001C0EE66E67D9E5520701115101E1FCD7E8
:1024E0001C0EE66E5FD9E5520701115101E1FCD7E0
:1024F0001C0EE66E57D9E5520701115101E1FCD7D8
:102500001E0EE66E4FD9E5520701115101E1FCD7CD
:102510001E0EE66E47D9E5520701115101E1FCD7C5
:102520001E0EE66E3FD9E5520701115101E1FCD7BD
:102530001E0EE66E37D9E5520701115101E1FCD7B5
:102540001E0EE66E2FD9E5520701115101E1FCD7AD
:102550001E0EE66E27D9E5520701115101E1FCD7A5
:102560001E0EE66E1FD9E5520701115101E1FCD79D
:102570001E0EE66E17D9E5520701115101E1FCD795
:102580001F0EE66E0FD9E5520701115101E1FCD78C
:102590001F0EE66E07D9E5520701115101E1FCD784
:1025A0001F0EE66EFFD8E5520701115101E1FCD77D
:1025B0001F0EE66EF7D8E5520701115101E1FCD775
:1025C0001F0EE66EEFD8E5520701115101E1FCD76D
:1025D0001F0EE66EE7D8E5520701115101E1FCD765
:1025E0001F0EE66EDFD8E5520701115101E1FCD75D
:1025F0001F0EE66ED7D8E5521200D9CFE6FFE1CF25
:10260000D9FF050EE126DE52F00EDD6E600EF36E90
:10261000020EF3CFDBFFF90EF36E030EF3CFDBFFF9
:10262000C00EF36E040EF3CFDBFFFA0EDB50DF6E4D
:102630000000000082860000829400000000829664
:10264000FD0EDB50E8B0828AE8A0829A0000828604
:102650000000000000008296FB0EDB50E8B0828A8A
:10266000E8A0829A000082860000000000008296A6
:10267000D9CFE9FFDACFEAFFEF50800B02E0828A80
:1026800001D0829A0000828600000000000082963D
:10269000D9CFE9FFDACFEAFFEF50400B02E0828AA0
:1026A00001D0829A0000828600000000000082961D
:1026B000D9CFE9FFDACFEAFFEF50200B02E0828AA0
:1026C00001D0829A000082860000000000008296FD
:1026D000D9CFE9FFDACFEAFFEF50100B02E0828A90
:1026E00001D0829A000082860000000000008296DD
:1026F000D9CFE9FFDACFEAFFEF50080B02E0828A78
:1027000001D0829A000082860000000000008296BC
:10271000D9CFE9FFDACFEAFFEF50040B02E0828A5B
:1027200001D0829A0000828600000000000082969C
:10273000D9CFE9FFDACFEAFFEF50020B02E0828A3D
:1027400001D0829A0000828600000000000082967C
:10275000D9CFE9FFDACFEAFFEF50010B02E0828A1E
:1027600001D0829A00008286000082840701116BEA
:10277000DF0407E1010EDB50B36E020EDB50B26ED8
:1027800006D0030EDB50B36E040EDB50B26EB18088
:10279000050EE15C02E2E16AE552E16EE552E7CF47
:1027A000D9FF1200D9CFE6FFE1CFD9FFE652FE0EE6
:1027B000DB50DF6E00000000828600008294000083
:1027C000000082960000828A0000000082860000DD
:1027D0000000000082960000829A000000008286BD
:1027E0000000000000008296D9CFE9FFDACFEAFFAF
:1027F000EF50800B02E0828A01D0829A000082862C
:102800000000000000008296D9CFE9FFDACFEAFF8E
:10281000EF50400B02E0828A01D0829A000082864B
:102820000000000000008296D9CFE9FFDACFEAFF6E
:10283000EF50200B02E0828A01D0829A000082864B
:102840000000000000008296D9CFE9FFDACFEAFF4E
:10285000EF50100B02E0828A01D0829A000082863B
:102860000000000000008296D9CFE9FFDACFEAFF2E
:10287000EF50080B02E0828A01D0829A0000828623
:102880000000000000008296D9CFE9FFDACFEAFF0E
:10289000EF50040B02E0828A01D0829A0000828607
:1028A0000000000000008296D9CFE9FFDACFEAFFEE
:1028B000EF50020B02E0828A01D0829A00008286E9
:1028C0000000000000008296D9CFE9FFDACFEAFFCE
:1028D000EF50010B02E0828A01D0829A00008286CA
:1028E000000082840E01040E086F3FEC6AF00701BD
:1028F000116BF90EB36EC00EB26EB180E552E552A7
:10290000E7CFD9FF120007010051000801E214D0FF
:1029100014D80001766F0E01040E086F3FEC6AF0C8
:1029200000017651000808E20E01760E006F000EDD
:10293000016F63D80001766B1200D9CFE6FFE1CFBB
:10294000D9FFE652DF6A050E0001775D10E281A82B
:102950007A2B81AA7B2B81A67C2B81A47D2B0E0157
:10296000040E086F3FEC6AF00001772B3FD07D51D9
:10297000020803E2040EDF6E11D07C51020803E26C
:10298000030EDF6E0BD07A51020803E2010EDF6EF8
:1029900005D07B51020802E2020EDF6EDF50795D46
:1029A00007E1795105E0030E785D01E2782B01D053
:1029B000786BDFCF79F00E01040E086F3FEC6AF000
:1029C00000017D6B7C6B7A6B7B6B776B030E785DA4
:1029D00004E30701040E006F09D0DF5004E1070192
:1029E000010E006F03D007010F0E006FDF5000D003
:1029F000E552E552E7CFD9FF1200D9CFE6FFE1CF8C
:102A0000D9FFE6520B0100518A0A02E1B9EF38F012
:102A1000030A02E164EF38F0010A02E112EF38F034
:102A20000E0A02E1C0EF37F0030A02E16EEF37F061
:102A3000010A02E11CEF37F0070A02E1CAEF36F0A3
:102A40000C0A02E1BDEF36F00E0A02E178EF36F033
:102A5000010A02E1CDEF35F0FF0A02E124EF35F083
:102A6000010A02E188EF34F0030A02E1EAEF33F0F1
:102A7000010A02E152EF33F0070A02E1B9EF32F046
:102A8000010A02E158EF32F0030A02E100EF32F0EE
:102A9000EC0A02E1AAEF31F0010A02E156EF31F04F
:102AA000E30A02E102EF31F0010A02E1BDEF30F08A
:102AB000030A02E168EF30F0060A02E111EF30F09C
:102AC000010A02E1BAEF2FF0030A02E163EF2FF0EF
:102AD000010A02E10CEF2FF01E0A02E1CCEF2EF00A
:102AE000030A02E18CEF2EF0090A02E138EF2EF022
:102AF000070A02E1E2EF2DF0010A02E18FEF2DF06B
:102B0000030A02E13CEF2DF0010A02E1E9EF2CF0AB
:102B10003F0A02E196EF2CF0010A02E143EF2CF0AC
:102B2000CD0A02E10CEF2CF0010A02E1CEEF2BF00E
:102B3000030A02E197EF2BF0010A02E159EF2BF0B3
:102B40001E0A02E14BEF2BF0D20A02E105EF2BF057
:102B5000070A02E159EF2AF0010A02E1AFEF29F07A
:102B6000030A02E112EF29F0010A02E174EF28F0F2
:102B70000F0A02E1DCEF27F0010A02E143EF27F040
:102B8000030A02E1E2EF26F0010A02E18AEF26F0F1
:102B9000D90A02E136EF26F0DF0A02E1E2EF25F082
:102BA000030A02E18EEF25F0010A02E149EF25F068
:102BB0001F0A02E1F4EF24F0010A02E19EEF24F083
:102BC000030A02E147EF24F0010A02E1F0EF23F0EB
:102BD000070A02E199EF23F0020A02E159EF23F01C
:102BE000010A02E119EF23F0210A02E1CBEF22F002
:102BF0002E0A02E17FEF22F0010A02E133EF22F018
:102C0000060A02E125EF22F07F0A02E117EF22F027
:102C1000010A02E10AEF22F0030A02E1FCEF21F0CF
:102C2000010A02E1B9EF21F0070A02E176EF21F093
:102C3000010A02E133EF21F0030A02E1F1EF20F093
:102C40000E0A02E1A7EF20F0010A02E167EF20F08F
:102C5000030A02E111EF20F0010A02E1BBEF1FF0CD
:102C6000070A02E165EF1FF0010A02E10FEF1FF012
:102C7000020A02E163EF1EF01F0A02E1C5EF1DF038
:102C8000010A02E128EF1DF0030A02E197EF1CF0B0
:102C9000010A02E1FFEF1BF0070A02E172EF1BF0ED
:102CA000010A01E1F2D3030A01E1A3D3360A01E1EB
:102CB00054D3010A01E100D3090A01E161D2710A8A
:102CC00001E10FD2030A01E1BCD1730A01E155D140
:102CD000030A01E1FBD0010A01E1A1D0180A6DE06D
:102CE000070A39E0010A02E00FEF39F000CEE9FFF0
:102CF00001CEEAFFEF50020A20E0030A12E0020AC6
:102D000001E027D0670E006FE66AE66A010EE66E04
:102D1000CBEC02F0E552E552E5520B01140E006FC8
:102D200018D00C0E006FE66AE66A010EE66ECBEC78
:102D300002F0E552E552E5520CD00B0E006FE66A48
:102D4000E66A010EE66ECBEC02F0E552E552E55282
:102D500000D00FEF39F000CEE9FF01CEEAFFEF50CF
:102D6000020A1DE0030A0FE0020A01E024D01E0E51
:102D7000006FE66AE66A010EE66ECBEC02F0E55201
:102D8000E552E55218D00A0E006FE66AE66A010EB7
:102D9000E66ECBEC02F0E552E552E5520CD00C0E9B
:102DA000006FE66AE66A010EE66ECBEC02F0E552D1
:102DB000E552E55200D00FEF39F000CEE9FF01CE29
:102DC000EAFFEF50020A1DE0030A0FE0020A01E0E9
:102DD00024D0460E006FE66AE66A010EE66ECBEC82
:102DE00002F0E552E552E55218D00B0E006FE66A8C
:102DF000E66A010EE66ECBEC02F0E552E552E552D2
:102E00000CD00A0E006FE66AE66A010EE66ECBECA5
:102E100002F0E552E552E55200D00FEF39F000CE56
:102E2000E9FF01CEEAFFEF50020A42E0030A2CE07C
:102E3000020A14E0070A01E047D00A0E006FE66AB2
:102E4000E66A010EE66ECBEC02F0E552E552E55281
:102E5000040EE66E14EC39F0E55236D0150E006F14
:102E6000E66AE66A010EE66ECBEC02F0E552E55248
:102E7000E552010EE66E14EC39F0E5520E01010E3A
:102E8000086F3FEC6AF020D00701035104E00B010A
:102E9000660E006F03D00B01650E006FE66AE66AEE
:102EA000010EE66ECBEC02F0E552E552E5520CD095
:102EB000160E006FE66AE66A010EE66ECBEC02F0D3
:102EC000E552E552E55200D00FEF39F000CEE9FFB0
:102ED00001CEEAFFEF50020A42E0030A2CE0020AA8
:102EE00014E0070A01E047D00A0E006FE66AE66ABE
:102EF000010EE66ECBEC02F0E552E552E552040E0F
:102F0000E66E14EC39F0E55236D0140E006FE66A26
:102F1000E66A010EE66ECBEC02F0E552E552E552B0
:102F2000040EE66E14EC39F0E5520E01050E086F42
:102F30003FEC6AF020D00701035104E00B01660E5C
:102F4000006F03D00B01650E006FE66AE66A010EA2
:102F5000E66ECBEC02F0E552E552E5520CD0160ECF
:102F6000006FE66AE66A010EE66ECBEC02F0E5520F
:102F7000E552E55200D00FEF39F000CEE9FF01CE67
:102F8000EAFFEF50020A47E0030A31E0020A14E0C8
:102F9000070A01E054D00A0E006FE66AE66A010EE5
:102FA000E66ECBEC02F0E552E552E552040EE66E19
:102FB00014EC39F0E55243D0170E006FE66AE66A6A
:102FC000010EE66ECBEC02F0E552E552E552020E40
:102FD000E66E78EC3DF0E55200C802F801C803F84F
:102FE00004C807F805C808F806C809F828D00F0172
:102FF0003DA104D00B01150E006F03D00B01140E80
:10300000006FE66AE66A010EE66ECBEC02F0E5526E
:10301000E552E55214D00701035104E00B01660E9E
:10302000006F03D00B01650E006FE66AE66A010EC1
:10303000E66ECBEC02F0E552E552E55200D00FEF20
:1030400039F000CEE9FF01CEEAFFEF50020A33E08B
:10305000030A25E0020A14E0070A01E040D00A0E44
:10306000006FE66AE66A010EE66ECBEC02F0E5520E
:10307000E552E552040EE66E14EC39F0E5522FD01D
:10308000660E006FE66AE66A010EE66ECBEC02F0B1
:10309000E552E552E5520701010E036F20D0160EEE
:1030A000006FE66AE66A010EE66ECBEC02F0E552CE
:1030B000E552E55214D00F013DA104D00B01150ECD
:1030C000006F03D00B01140E006FE66AE66A010E72
:1030D000E66ECBEC02F0E552E552E55200D00FEF80
:1030E00039F000CEE9FF01CEEAFFEF50020A32E0EC
:1030F000030A24E0020A14E0070A01E03FD00A0EA6
:10310000006FE66AE66A010EE66ECBEC02F0E5526D
:10311000E552E552040EE66E14EC39F0E5522ED07D
:10312000650E006FE66AE66A010EE66ECBEC02F011
:10313000E552E552E5520701036B20D0160E006FF1
:10314000E66AE66A010EE66ECBEC02F0E552E55265
:10315000E55214D00F013DA104D00B01150E006FF4
:1031600003D00B01140E006FE66AE66A010EE66EEC
:10317000CBEC02F0E552E552E55200D00FEF39F00A
:1031800000CEE9FF01CEEAFFEF50030A50E0070A44
:1031900001E090D0670E006FE66AE66A010EE66E07
:1031A000CBEC02F0E552E552E5520F013DA104D00F
:1031B0000B01150E006F03D00B01140E006FE66AB1
:1031C000E66A010EE66ECBEC02F0E552E552E552FE
:1031D0000701035104E00B01660E006F03D00B01E1
:1031E000650E006FE66AE66A010EE66ECBEC02F051
:1031F000E552E552E5520B01160E006FE66AE66AEB
:10320000010EE66ECBEC02F0E552E552E552080EF7
:10321000E66E78EC3DF0E55202C800F803C801F80C
:1032200007C804F808C805F809C806F843D0670EAF
:10323000006FE66AE66A010EE66ECBEC02F0E5523C
:10324000E552E5520F013DA104D00B01150E006FB0
:1032500003D00B01140E006FE66AE66A010EE66EFB
:10326000CBEC02F0E552E552E5520701035104E0D0
:103270000B01660E006F03D00B01650E006FE66A4E
:10328000E66A010EE66ECBEC02F0E552E552E5523D
:103290000B01160E006FE66AE66A010EE66ECBECD5
:1032A00002F0E552E552E552080EE66E78EC3DF08C
:1032B000E55200D00FEF39F000CEE9FF01CEEAFF72
:1032C000EF50020A3CE0030A2EE0020A1BE0070A64
:1032D00001E041D00A0E006FE66AE66A010EE66E72
:1032E000CBEC02F0E552E552E5520B010B0E006FFC
:1032F000E66AE66A010EE66ECBEC02F0E552E552B4
:10330000E55229D0280E006FE66AE66A010EE66EE5
:10331000CBEC02F0E552E552E5520E01020E086FC9
:103320003FEC6AF018D01F0E006FE66AE66A010EE5
:10333000E66ECBEC02F0E552E552E5520CD01F0EE2
:10334000006FE66AE66A010EE66ECBEC02F0E5522B
:10335000E552E55200D00FEF39F000CEE9FF01CE83
:10336000EAFFEF50020A37E0030A29E0020A1BE0F5
:10337000070A01E03CD00A0E006FE66AE66A010E19
:10338000E66ECBEC02F0E552E552E5520B010B0E76
:10339000006FE66AE66A010EE66ECBEC02F0E552DB
:1033A000E552E55224D0310E006FE66AE66A010E5E
:1033B000E66ECBEC02F0E552E552E55218D01E0E57
:1033C000006FE66AE66A010EE66ECBEC02F0E552AB
:1033D000E552E5520CD01E0E006FE66AE66A010E59
:1033E000E66ECBEC02F0E552E552E55200D00FEF6D
:1033F00039F000CEE9FF01CEEAFFEF50020A37E0D4
:10340000030A29E0020A14E0070A01E03CD0360E64
:10341000006FE66AE66A010EE66ECBEC02F0E5525A
:10342000E552E552070EE66E78EC3DF0E5522BD002
:103430002A0E006FE66AE66A010EE66ECBEC02F039
:10344000E552E552E552010EE66EDAEC3FF0E55248
:10345000DFC8E0F818D02F0E006FE66AE66A010EAA
:10346000E66ECBEC02F0E552E552E5520CD02B0EA5
:10347000006FE66AE66A010EE66ECBEC02F0E552FA
:10348000E552E55200D00FEF39F000CEE9FF01CE52
:10349000EAFFEF50020A01E1ABD0030A34E0020A6E
:1034A00020E0070A01E01CD1030EE66EDAEC3FF0E3
:1034B000E5520B01290E006FE66AE66A010EE66E20
:1034C000CBEC02F0E552E552E552E0C8DFF8E66ADF
:1034D000E66A020EE66ECBEC02F0E552E552E552EA
:1034E000FFD0030EE66EDAEC3FF0E5520B01290E39
:1034F000006FE66AE66A010EE66ECBEC02F0E5527A
:10350000E552E552EDD00C0E0801DF5D20E1DF6BE6
:10351000E66A090EE66E010EE66E47EC43F0E552F0
:10352000E552E552E66A090EE66E020EE66E47ECDB
:1035300043F0E552E552E552E66A090EE66E030EE7
:10354000E66E47EC43F0E552E552E55247D0DF2BFB
:10355000DF51030DF3CFE9FFF4CFEAFF580EE92660
:10356000080EEA22EF50E66E090EE66E010EE66ED8
:1035700047EC43F0E552E552E5520801DF51030DF7
:10358000F3CFE9FFF4CFEAFF580EE926080EEA224E
:10359000EE52EF50E66E090EE66E020EE66E47EC56
:1035A00043F0E552E552E5520801DF51030DF3CF38
:1035B000E9FFF4CFEAFF580EE926080EEA22020ED0
:1035C000E926000EEA22EF50E66E090EE66E030EC3
:1035D000E66E47EC43F0E552E552E552E66AE66AEC
:1035E000020EE66ECBEC02F0E552E552E55278D0E1
:1035F0000801DF5103E10C0EDF6F01D0DF07DF515F
:103600001FE1E66A090EE66E010EE66E47EC43F036
:10361000E552E552E552E66A090EE66E020EE66EE6
:1036200047EC43F0E552E552E552E66A090EE66ED4
:10363000030EE66E47EC43F0E552E552E55246D004
:10364000DF51030DF3CFE9FFF4CFEAFF580EE9266F
:10365000080EEA22EF50E66E090EE66E010EE66EE7
:1036600047EC43F0E552E552E5520801DF51030D06
:10367000F3CFE9FFF4CFEAFF580EE926080EEA225D
:10368000EE52EF50E66E090EE66E020EE66E47EC65
:1036900043F0E552E552E5520801DF51030DF3CF47
:1036A000E9FFF4CFEAFF580EE926080EEA22020EDF
:1036B000E926000EEA22EF50E66E090EE66E030ED2
:1036C000E66E47EC43F0E552E552E552E66AE66AFB
:1036D000020EE66ECBEC02F0E552E552E55200D068
:1036E0000FEF39F000CEE9FF01CEEAFFEF50020AFA
:1036F00001E177D0030A69E0020A14E0070A01E059
:103700007CD0360E006FE66AE66A010EE66ECBEC00
:1037100002F0E552E552E552070EE66E78EC3DF018
:10372000E5526BD02C0E006FE66AE66A010EE66E7B
:10373000CBEC02F0E552E552E552010EE66EDAEC12
:103740003FF0E552010EE66E78EC3DF0E5520801DF
:10375000DF5121E1010EDF6EDF500C081BE3DF506B
:10376000030DF3CFE9FFF4CFEAFF580EE926080E68
:10377000EA22EF50E66EDF50030DF3CFE9FFF4CFFE
:10378000EAFFA60EE926080EEA22E552E750EF6EA0
:10379000DF2AE2D719D0DF51030DF3CFE9FFF4CFD1
:1037A000EAFF580EE926080EEA22EF50E66EDF51D6
:1037B000030DF3CFE9FFF4CFEAFFA60EE926080ECA
:1037C000EA22E552E750EF6E18D0290E006FE66A44
:1037D000E66A010EE66ECBEC02F0E552E552E552E8
:1037E0000CD02D0E006FE66AE66A010EE66ECBEC99
:1037F00002F0E552E552E55200D00FEF39F000CE6D
:10380000E9FF01CEEAFFEF50030A01E177D0070A92
:1038100001E08BD0030EE66EDAEC3FF0E552070EC6
:10382000E66E78EC3DF0E5520B012B0E006FE66A78
:10383000E66A010EE66ECBEC02F0E552E552E55287
:103840000801DF512CE1010EDF6EDF500C081BE395
:10385000DF50030DF3CFE9FFF4CFEAFFA60EE92610
:10386000080EEA22EF50E66EDF50030DF3CFE9FFBA
:10387000F4CFEAFF580EE926080EEA22E552E75097
:10388000EF6EDF2AE2D7A9C8E6FF090EE66E010E49
:10389000E66E47EC43F0E552E552E5522ED0DF519B
:1038A000030DF3CFE9FFF4CFEAFFA60EE926080ED9
:1038B000EA22EF50E66EDF51030DF3CFE9FFF4CFBC
:1038C000EAFF580EE926080EEA22E552E750EF6EAD
:1038D000DF51030DF3CFE9FFF4CFEAFF580EE926DD
:1038E000080EEA22EF50E66E090EE66E010EE66E55
:1038F00047EC43F0E552E552E55217D0030EE66E71
:10390000DAEC3FF0E552070EE66E78EC3DF0E5525A
:103910000B012B0E006FE66AE66A010EE66ECBEC39
:1039200002F0E552E552E55200D00FEF39F000CE3B
:10393000E9FF01CEEAFFEF50020A01E17BD0030A62
:103940006DE0020A14E0070A01E080D0360E006F35
:10395000E66AE66A010EE66ECBEC02F0E552E5524D
:10396000E552070EE66E78EC3DF0E5526FD02E0E74
:10397000006FE66AE66A010EE66ECBEC02F0E552F5
:10398000E552E552010EE66EDAEC3FF0E552010E2B
:10399000E66E78EC3DF0E5520801DF5123E1010EBF
:1039A000DF6EDF500C081DE3DF50030DF3CFE9FF9E
:1039B000F4CFEAFF580EE926080EEA22EE52EF5045
:1039C000E66EDF50030DF3CFE9FFF4CFEAFFA60E5A
:1039D000E926080EEA22EE52E552E750EF6EDF2AA2
:1039E000E0D71BD0DF51030DF3CFE9FFF4CFEAFF9F
:1039F000580EE926080EEA22EE52EF50E66EDF512D
:103A0000030DF3CFE9FFF4CFEAFFA60EE926080E77
:103A1000EA22EE52E552E750EF6E18D02B0E006FFF
:103A2000E66AE66A010EE66ECBEC02F0E552E5527C
:103A3000E5520CD02F0E006FE66AE66A010EE66EC4
:103A4000CBEC02F0E552E552E55200D00FEF39F031
:103A500000CEE9FF01CEEAFFEF50030A01E17CD07E
:103A6000070A01E090D0030EE66EDAEC3FF0E55273
:103A7000070EE66E78EC3DF0E5520B012D0E006F5F
:103A8000E66AE66A010EE66ECBEC02F0E552E5521C
:103A9000E5520801DF512EE1010EDF6EDF500C0808
:103AA0001DE3DF50030DF3CFE9FFF4CFEAFFA60ECD
:103AB000E926080EEA22EE52EF50E66EDF50030DC3
:103AC000F3CFE9FFF4CFEAFF580EE926080EEA2209
:103AD000EE52E552E750EF6EDF2AE0D7AAC8E6FFC4
:103AE000090EE66E010EE66E47EC43F0E552E55234
:103AF000E55231D0DF51030DF3CFE9FFF4CFEAFFF8
:103B0000A60EE926080EEA22EE52EF50E66EDF51CD
:103B1000030DF3CFE9FFF4CFEAFF580EE926080EB4
:103B2000EA22EE52E552E750EF6EDF51030DF3CF7C
:103B3000E9FFF4CFEAFF580EE926080EEA22EE521A
:103B4000EF50E66E090EE66E010EE66E47EC43F0AE
:103B5000E552E552E55217D0030EE66EDAEC3FF07F
:103B6000E552070EE66E78EC3DF0E5520B012D0EA6
:103B7000006FE66AE66A010EE66ECBEC02F0E552F3
:103B8000E552E55200D00FEF39F000CEE9FF01CE4B
:103B9000EAFFEF50020A01E188D0030A01E179D07F
:103BA000020A14E0070A01E08CD0360E006FE66AC4
:103BB000E66A010EE66ECBEC02F0E552E552E55204
:103BC000070EE66E78EC3DF0E5527BD0300E006FCC
:103BD000E66AE66A010EE66ECBEC02F0E552E552CB
:103BE000E552010EE66EDAEC3FF0E552010EE66EAC
:103BF00078EC3DF0E5520801DF5129E1010EDF6E5E
:103C0000DF500C0823E3DF50030DF3CFE9FFF4CFBF
:103C1000EAFF580EE926080EEA22020EE926000EF7
:103C2000EA22EF50E66EDF50030DF3CFE9FFF4CF49
:103C3000EAFFA60EE926080EEA22020EE926000E89
:103C4000EA22E552E750EF6EDF2ADAD721D0DF51C2
:103C5000030DF3CFE9FFF4CFEAFF580EE926080E73
:103C6000EA22020EE926000EEA22EF50E66EDF514C
:103C7000030DF3CFE9FFF4CFEAFFA60EE926080E05
:103C8000EA22020EE926000EEA22E552E750EF6E24
:103C900018D02D0E006FE66AE66A010EE66ECBECD8
:103CA00002F0E552E552E5520CD0290E006FE66AAB
:103CB000E66A010EE66ECBEC02F0E552E552E55203
:103CC00000D00FEF39F000CEE9FF01CEEAFFEF5050
:103CD000030A01E18BD0070A01E09FD0030EE66ED4
:103CE000DAEC3FF0E552070EE66E78EC3DF0E55277
:103CF0000B012D0E006FE66AE66A010EE66ECBEC54
:103D000002F0E552E552E5520801DF5134E1010EBF
:103D1000DF6EDF500C0823E3DF50030DF3CFE9FF24
:103D2000F4CFEAFFA60EE926080EEA22020EE926E3
:103D3000000EEA22EF50E66EDF50030DF3CFE9FFED
:103D4000F4CFEAFF580EE926080EEA22020EE92611
:103D5000000EEA22E552E750EF6EDF2ADAD7ABC851
:103D6000E6FF090EE66E010EE66E47EC43F0E55203
:103D7000E552E5523AD0DF51030DF3CFE9FFF4CF1E
:103D8000EAFFA60EE926080EEA22020EE926000E38
:103D9000EA22EF50E66EDF51030DF3CFE9FFF4CFD7
:103DA000EAFF580EE926080EEA22020EE926000E66
:103DB000EA22E552E750EF6EDF51030DF3CFE9FF42
:103DC000F4CFEAFF580EE926080EEA22020EE92691
:103DD000000EEA22EF50E66E090EE66E010EE66E68
:103DE00047EC43F0E552E552E55217D0030EE66E7C
:103DF000DAEC3FF0E552070EE66E78EC3DF0E55266
:103E00000B012F0E006FE66AE66A010EE66ECBEC40
:103E100002F0E552E552E55200D00FEF39F000CE46
:103E2000E9FF01CEEAFFEF50020A41E0030A33E066
:103E3000020A1BE0070A01E046D01E0E006FE66A88
:103E4000E66A010EE66ECBEC02F0E552E552E55271
:103E50000B011F0E006FE66AE66A010EE66ECBEC00
:103E600002F0E552E552E5522ED0280E006FE66AC8
:103E7000E66A010EE66ECBEC02F0E552E552E55241
:103E80000E01020E086F3FEC6AF0010EE66ED7ECF1
:103E900061F0E55218D0350E006FE66AE66A010E51
:103EA000E66ECBEC02F0E552E552E5520CD0330E53
:103EB000006FE66AE66A010EE66ECBEC02F0E552B0
:103EC000E552E55200D00FEF39F000CEE9FF01CE08
:103ED000EAFFEF50020A41E0030A33E0020A1BE066
:103EE000070A01E046D01E0E006FE66AE66A010E80
:103EF000E66ECBEC02F0E552E552E5520B011F0EE7
:103F0000006FE66AE66A010EE66ECBEC02F0E5525F
:103F1000E552E5522ED0280E006FE66AE66A010EE1
:103F2000E66ECBEC02F0E552E552E5520E01020ED0
:103F3000086F3FEC6AF0020EE66ED7EC61F0E552D6
:103F400018D0320E006FE66AE66A010EE66ECBEC20
:103F500002F0E552E552E5520CD0340E006FE66AED
:103F6000E66A010EE66ECBEC02F0E552E552E55250
:103F700000D00FEF39F000CEE9FF01CEEAFFEF509D
:103F8000020A41E0030A33E0020A1BE0070A01E0EB
:103F900046D01E0E006FE66AE66A010EE66ECBECB6
:103FA00002F0E552E552E5520B011F0E006FE66A82
:103FB000E66A010EE66ECBEC02F0E552E552E55200
:103FC0002ED0280E006FE66AE66A010EE66ECBEC94
:103FD00002F0E552E552E5520E01020E086F3FEC89
:103FE0006AF0030EE66ED7EC61F0E55218D0330E9E
:103FF000006FE66AE66A010EE66ECBEC02F0E5526F
:10400000E552E5520CD0350E006FE66AE66A010E05
:10401000E66ECBEC02F0E552E552E55200D00FEF30
:1040200039F000CEE9FF01CEEAFFEF50020A41E08D
:10403000030A33E0020A1BE0070A01E046D01E0E25
:10404000006FE66AE66A010EE66ECBEC02F0E5521E
:10405000E552E5520B011F0E006FE66AE66A010E9B
:10406000E66ECBEC02F0E552E552E5522ED0280E7A
:10407000006FE66AE66A010EE66ECBEC02F0E552EE
:10408000E552E5520E01020E086F3FEC6AF0040E95
:10409000E66ED7EC61F0E55218D0340E006FE66A98
:1040A000E66A010EE66ECBEC02F0E552E552E5520F
:1040B0000CD0320E006FE66AE66A010EE66ECBECBB
:1040C00002F0E552E552E55200D00FEF39F000CE94
:1040D000E9FF01CEEAFFEF50020A2BE0030A1DE0E0
:1040E000020A0FE0070A01E030D0280E006FE66AEE
:1040F000E66A010EE66ECBEC02F0E552E552E552BF
:1041000024D0380E006FE66AE66A010EE66ECBEC4C
:1041100002F0E552E552E55218D0370E006FE66A1C
:10412000E66A010EE66ECBEC02F0E552E552E5528E
:104130000CD0370E006FE66AE66A010EE66ECBEC35
:1041400002F0E552E552E55200D00FEF39F000CE13
:10415000E9FF01CEEAFFEF50020A35E0030A27E04B
:10416000020A0FE0070A01E03AD0280E006FE66A63
:10417000E66A010EE66ECBEC02F0E552E552E5523E
:104180002ED01E0E006FE66AE66A010EE66ECBECDC
:1041900002F0E552E552E552070EE66E78EC3DF08E
:1041A000E5520E01050E086F3FEC6AF018D0360E8E
:1041B000006FE66AE66A010EE66ECBEC02F0E552AD
:1041C000E552E5520CD0360E006FE66AE66A010E43
:1041D000E66ECBEC02F0E552E552E55200D00FEF6F
:1041E00039F000CEE9FF01CEEAFFEF50020A2DE0E0
:1041F000030A1FE0020A0FE0070A01E032D0290E8D
:10420000006FE66AE66A010EE66ECBEC02F0E5525C
:10421000E552E55226D03D0E006F00CE06FE01CEDF
:1042200007FE010EE66EE66E63EC5EF0E552E552C7
:1042300018D03C0E006FE66AE66A010EE66ECBEC23
:1042400002F0E552E552E5520CD03A0E006FE66AF4
:10425000E66A010EE66ECBEC02F0E552E552E5525D
:1042600000D00FEF39F000CEE9FF01CEEAFFEF50AA
:10427000020A2EE0030A20E0020A0FE0070A01E02A
:1042800033D0290E006FE66AE66A010EE66ECBECCB
:1042900002F0E552E552E55227D03E0E006F00CE07
:1042A00006FE01CE07FE020EE66E010EE66E63EC20
:1042B0005EF0E552E55218D0390E006FE66AE66A04
:1042C000010EE66ECBEC02F0E552E552E5520CD061
:1042D0003B0E006FE66AE66A010EE66ECBEC02F07A
:1042E000E552E552E55200D00FEF39F000CEE9FF7C
:1042F00001CEEAFFEF50020A2EE0030A20E0020A94
:104300000FE0070A01E033D0290E006FE66AE66A83
:10431000010EE66ECBEC02F0E552E552E55227D0F5
:104320003F0E006F00CE06FE01CE07FE030EE66EC6
:10433000010EE66E63EC5EF0E552E55218D03A0EDF
:10434000006FE66AE66A010EE66ECBEC02F0E5521B
:10435000E552E5520CD03C0E006FE66AE66A010EAB
:10436000E66ECBEC02F0E552E552E55200D00FEFDD
:1043700039F000CEE9FF01CEEAFFEF50020A2EE04D
:10438000030A20E0020A0FE0070A01E033D0290EF9
:10439000006FE66AE66A010EE66ECBEC02F0E552CB
:1043A000E552E55227D0400E006F00CE06FE01CE4A
:1043B00007FE040EE66E010EE66E63EC5EF0E5525B
:1043C000E55218D03B0E006FE66AE66A010EE66E13
:1043D000CBEC02F0E552E552E5520CD0390E006FFD
:1043E000E66AE66A010EE66ECBEC02F0E552E552B3
:1043F000E55200D00FEF39F000CE06FE01CE07FEE9
:10440000010EE66E020EE66E63EC5EF0E552E552DA
:104410000FEF39F000CE06FE01CE07FE020EE66E6B
:10442000E66E63EC5EF0E552E5520FEF39F000CE38
:1044300006FE01CE07FE030EE66E020EE66E63EC8C
:104440005EF0E552E5520FEF39F000CE06FE01CEE8
:1044500007FE040EE66E020EE66E63EC5EF0E552B9
:10446000E5520FEF39F000CEE9FF01CEEAFFEF5041
:10447000020A37E0030A29E0020A1BE0070A01E00A
:104480003CD00A0E006FE66AE66A010EE66ECBECDF
:1044900002F0E552E552E5520B010C0E006FE66AA0
:1044A000E66A010EE66ECBEC02F0E552E552E5520B
:1044B00024D0480E006FE66AE66A010EE66ECBEC89
:1044C00002F0E552E552E55218D0690E006FE66A37
:1044D000E66A010EE66ECBEC02F0E552E552E552DB
:1044E0000CD0470E006FE66AE66A010EE66ECBEC72
:1044F00002F0E552E552E55200D00FEF39F000CE60
:10450000E9FF01CEEAFFEF50020A37E0030A29E093
:10451000020A1BE0070A01E03CD00A0E006FE66ABF
:10452000E66A010EE66ECBEC02F0E552E552E5528A
:104530000B010C0E006FE66AE66A010EE66ECBEC2C
:1045400002F0E552E552E55224D06D0E006FE66AA6
:10455000E66A010EE66ECBEC02F0E552E552E5525A
:1045600018D0460E006FE66AE66A010EE66ECBECE6
:1045700002F0E552E552E5520CD0690E006FE66A92
:10458000E66A010EE66ECBEC02F0E552E552E5522A
:1045900000D00FEF39F000CEE9FF01CEEAFFEF5077
:1045A000020A39E0030A2BE0020A1BE0070A01E0D5
:1045B0003ED00A0E006FE66AE66A010EE66ECBECAC
:1045C00002F0E552E552E5520B010C0E006FE66A6F
:1045D000E66A010EE66ECBEC02F0E552E552E552DA
:1045E00026D06B0E006FE66AE66A010EE66ECBEC33
:1045F00002F0E552E552E55213EC7EF018D0470E7A
:10460000006FE66AE66A010EE66ECBEC02F0E55258
:10461000E552E5520CD0460E006FE66AE66A010EDE
:10462000E66ECBEC02F0E552E552E55200D00FEF1A
:1046300039F000CEE9FF01CEEAFFEF50020A2BE08D
:10464000030A1DE0020A0FE0070A01E030D0460E1F
:10465000006FE66AE66A010EE66ECBEC02F0E55208
:10466000E552E55224D04A0E006FE66AE66A010E72
:10467000E66ECBEC02F0E552E552E55218D0490E59
:10468000006FE66AE66A010EE66ECBEC02F0E552D8
:10469000E552E5520CD0490E006FE66AE66A010E5B
:1046A000E66ECBEC02F0E552E552E55200D00FEF9A
:1046B00039F000CEE9FF01CEEAFFEF50020A2BE00D
:1046C000030A1DE0020A0FE0070A01E030D0460E9F
:1046D000006FE66AE66A010EE66ECBEC02F0E55288
:1046E000E552E55224D05D0E006FE66AE66A010EDF
:1046F000E66ECBEC02F0E552E552E55218D0480EDA
:10470000006FE66AE66A010EE66ECBEC02F0E55257
:10471000E552E5520CD0480E006FE66AE66A010EDB
:10472000E66ECBEC02F0E552E552E55200D00FEF19
:1047300039F000CEE9FF01CEEAFFEF50020A42E075
:10474000030A34E0020A0FE0070A01E047D0480EEE
:10475000006FE66AE66A010EE66ECBEC02F0E55207
:10476000E552E5523BD00A01010E1C6F1CCA0AFE3D
:104770000E01040E096F36EC6BF00B018C0E006F0E
:10478000E66AE66A010EE66ECBEC02F0E552E5520F
:10479000E5520B014F0E006FE66AE66A010EE66E07
:1047A000CBEC02F0E552E552E55218D04E0E006F08
:1047B000E66AE66A010EE66ECBEC02F0E552E552DF
:1047C000E5520CD04C0E006FE66AE66A010EE66E0A
:1047D000CBEC02F0E552E552E55200D00FEF39F094
:1047E00000CEE9FF01CEEAFFEF50020A42E0030AE1
:1047F00034E0020A0FE0070A01E047D0480E006FDC
:10480000E66AE66A010EE66ECBEC02F0E552E5528E
:10481000E5523BD00A01020E1C6F1CCA0AFE0E01B3
:10482000040E096F36EC6BF00B018C0E006FE66A1C
:10483000E66A010EE66ECBEC02F0E552E552E55277
:104840000B014F0E006FE66AE66A010EE66ECBECD6
:1048500002F0E552E552E55218D04B0E006FE66AC1
:10486000E66A010EE66ECBEC02F0E552E552E55247
:104870000CD04D0E006FE66AE66A010EE66ECBECD8
:1048800002F0E552E552E55200D00FEF39F000CECC
:10489000E9FF01CEEAFFEF50020A42E0030A34E0EA
:1048A000020A0FE0070A01E047D0480E006FE66AEF
:1048B000E66A010EE66ECBEC02F0E552E552E552F7
:1048C0003BD00A01030E1C6F1CCA0AFE0E01040E27
:1048D000096F36EC6BF00B018C0E006FE66AE66A2E
:1048E000010EE66ECBEC02F0E552E552E5520B010B
:1048F0004F0E006FE66AE66A010EE66ECBEC02F040
:10490000E552E552E55218D04C0E006FE66AE66AB1
:10491000010EE66ECBEC02F0E552E552E5520CD00A
:104920004E0E006FE66AE66A010EE66ECBEC02F010
:10493000E552E552E55200D00FEF39F000CEE9FF25
:1049400001CEEAFFEF50020A41E0030A33E0020A17
:104950000FE0070A01E046D0480E006FE66AE66AFB
:10496000010EE66ECBEC02F0E552E552E5523AD08C
:104970000A01040E1C6F1CCA0AFE0E01096F36ECF8
:104980006BF00B018C0E006FE66AE66A010EE66EB4
:10499000CBEC02F0E552E552E5520B014F0E006FF1
:1049A000E66AE66A010EE66ECBEC02F0E552E552ED
:1049B000E55218D04D0E006FE66AE66A010EE66E0B
:1049C000CBEC02F0E552E552E5520CD04B0E006FF5
:1049D000E66AE66A010EE66ECBEC02F0E552E552BD
:1049E000E55200D00FEF39F000CEE9FF01CEEAFF2B
:1049F000EF50020A40E0030A32E0020A0FE0070A21
:104A000001E045D0900E006FE66AE66A010EE66EA0
:104A1000CBEC02F0E552E552E55239D0530E006F6F
:104A2000E66AE66A010EE66ECBEC02F0E552E5526C
:104A3000E5520B01540E006FE66AE66A010EE66E5F
:104A4000CBEC02F0E552E552E552E66AE66A020E68
:104A5000E66ECBEC02F0E552E552E55218D08D0E31
:104A6000006FE66AE66A010EE66ECBEC02F0E552F4
:104A7000E552E5520CD0500E006FE66AE66A010E70
:104A8000E66ECBEC02F0E552E552E55200D00FEFB6
:104A900039F000CEE9FF01CEEAFFEF50020A30E024
:104AA000030A22E0020A0FE0070A01E035D0900E67
:104AB000006FE66AE66A010EE66ECBEC02F0E552A4
:104AC000E552E55229D05C0E006FE66AE66A010EF7
:104AD000E66ECBEC02F0E552E552E552020EE66ED0
:104AE00078EC3DF0E55218D04F0E006FE66AE66AAA
:104AF000010EE66ECBEC02F0E552E552E5520CD029
:104B0000510E006FE66AE66A010EE66ECBEC02F02B
:104B1000E552E552E55200D00FEF39F000CEE9FF43
:104B200001CEEAFFEF50020A3FE0030A31E0020A39
:104B30000FE0070A01E044D0900E006FE66AE66AD3
:104B4000010EE66ECBEC02F0E552E552E55238D0AC
:104B50000E010A6B0E01050E096F36EC6BF00B01AE
:104B60008C0E006FE66AE66A010EE66ECBEC02F090
:104B7000E552E552E5520B01510E006FE66AE66A16
:104B8000010EE66ECBEC02F0E552E552E55218D08C
:104B9000500E006FE66AE66A010EE66ECBEC02F09C
:104BA000E552E552E5520CD0520E006FE66AE66A15
:104BB000010EE66ECBEC02F0E552E552E55200D074
:104BC0000FEF39F000CEE9FF01CEEAFFEF50020A05
:104BD0003FE0030A31E0020A0FE0070A01E044D097
:104BE000900E006FE66AE66A010EE66ECBEC02F00C
:104BF000E552E552E55238D00E010A6B0E01050E62
:104C0000096F36EC6BF00B018C0E006FE66AE66AFA
:104C1000010EE66ECBEC02F0E552E552E5520B01D7
:104C2000520E006FE66AE66A010EE66ECBEC02F009
:104C3000E552E552E55218D0510E006FE66AE66A79
:104C4000010EE66ECBEC02F0E552E552E5520CD0D7
:104C50008D0E006FE66AE66A010EE66ECBEC02F09E
:104C6000E552E552E55200D00FEF39F000CEE9FFF2
:104C700001CEEAFFEF50020A3FE0030A31E0020AE8
:104C80000FE0070A01E044D0900E006FE66AE66A82
:104C9000010EE66ECBEC02F0E552E552E55238D05B
:104CA0000E010A6B0E01050E096F36EC6BF00B015D
:104CB0008E0E006FE66AE66A010EE66ECBEC02F03D
:104CC000E552E552E55200CE06FE01CE07FE1CCAB3
:104CD000E6FF010EE66E63EC5EF0E552E55218D099
:104CE000520E006FE66AE66A010EE66ECBEC02F049
:104CF000E552E552E5520CD04F0E006FE66AE66AC7
:104D0000010EE66ECBEC02F0E552E552E55200D022
:104D10000FEF39F000CEE9FF01CEEAFFEF50020AB3
:104D200043E0030A35E0020A20E0070A01E048D028
:104D30008C0E006FE66AE66A010EE66ECBEC02F0BE
:104D4000E552E552E5520B014F0E006FE66AE66A46
:104D5000010EE66ECBEC02F0E552E552E552070E8D
:104D6000E66E78EC3DF0E5522BD0550E006FE66A0A
:104D7000E66A010EE66ECBEC02F0E552E552E55232
:104D8000010EE66EDAEC3FF0E552DFC8E0F818D02D
:104D90005A0E006FE66AE66A010EE66ECBEC02F090
:104DA000E552E552E5520CD0560E006FE66AE66A0F
:104DB000010EE66ECBEC02F0E552E552E55200D072
:104DC0000FEF39F000CEE9FF01CEEAFFEF50020A03
:104DD00047E0030A34E0020A20E0070A01E051D06C
:104DE000030EE66EDAEC3FF0E5520B01540E006F55
:104DF000E66AE66A010EE66ECBEC02F0E552E55299
:104E0000E552E0C8DFF8E66AE66A020EE66ECBEC31
:104E100002F0E552E552E55234D0030EE66EDAECCC
:104E20003FF0E5520B01540E006FE66AE66A010E90
:104E3000E66ECBEC02F0E552E552E55222D00C0EC4
:104E40000801DF5D02E1DF6B01D0DF2BE66AE66A75
:104E5000020EE66ECBEC02F0E552E552E55211D0BF
:104E60000801DF5103E10C0EDF6F01D0DF07E66AB6
:104E7000E66A020EE66ECBEC02F0E552E552E55230
:104E800000D00FEF39F000CEE9FF01CEEAFFEF507E
:104E9000020A01E183D0030A75E0020A20E0070A52
:104EA00001E088D08C0E006FE66AE66A010EE66EBD
:104EB000CBEC02F0E552E552E5520B014F0E006FCC
:104EC000E66AE66A010EE66ECBEC02F0E552E552C8
:104ED000E552070EE66E78EC3DF0E5526BD0570ECA
:104EE000006FE66AE66A010EE66ECBEC02F0E55270
:104EF000E552E552010EE66EDAEC3FF0E552010EA6
:104F0000E66E78EC3DF0E5520801DF5121E1010E3B
:104F1000DF6EDF500C081BE3DF50030DF3CFE9FF1A
:104F2000F4CFEAFF580EE926080EEA22EF50E66EAB
:104F3000DF50030DF3CFE9FFF4CFEAFFA60EE92619
:104F4000080EEA22E552E750EF6EDF2AE2D719D0C9
:104F5000DF51030DF3CFE9FFF4CFEAFF580EE92646
:104F6000080EEA22EF50E66EDF51030DF3CFE9FFA2
:104F7000F4CFEAFFA60EE926080EEA22E552E75032
:104F8000EF6E18D0540E006FE66AE66A010EE66E08
:104F9000CBEC02F0E552E552E5520CD0580E006F12
:104FA000E66AE66A010EE66ECBEC02F0E552E552E7
:104FB000E55200D00FEF39F000CEE9FF01CEEAFF55
:104FC000EF50030A01E177D0070A01E08BD0030E0E
:104FD000E66EDAEC3FF0E552070EE66E78EC3DF057
:104FE000E5520B01560E006FE66AE66A010EE66EA8
:104FF000CBEC02F0E552E552E5520801DF512CE11D
:10500000010EDF6EDF500C081BE3DF50030DF3CF02
:10501000E9FFF4CFEAFFA60EE926080EEA22EF50D8
:10502000E66EDF50030DF3CFE9FFF4CFEAFF580E31
:10503000E926080EEA22E552E750EF6EDF2AE2D7B2
:10504000A9C8E6FF090EE66E010EE66E47EC43F0D6
:10505000E552E552E5522ED0DF51030DF3CFE9FFC3
:10506000F4CFEAFFA60EE926080EEA22EF50E66E1C
:10507000DF51030DF3CFE9FFF4CFEAFF580EE92625
:10508000080EEA22E552E750EF6EDF51030DF3CF31
:10509000E9FFF4CFEAFF580EE926080EEA22EF50A6
:1050A000E66E090EE66E010EE66E47EC43F0E55241
:1050B000E552E55217D0030EE66EDAEC3FF0E5520A
:1050C000070EE66E78EC3DF0E5520B01560E006FD0
:1050D000E66AE66A010EE66ECBEC02F0E552E552B6
:1050E000E55200D00FEF39F000CEE9FF01CEEAFF24
:1050F000EF50020A01E188D0030A01E179D0020AE7
:1051000020E0070A01E08CD08C0E006FE66AE66AA8
:10511000010EE66ECBEC02F0E552E552E5520B01D2
:105120004F0E006FE66AE66A010EE66ECBEC02F007
:10513000E552E552E552070EE66E78EC3DF0E55299
:105140006FD0590E006FE66AE66A010EE66ECBEC90
:1051500002F0E552E552E552010EE66EDAEC3FF060
:10516000E552010EE66E78EC3DF0E5520801DF51A4
:1051700023E1010EDF6EDF500C081DE3DF50030D4D
:10518000F3CFE9FFF4CFEAFF580EE926080EEA2232
:10519000EE52EF50E66EDF50030DF3CFE9FFF4CF90
:1051A000EAFFA60EE926080EEA22EE52E552E75083
:1051B000EF6EDF2AE0D71BD0DF51030DF3CFE9FFFD
:1051C000F4CFEAFF580EE926080EEA22EE52EF501D
:1051D000E66EDF51030DF3CFE9FFF4CFEAFFA60E31
:1051E000E926080EEA22EE52E552E750EF6E18D09B
:1051F000560E006FE66AE66A010EE66ECBEC02F030
:10520000E552E552E5520CD05A0E006FE66AE66AA6
:10521000010EE66ECBEC02F0E552E552E55200D00D
:105220000FEF39F000CEE9FF01CEEAFFEF50030A9D
:1052300001E17CD0070A01E090D0030EE66EDAECC3
:105240003FF0E552070EE66E78EC3DF0E5520B01BB
:10525000580E006FE66AE66A010EE66ECBEC02F0CD
:10526000E552E552E5520801DF512EE1010EDF6EF5
:10527000DF500C081DE3DF50030DF3CFE9FFF4CF3F
:10528000EAFFA60EE926080EEA22EE52EF50E66E7D
:10529000DF50030DF3CFE9FFF4CFEAFF580EE92604
:1052A000080EEA22EE52E552E750EF6EDF2AE0D711
:1052B000AAC8E6FF090EE66E010EE66E47EC43F063
:1052C000E552E552E55231D0DF51030DF3CFE9FF4E
:1052D000F4CFEAFFA60EE926080EEA22EE52EF50BE
:1052E000E66EDF51030DF3CFE9FFF4CFEAFF580E6E
:1052F000E926080EEA22EE52E552E750EF6EDF5142
:10530000030DF3CFE9FFF4CFEAFF580EE926080EAC
:10531000EA22EE52EF50E66E090EE66E010EE66EE0
:1053200047EC43F0E552E552E55217D0030EE66E26
:10533000DAEC3FF0E552070EE66E78EC3DF0E55210
:105340000B01580E006FE66AE66A010EE66ECBECC2
:1053500002F0E552E552E55200D00FEF39F000CEF1
:10536000E9FF01CEEAFFEF50020A01E194D0030AFF
:1053700001E185D0020A20E0070A01E098D08C0EF6
:10538000006FE66AE66A010EE66ECBEC02F0E552CB
:10539000E552E5520B014F0E006FE66AE66A010E18
:1053A000E66ECBEC02F0E552E552E552070EE66EF2
:1053B00078EC3DF0E5527BD05B0E006FE66AE66A62
:1053C000010EE66ECBEC02F0E552E552E552010E1D
:1053D000E66EDAEC3FF0E552010EE66E78EC3DF059
:1053E000E5520801DF5129E1010EDF6EDF500C08A4
:1053F00023E3DF50030DF3CFE9FFF4CFEAFF580EAC
:10540000E926080EEA22020EE926000EEA22EF50F3
:10541000E66EDF50030DF3CFE9FFF4CFEAFFA60EEF
:10542000E926080EEA22020EE926000EEA22E552DB
:10543000E750EF6EDF2ADAD721D0DF51030DF3CF2B
:10544000E9FFF4CFEAFF580EE926080EEA22020E21
:10545000E926000EEA22EF50E66EDF51030DF3CF8E
:10546000E9FFF4CFEAFFA60EE926080EEA22020EB3
:10547000E926000EEA22E552E750EF6E18D0580EEA
:10548000006FE66AE66A010EE66ECBEC02F0E552CA
:10549000E552E5520CD0540E006FE66AE66A010E42
:1054A000E66ECBEC02F0E552E552E55200D00FEF8C
:1054B00039F000CEE9FF01CEEAFFEF50030A01E127
:1054C0008BD0070A01E09FD0030EE66EDAEC3FF0C6
:1054D000E552070EE66E78EC3DF0E5520B01580EF2
:1054E000006FE66AE66A010EE66ECBEC02F0E5526A
:1054F000E552E5520801DF5134E1010EDF6EDF5065
:105500000C0823E3DF50030DF3CFE9FFF4CFEAFFEC
:10551000A60EE926080EEA22020EE926000EEA226D
:10552000EF50E66EDF50030DF3CFE9FFF4CFEAFF53
:10553000580EE926080EEA22020EE926000EEA229B
:10554000E552E750EF6EDF2ADAD7ABC8E6FF090E67
:10555000E66E010EE66E47EC43F0E552E552E55289
:105560003AD0DF51030DF3CFE9FFF4CFEAFFA60EE7
:10557000E926080EEA22020EE926000EEA22EF5082
:10558000E66EDF51030DF3CFE9FFF4CFEAFF580ECB
:10559000E926080EEA22020EE926000EEA22E5526A
:1055A000E750EF6EDF51030DF3CFE9FFF4CFEAFFD1
:1055B000580EE926080EEA22020EE926000EEA221B
:1055C000EF50E66E090EE66E010EE66E47EC43F014
:1055D000E552E552E55217D0030EE66EDAEC3FF0E5
:1055E000E552070EE66E78EC3DF0E5520B015A0EDF
:1055F000006FE66AE66A010EE66ECBEC02F0E55259
:10560000E552E55200D00FEF39F000CEE9FF01CEB0
:10561000EAFFEF50030A20E0070A01E03AD08C0EBF
:10562000006FE66AE66A010EE66ECBEC02F0E55228
:10563000E552E5520B01500E006FE66AE66A010E74
:10564000E66ECBEC02F0E552E552E552080EE66E4E
:1056500078EC3DF0E5521DD08C0E006FE66AE66AEC
:10566000010EE66ECBEC02F0E552E552E5520B017D
:10567000500E006FE66AE66A010EE66ECBEC02F0B1
:10568000E552E552E552080EE66E78EC3DF0E55243
:1056900000D00FEF39F000CE06FE01CE07FE1CCA87
:1056A000E6FF020EE66E63EC5EF0E552E5520FEFA8
:1056B00039F000CEE9FF01CEEAFFEF50020A29E0FF
:1056C000030A1BE0020A01E030D08C0E006FE66A8C
:1056D000E66A010EE66ECBEC02F0E552E552E552C9
:1056E0000B014F0E006FE66AE66A010EE66ECBEC28
:1056F00002F0E552E552E55218D0910E006FE66ACD
:10570000E66A010EE66ECBEC02F0E552E552E55298
:105710000CD0910E006FE66AE66A010EE66ECBECE5
:1057200002F0E552E552E55200D00FEF39F000CE1D
:10573000E9FF01CEEAFFEF50020A22E0030A14E07B
:10574000020A01E029D0460E006FE66AE66A010E01
:10575000E66ECBEC02F0E552E552E5520E01050E85
:10576000086F3FEC6AF018D0900E006FE66AE66AA8
:10577000010EE66ECBEC02F0E552E552E5520CD09C
:10578000900E006FE66AE66A010EE66ECBEC02F060
:10579000E552E552E55200D00FEF39F000CEE9FFB7
:1057A00001CEEAFFEF50020A29E0030A1BE0020AD9
:1057B00001E030D0740E006FE66AE66A010EE66E14
:1057C000CBEC02F0E552E552E5520B01750E006F8D
:1057D000E66AE66A010EE66ECBEC02F0E552E552AF
:1057E000E55218D0930E006FE66AE66A010EE66E87
:1057F000CBEC02F0E552E552E5520CD0930E006F6F
:10580000E66AE66A010EE66ECBEC02F0E552E5527E
:10581000E55200D00FEF39F000CEE9FF01CEEAFFEC
:10582000EF50020A22E0030A14E0020A01E029D044
:10583000460E006FE66AE66A010EE66ECBEC02F0F9
:10584000E552E552E5520E01050E086F3FEC6AF095
:1058500018D0920E006FE66AE66A010EE66ECBEC97
:1058600002F0E552E552E5520CD0920E006FE66A66
:10587000E66A010EE66ECBEC02F0E552E552E55227
:1058800000D00FEF39F000CEE9FF01CEEAFFEF5074
:10589000020A3EE0030A30E0020A1BE0070A01E0C8
:1058A00043D0480E006FE66AE66A010EE66ECBEC66
:1058B00002F0E552E552E5520B01490E006FE66A2F
:1058C000E66A010EE66ECBEC02F0E552E552E552D7
:1058D0002BD00A01010E1C6F0B01680E006FE66AE7
:1058E000E66A010EE66ECBEC02F0E552E552E552B7
:1058F0000B01620E006F18D0610E006FE66AE66A57
:10590000010EE66ECBEC02F0E552E552E5520CD00A
:105910005F0E006FE66AE66A010EE66ECBEC02F0FF
:10592000E552E552E55200D00FEF39F000CEE9FF25
:1059300001CEEAFFEF50020A3EE0030A30E0020A1D
:105940001BE0070A01E043D0480E006FE66AE66AF2
:10595000010EE66ECBEC02F0E552E552E5520B018A
:10596000490E006FE66AE66A010EE66ECBEC02F0C5
:10597000E552E552E5522BD00A01020E1C6F0B01D5
:10598000680E006FE66AE66A010EE66ECBEC02F086
:10599000E552E552E5520B01620E006F18D05E0E23
:1059A000006FE66AE66A010EE66ECBEC02F0E552A5
:1059B000E552E5520CD0600E006FE66AE66A010E11
:1059C000E66ECBEC02F0E552E552E55200D00FEF67
:1059D00039F000CEE9FF01CEEAFFEF50020A3EE0C7
:1059E000030A30E0020A1BE0070A01E043D0480E38
:1059F000006FE66AE66A010EE66ECBEC02F0E55255
:105A0000E552E5520B01490E006FE66AE66A010EA7
:105A1000E66ECBEC02F0E552E552E5522BD00A01DE
:105A2000030E1C6F0B01680E006FE66AE66A010E3A
:105A3000E66ECBEC02F0E552E552E5520B01620E48
:105A4000006F18D05F0E006FE66AE66A010EE66E20
:105A5000CBEC02F0E552E552E5520CD0610E006F3E
:105A6000E66AE66A010EE66ECBEC02F0E552E5521C
:105A7000E55200D00FEF39F000CEE9FF01CEEAFF8A
:105A8000EF50020A3EE0030A30E0020A1BE0070A78
:105A900001E043D0480E006FE66AE66A010EE66E4A
:105AA000CBEC02F0E552E552E5520B01490E006FD6
:105AB000E66AE66A010EE66ECBEC02F0E552E552CC
:105AC000E5522BD00A01040E1C6F0B01680E006F0B
