:020000040000FA
:0600000097EF0AF0120068
:020006001200E6
:04000800FCEF00F019
:0400180005EF01F0FF
:04001C000200ED15DC
:10002000000060000000720000004A150000000E91
:060030000000A300000027
:0A00360009D818D830D852D85AD88B
:1000400001D97CEC06F0FCD71200D39E8F0ED3149E
:100050007009D36EFC0ED3140009D36E9B9E9B8C4B
:10006000C00E9B1402099B6E12000F01256B246BBE
:10007000236B806A040E816E826E836A846A3F0EEF
:10008000926E3E0E936E130E946E956A966A976A00
:10009000986A996AF00E9A6EF18E1200F28EF28CC6
:1000A000D08EB09E3F0EB1140009B16ECF0EB114C8
:1000B0003009B16EB196B182A082A292A192B190A4
:1000C0000F01129F139D139F1389138B1397138393
:1000D000B982D292BA92630E156FC00E146F13815B
:1000E0001200C78EC79CC69AC688F00EC6140209B5
:1000F000C66E12000001C96BF00EB36E600EB26ED8
:10010000B1800E010A0E006F0001C95101E1FCD758
:10011000380EE66E000EE66EE66AE66EE66AFFEC04
:1001200004F0006E050EE15E00500001C95101E1CE
:10013000FCD7080EE66E000EE66EE66AE66EE66A2C
:10014000FFEC04F0006E050EE15E00500001C951A5
:1001500001E1FCD7010EE66E000EE66EE66AE66E81
:10016000E66AFFEC04F0006E050EE15E005000014F
:10017000C95101E1FCD7060EE66E000EE66EE66A96
:10018000E66EE66AFFEC04F0006E050EE15E0050DC
:100190000001C95101E1FCD7060EE66E000EE66EC5
:1001A000E66AE66EE66AFFEC04F0006E050EE15EBC
:1001B00000500001C95101E1FCD7020EE66E000EAD
:1001C000E66EE66AE66EE66AFFEC04F0006E050E87
:1001D000E15E00500001C95101E1FCD70C0EE66E52
:1001E000000EE66EE66AE66EE66AFFEC04F0006E6C
:1001F000050EE15E00501200DACFE4FFE2CFDAFF35
:10020000E652E552E5CFDAFF1100DACFE4FFE2CFA4
:10021000DAFFE652A1A205D0A1920001010EC96F3A
:10022000B190BAA20BD00F01630E156FC00E146F00
:1002300000016051000801E26007BA92E552E5CF83
:10024000DAFF11000001CA5101E006D80001CB51CC
:10025000C91501E04ADB12000E0100513C0A01E120
:10026000EBD2140A01E1A7D2370A01E163D2010AF5
:1002700001E11FD20A0A01E1DBD11B0A01E197D19A
:10028000010A01E153D1030A01E10FD1010A01E1A1
:10029000CBD0070A01E187D0010A44E00A0A01E055
:1002A0000CD34E0EE66E100EE66E000EE66E530E8A
:1002B000E66E0E0EE66E6EEC0AF0006E050EE15E66
:1002C0000050630EE66E100EE66E000EE66E670ED0
:1002D000E66E0E0EE66E6EEC0AF0006E050EE15E46
:1002E0000050780EE66E100EE66E000EE66E7B0E87
:1002F000E66E0E0EE66E6EEC0AF0006E050EE15E26
:1003000000508D0EE66E100EE66E000EE66E8F0E3D
:10031000E66E0E0EE66E6EEC0AF0006E050EE15E05
:100320000050CBD2A20EE66E100EE66E000EE66E08
:10033000530EE66E0E0EE66E6EEC0AF0006E050EC3
:10034000E15E0050B70EE66E100EE66E000EE66E31
:10035000670EE66E0E0EE66E6EEC0AF0006E050E8F
:10036000E15E0050CC0EE66E100EE66E000EE66EFC
:100370007B0EE66E0E0EE66E6EEC0AF0006E050E5B
:10038000E15E0050E10EE66E100EE66E000EE66EC7
:100390008F0EE66E0E0EE66E6EEC0AF0006E050E27
:1003A000E15E00508AD2F60EE66E100EE66E000E8A
:1003B000E66E530EE66E0E0EE66E6EEC0AF0006E02
:1003C000050EE15E00500B0EE66E110EE66E000E9D
:1003D000E66E670EE66E0E0EE66E6EEC0AF0006ECE
:1003E000050EE15E0050200EE66E110EE66E000E68
:1003F000E66E7B0EE66E0E0EE66E6EEC0AF0006E9A
:10040000050EE15E0050350EE66E110EE66E000E32
:10041000E66E8F0EE66E0E0EE66E6EEC0AF0006E65
:10042000050EE15E005049D24A0EE66E110EE66EF0
:10043000000EE66E530EE66E0E0EE66E6EEC0AF0E1
:10044000006E050EE15E00505F0EE66E110EE66E68
:10045000000EE66E670EE66E0E0EE66E6EEC0AF0AD
:10046000006E050EE15E0050740EE66E110EE66E33
:10047000000EE66E7B0EE66E0E0EE66E6EEC0AF079
:10048000006E050EE15E0050890EE66E110EE66EFE
:10049000000EE66E8F0EE66E0E0EE66E6EEC0AF045
:1004A000006E050EE15E005008D29E0EE66E110E43
:1004B000E66E000EE66E530EE66E0E0EE66E6EEC07
:1004C0000AF0006E050EE15E0050B30EE66E110EEE
:1004D000E66E000EE66E670EE66E0E0EE66E6EECD3
:1004E0000AF0006E050EE15E0050C80EE66E110EB9
:1004F000E66E000EE66E7B0EE66E0E0EE66E6EEC9F
:100500000AF0006E050EE15E0050DD0EE66E110E83
:10051000E66E000EE66E8F0EE66E0E0EE66E6EEC6A
:100520000AF0006E050EE15E0050C7D1F20EE66ED5
:10053000110EE66E000EE66E530EE66E0E0EE66EC1
:100540006EEC0AF0006E050EE15E0050070EE66EDE
:10055000120EE66E000EE66E670EE66E0E0EE66E8C
:100560006EEC0AF0006E050EE15E00501C0EE66EA9
:10057000120EE66E000EE66E7B0EE66E0E0EE66E58
:100580006EEC0AF0006E050EE15E0050310EE66E74
:10059000120EE66E000EE66E8F0EE66E0E0EE66E24
:1005A0006EEC0AF0006E050EE15E005086D1460E3C
:1005B000E66E120EE66E000EE66E530EE66E0E0E40
:1005C000E66E6EEC0AF0006E050EE15E00505B0E0A
:1005D000E66E120EE66E000EE66E670EE66E0E0E0C
:1005E000E66E6EEC0AF0006E050EE15E0050700ED5
:1005F000E66E120EE66E000EE66E7B0EE66E0E0ED8
:10060000E66E6EEC0AF0006E050EE15E0050850E9F
:10061000E66E120EE66E000EE66E8F0EE66E0E0EA3
:10062000E66E6EEC0AF0006E050EE15E005045D1FC
:100630009A0EE66E120EE66E000EE66E530EE66E33
:100640000E0EE66E6EEC0AF0006E050EE15E0050D6
:10065000AF0EE66E120EE66E000EE66E670EE66EEA
:100660000E0EE66E6EEC0AF0006E050EE15E0050B6
:10067000C40EE66E120EE66E000EE66E7B0EE66EA1
:100680000E0EE66E6EEC0AF0006E050EE15E005096
:10069000D90EE66E120EE66E000EE66E8F0EE66E58
:1006A0000E0EE66E6EEC0AF0006E050EE15E005076
:1006B00004D1EE0EE66E120EE66E000EE66E530EDE
:1006C000E66E0E0EE66E6EEC0AF0006E050EE15E52
:1006D0000050030EE66E130EE66E000EE66E670E19
:1006E000E66E0E0EE66E6EEC0AF0006E050EE15E32
:1006F0000050180EE66E130EE66E000EE66E7B0ED0
:10070000E66E0E0EE66E6EEC0AF0006E050EE15E11
:1007100000502D0EE66E130EE66E000EE66E8F0E86
:10072000E66E0E0EE66E6EEC0AF0006E050EE15EF1
:100730000050C3D0420EE66E130EE66E000EE66E5B
:10074000530EE66E0E0EE66E6EEC0AF0006E050EAF
:10075000E15E0050570EE66E130EE66E000EE66E7A
:10076000670EE66E0E0EE66E6EEC0AF0006E050E7B
:10077000E15E00506C0EE66E130EE66E000EE66E45
:100780007B0EE66E0E0EE66E6EEC0AF0006E050E47
:10079000E15E0050810EE66E130EE66E000EE66E10
:1007A0008F0EE66E0E0EE66E6EEC0AF0006E050E13
:1007B000E15E005082D0960EE66E130EE66E000EDD
:1007C000E66E530EE66E0E0EE66E6EEC0AF0006EEE
:1007D000050EE15E0050AB0EE66E130EE66E000EE7
:1007E000E66E670EE66E0E0EE66E6EEC0AF0006EBA
:1007F000050EE15E0050C00EE66E130EE66E000EB2
:10080000E66E7B0EE66E0E0EE66E6EEC0AF0006E85
:10081000050EE15E0050D50EE66E130EE66E000E7C
:10082000E66E8F0EE66E0E0EE66E6EEC0AF0006E51
:10083000050EE15E005041D0EA0EE66E130EE66E44
:10084000000EE66E530EE66E0E0EE66E6EEC0AF0CD
:10085000006E050EE15E0050FF0EE66E130EE66EB2
:10086000000EE66E670EE66E0E0EE66E6EEC0AF099
:10087000006E050EE15E0050140EE66E140EE66E7C
:10088000000EE66E7B0EE66E0E0EE66E6EEC0AF065
:10089000006E050EE15E0050290EE66E140EE66E47
:1008A000000EE66E8F0EE66E0E0EE66E6EEC0AF031
:1008B000006E050EE15E005000D00001CA6B010E13
:1008C000CB6F0E01016B026B0001C95101E1FCD736
:1008D000800EE66E000EE66EE66AE66EE66A8FD879
:1008E000006E050EE15E005012000E010151140D64
:1008F000F3CF00F0F4CF01F0530E00260E0E0122CC
:1009000002510F010024E96E000E0120EA6EEF5043
:10091000E66E4AD9E5520E010151140DF3CF02F0F3
:10092000F4CF03F0530E02260E0E032202510F01E4
:100930000224E96E000E0320EA6EEF50E66E0E010F
:100940000151140DF3CF00F0F4CF01F0030E002697
:100950000E0E012202510F010024E96E000E01204B
:10096000EA6EE552E750EF6E030E0E01015D07E1FE
:10097000130E025D04E10001CB6B40D03BD0130E9F
:10098000025D37E1012B026B0001C95101E1FCD787
:100990000E010151030A1FE0010A10E0030A01E001
:1009A00027D0C00EE66E000EE66EE66AE66EE66AD8
:1009B00026D8006E050EE15E00501AD0940EE66E49
:1009C000000EE66EE66AE66EE66A19D8006E050E5F
:1009D000E15E00500DD0D40EE66E000EE66EE66AC3
:1009E000E66EE66A0CD8006E050EE15E005000D09F
:1009F00001D0022B0001C95101E077D71200D9CFF5
:100A0000E6FFE1CFD9FF050EE126DE52F00EDD6EE6
:100A1000600EF36E020EF3CFDBFFFB0EF36E030EE0
:100A2000F3CFDBFF500EF36E040EF3CFDBFFFA0EB5
:100A3000DB50DF6E00000000828600008294000020
:100A400000008296FD0EDB50E8B0828AE8A0829A10
:100A5000000082860000000000008296FB0EDB5042
:100A6000E8B0828AE8A0829A000082860000000036
:100A700000008296D9CFE9FFDACFEAFFEF50800B72
:100A800002E0828A01D0829A000082860000000083
:100A900000008296D9CFE9FFDACFEAFFEF50400B92
:100AA00002E0828A01D0829A000082860000000063
:100AB00000008296D9CFE9FFDACFEAFFEF50200B92
:100AC00002E0828A01D0829A000082860000000043
:100AD00000008296D9CFE9FFDACFEAFFEF50100B82
:100AE00002E0828A01D0829A000082860000000023
:100AF00000008296D9CFE9FFDACFEAFFEF50080B6A
:100B000002E0828A01D0829A000082860000000002
:100B100000008296D9CFE9FFDACFEAFFEF50040B4D
:100B200002E0828A01D0829A0000828600000000E2
:100B300000008296D9CFE9FFDACFEAFFEF50020B2F
:100B400002E0828A01D0829A0000828600000000C2
:100B500000008296D9CFE9FFDACFEAFFEF50010B10
:100B600002E0828A01D0829A00008286000082849C
:100B70000001C96BDF0407E1010EDB50B36E020E0A
:100B8000DB50B26E06D0030EDB50B36E040EDB50AA
:100B9000B26EB180050EE15C02E2E16AE552E16EFF
:100BA000E552E7CFD9FF1200D9CFE6FFE1CFD9FF59
:100BB000E652FE0EDB50DF6E000000008286000071
:100BC0008294000000008296828A000082860000E3
:100BD000000000008296829A0000828600000000D9
:100BE00000008296D9CFE9FFDACFEAFFEF50800B01
:100BF00002E0828A01D0829A000082860000000012
:100C000000008296D9CFE9FFDACFEAFFEF50400B20
:100C100002E0828A01D0829A0000828600000000F1
:100C200000008296D9CFE9FFDACFEAFFEF50200B20
:100C300002E0828A01D0829A0000828600000000D1
:100C400000008296D9CFE9FFDACFEAFFEF50100B10
:100C500002E0828A01D0829A0000828600000000B1
:100C600000008296D9CFE9FFDACFEAFFEF50080BF8
:100C700002E0828A01D0829A000082860000000091
:100C800000008296D9CFE9FFDACFEAFFEF50040BDC
:100C900002E0828A01D0829A000082860000000071
:100CA00000008296D9CFE9FFDACFEAFFEF50020BBE
:100CB00002E0828A01D0829A000082860000000051
:100CC00000008296D9CFE9FFDACFEAFFEF50010B9F
:100CD00002E0828A01D0829A00008286000082842B
:100CE0000001C96BFB0EB36E500EB26EB180E552BF
:100CF000E552E7CFD9FF120000016051000801E280
:100D00000ED00ED80001CC6FCC51000808E20001D3
:100D1000CC0EDC6F000EDD6F41D80001CC6B1200F1
:100D2000D9CFE6FFE1CFD9FFE652DF6A050E000119
:100D3000CD5D0AE281A8CE2B81AACF2B81A6D02B34
:100D400081A4D12BCD2B1CD0D151020803E2040E7B
:100D5000DF6E11D0D051020803E2030EDF6E0BD01C
:100D6000CE51020803E2010EDF6E05D0CF5102081A
:100D700002E2020EDF6ED16BD06BCE6BCF6BCD6B10
:100D8000DF5003E1010E606F02D0190E606FDF507B
:100D900000D0E552E552E7CFD9FF12000E01005115
:100DA0003C0A01E144D1140A01E132D1370A01E1E0
:100DB00010D1010A01E1EED00A0A01E1DDD01B0ADF
:100DC00001E1B4D0010A01E193D0030A01E17AD034
:100DD000010A5AE0070A32E0010A12E00A0A01E0B9
:100DE00035D1DCC0E9FFDDC0EAFFEF50030A01E0C6
:100DF00006D00A0E006F0001010ECA6F00D026D186
:100E0000DCC0E9FFDDC0EAFFEF50030A10E0070A8B
:100E100009E0060A01E011D00B0E006F0001010E7F
:100E2000CA6F0BD0006B0001010ECA6F06D0140E02
:100E3000006F0001010ECA6F00D008D1DCC0E9FFCD
:100E4000DDC0EAFFEF50030A18E0070A11E0060AC6
:100E500009E0030A01E017D00A0E006F0001010E3D
:100E6000CA6F11D00C0E006F0001010ECA6F0BD0BB
:100E7000006B0001010ECA6F06D01E0E006F00014C
:100E8000010ECA6F00D0E2D0DCC0E9FFDDC0EAFF8E
:100E9000EF50040A11E0060A09E0030A01E011D04C
:100EA0000B0E006F0001010ECA6F0BD00D0E006F0C
:100EB0000001010ECA6F05D0006B0001010ECA6F60
:100EC00000D0C4D0DCC0E9FFDDC0EAFFEF50040A67
:100ED00009E0050A01E00BD00E0E006F0001010EC3
:100EE000CA6F05D0006B0001010ECA6F00D0AED0F2
:100EF000DCC0E9FFDDC0EAFFEF50040A11E0060A9A
:100F000009E0030A01E011D00F0E006F0001010E8D
:100F1000CA6F0BD00D0E006F0001010ECA6F05D015
:100F2000006B0001010ECA6F00D090D0DCC0E9FF59
:100F3000DDC0EAFFEF50030A18E0070A11E0060AD5
:100F400009E0030A01E017D00A0E006F0001010E4C
:100F5000CA6F11D00E0E006F0001010ECA6F0BD0C8
:100F6000006B0001010ECA6F06D01E0E006F00015B
:100F7000010ECA6F00D06AD0DCC0E9FFDDC0EAFF15
:100F8000EF50040A01E005D0006B0001010ECA6FAA
:100F900000D05CD0DCC0E9FFDDC0EAFFEF50030AFF
:100FA00011E0070A09E0060A01E012D01F0E006FE7
:100FB0000001010ECA6F0CD00B0E006F0001010E74
:100FC000CA6F06D0280E006F0001010ECA6F00D054
:100FD0003DD0DCC0E9FFDDC0EAFFEF50010A11E0BF
:100FE000020A09E0070A01E012D00B0E006F0001AF
:100FF000010ECA6F0CD03C0E006F0001010ECA6FCB
:1010000006D01E0E006F0001010ECA6F00D01ED068
:10101000DCC0E9FFDDC0EAFFEF50040A01E006D0C2
:101020001E0E006F0001010ECA6F00D00FD0DCC091
:10103000E9FFDDC0EAFFEF50040A01E006D01F0E11
:0E104000006F0001010ECA6F00D000D0120038
:02104E00202060
:101050002057656C636F6D6520746F207468652020
:10106000202000202020202020205354524F424591
:101070002020202020202000202020202020202090
:101080007878787820202020202020200020202020
:101090002020202020313233342020202020202006
:1010A00020002043686F6F73652061206D6F646559
:1010B0003A20202020200020203E204D6F74696FB0
:1010C0006E2053656E73696E6720200020202020FB
:1010D0004D616E75616C2020202020202020202072
:1010E00000202020205374726F6265202020202071
:1010F0002020202020002043686F6F73652061202E
:101100006D6F64653A202020202000202020204D93
:101110006F74696F6E2053656E73696E672020006F
:1011200020203E204D616E75616C20202020202003
:101130002020202000202020205374726F62652020
:10114000202020202020202020002043686F6F7363
:10115000652061206D6F64653A20202020200020EA
:101160002020204D6F74696F6E2053656E73696E19
:1011700067202000202020204D616E75616C2020AA
:1011800020202020202020200020203E2053747288
:101190006F62652020202020202020202000204376
:1011A000686F6F73652061206D6F64653A20202041
:1011B000202000202020204D616E75616C202020B1
:1011C0002020202020202000202020205374726F17
:1011D0006265202020202020202020200020203E8A
:1011E000204F7074696F6E732020202020202020F3
:1011F00020002043686F6F73652061206D6F646508
:101200003A202020202000202020204D616E756192
:101210006C202020202020202020200020203E2084
:101220005374726F6265202020202020202020200F
:1012300000202020204F7074696F6E7320202020C2
:101240002020202020002043686F6F7365206120DC
:101250006D6F64653A20202020200020203E204D24
:10126000616E75616C20202020202020202020002D
:10127000202020205374726F6265202020202020BF
:101280002020202000202020204F7074696F6E7372
:10129000202020202020202020002020204D6F749E
:1012A000696F6E2053656E736F727320202000206B
:1012B000202020202020204F4E20202020202020D1
:1012C000202020002020202020202020202020203E
:1012D000202020202020202000202020202020202E
:1012E000202020202020202020202020200020201E
:1012F00020204D616E75616C204D6F64652020204B
:1013000020200020202020202020202020202020FD
:10131000202020202020200020203E204E65772005
:1013200020202020202020202020202000202020DD
:10133000204C6F61642020202020202020202020AD
:101340002000202020204D616E75616C204D6F645F
:101350006520202020200020202020202020202068
:10136000202020202020202020202000202020209D
:101370004E657720202020202020202020202020A3
:101380000020203E204C6F6164202020202020205F
:10139000202020202000202020202020202020424B
:1013A00072696768746E6573732000203E20536114
:1013B00076652020202020203020202020202000A2
:1013C0002020202020202020202020436F6C6F72BE
:1013D000202020200020202020202020202020202D
:1013E00020203020202020202000203E2050726F1E
:1013F00066696C65203120202020202020200020DC
:10140000202050726F66696C6520322020202020D9
:101410002020200020202050726F66696C652033E8
:1014200020202020202020200020202050726F66C5
:0E143000696C65203420202020202020200020
:02143E001C0E82
:10144000F66E000EF76E000EF86E00010900F55002
:10145000D76F0900F550D86F03E1D76701D03DD0B1
:101460000900F550D26F0900F550D36F0900F5500F
:10147000D46F09000900F550E96E0900F550EA6ED5
:10148000090009000900F550D56F0900F550D66F25
:1014900009000900F6CFD9F0F7CFDAF0F8CFDBF08A
:1014A000D2C0F6FFD3C0F7FFD4C0F8FF0001D55378
:1014B00002E1D65307E00900F550EE6ED507F8E2D9
:1014C000D607F9D7D9C0F6FFDAC0F7FFDBC0F8FFBF
:0C14D0000001D707000ED85BBFD7120048
:0414DC00FB0EE3CF51
:1014E000F6FFFC0EE3CFF7FFFD0EE3CFF8FFFE0E95
:1014F000E3CFE9FFFF0EE3CFEAFFE9CFF3FFEACF47
:0E150000F4FF0900F5CFEFFFEE66FBD71200F7
:02150E00F40ED9
:10151000F36E00EE00F00E0E01D81200EA6002D069
:0E152000EE6AFCD7F350E9601200EE6AFCD7C9
:02152E001DEEB0
:1015300000F02DEE00F0F86A059C1FEC0AF003ECB9
:0A15400000F01BEC00F0FBD71200D6
:06154A000000000000009B
:10155000000000000000000000000000000000008B
:10156000000000000000000000000000000000007B
:10157000000000000000000000000000000000006B
:10158000000000000000000000000000000000005B
:10159000000000000000000000000000000000004B
:1015A000000000000000000000000000000000003B
:1015B000000000000000000000000000000000002B
:1015C000000000000000000000000000000000001B
:1015D000000000000000000000000000000000000B
:0D15E00000000000000000000000000000FE
:0315ED00000100FA
:1015F00001000100010001000100010001000100E3
:1016000001000100010001000100010001000100D2
:1016100001000100010001000100010001000100C2
:1016200001000100010001000100010001000100B2
:1016300001000100010001000100010000000000A4
:10164000000000000000000000000000000000009A
:0F1650000000000000000001000000000000008A
:020000040030CA
:0100000018E7
:0100010019E5
:010002007786
:010003007C80
:0100040001FA
:010005008872
:0100060010E9
:01000800FFF8
:01000900C036
:01000A00FFF6
:01000B00E014
:00000001FF
