:020000040000FA
:06000000CAEF11F012002E
:020006001200E6
:0400080047EF01F0CD
:0400180064EF01F0A0
:04001C0002005B245F
:100020000000600000009A000000B0230000000EF5
:060030000000AB0000001F
:0A0036000E01FC0EB66FBE0EB76F90
:10004000B8699C0EB96F010EB56F0DD81CD839D8A0
:1000500080D888D856D934EC08F05AEC0CF033EC40
:100060000EF0F8D71200D39E8F0ED3147009D36E02
:10007000FC0ED3140009D36E9B9E9B8CC00E9B1468
:1000800002099B6E12000F01030E256F246B236B78
:10009000806A040E816E826E836A846A856A866ACB
:1000A000876A886A3F0E926E3E0E936E130E946EB0
:1000B000956A966A976A986A996AF00E9A6EF18EB6
:1000C0001200F28EF28CD08ED59AD598D596F80E75
:1000D000D5140209D56ED59CF28AF184B6CED7FF2D
:1000E000B7CED6FFF294D58E0E01BA6BAA9E3F0E04
:1000F000CD140009CD6ECF0ECD143009CD6ECD9646
:10010000CD829D809F80CF68A00ECE6E9E90CD80C8
:10011000BB6BB09E3F0EB1140009B16ECF0EB1148F
:100120003009B16EB196B182A082A292A192B19033
:100130000F01129F139D139F1389138B1397138322
:10014000B982D292BA92630E156FC00E146F1381EA
:100150001200C78EC79CC69AC688F00EC614020944
:10016000C66E12000001E36BF00EB36E600EB26E4D
:10017000B1800E010A0E006F0001E35101E1FCD7CE
:10018000380EE66E000EE66EE66AE66EE66AB7ECDC
:1001900006F0006E050EE15E00500001E35101E142
:1001A000FCD7080EE66E000EE66EE66AE66EE66ABC
:1001B000B7EC06F0006E050EE15E00500001E35161
:1001C00001E1FCD7010EE66E000EE66EE66AE66E11
:1001D000E66AB7EC06F0006E050EE15E0050000125
:1001E000E35101E1FCD7060EE66E000EE66EE66A0C
:1001F000E66EE66AB7EC06F0006E050EE15E0050B2
:100200000001E35101E1FCD7060EE66E000EE66E3A
:10021000E66AE66EE66AB7EC06F0006E050EE15E91
:1002200000500001E35101E1FCD7020EE66E000E22
:10023000E66EE66AE66EE66AB7EC06F0006E050E5C
:10024000E15E00500001E35101E1FCD70C0EE66EC7
:10025000000EE66EE66AE66EE66AB7EC06F0006E41
:10026000050EE15E00501200CF0EC1140009C16EF0
:10027000C196F80EC1140009C16EC09EC70EC0140D
:100280001009C06EF80EC0140609C06E1200DACF55
:10029000E4FFE2CFDAFFE652F2A408D0B6CED7FFF1
:1002A000B7CED6FFF2940E01010EBA6F9EA008D011
:1002B000B8CECFFFB9CECEFF9E900E01010EBB6F20
:1002C000E552E5CFDAFF1100DACFE4FFE2CFDAFF43
:1002D000E652A1A205D0A1920001010EE36FB190F8
:1002E000BAA20BD00F01630E156FC00E146F000180
:1002F0006051000801E26007BA92E552E5CFDAFFEB
:1003000011000001E45101E007D80001E551E315B7
:1003100002E02DEC06F012000E0100513F0A02E14E
:10032000D4EF05F0010A02E193EF05F0030A01E1C1
:10033000B9D3010A01E175D3160A01E131D3030AE9
:1003400001E1EDD2010A01E1A9D2370A01E165D24A
:10035000010A01E121D20A0A01E1DDD11B0A01E112
:1003600099D1010A01E155D1030A01E111D1010A34
:1003700001E1CDD0070A01E189D0010A46E00A0A6D
:1003800002E015EF06F0100EE66E1D0EE66E000E92
:10039000E66E570EE66E0E0EE66EA1EC11F0006EE4
:1003A000050EE15E0050250EE66E1D0EE66E000E97
:1003B000E66E6C0EE66E0E0EE66EA1EC11F0006EAF
:1003C000050EE15E00503A0EE66E1D0EE66E000E62
:1003D000E66E810EE66E0E0EE66EA1EC11F0006E7A
:1003E000050EE15E00504F0EE66E1D0EE66E000E2D
:1003F000E66E960EE66E0E0EE66EA1EC11F0006E45
:10040000050EE15E005015EF06F0640EE66E1D0E5F
:10041000E66E000EE66E570EE66E0E0EE66EA1EC70
:1004200011F0006E050EE15E0050790EE66E1D0EB5
:10043000E66E000EE66E6C0EE66E0E0EE66EA1EC3B
:1004400011F0006E050EE15E00508E0EE66E1D0E80
:10045000E66E000EE66E810EE66E0E0EE66EA1EC06
:1004600011F0006E050EE15E0050A30EE66E1D0E4B
:10047000E66E000EE66E960EE66E0E0EE66EA1ECD1
:1004800011F0006E050EE15E0050CFD3B80EE66E9F
:100490001D0EE66E000EE66E570EE66E0E0EE66E52
:1004A000A1EC11F0006E050EE15E0050CD0EE66E7F
:1004B0001D0EE66E000EE66E6C0EE66E0E0EE66E1D
:1004C000A1EC11F0006E050EE15E0050E20EE66E4A
:1004D0001D0EE66E000EE66E810EE66E0E0EE66EE8
:1004E000A1EC11F0006E050EE15E0050F70EE66E15
:1004F0001D0EE66E000EE66E960EE66E0E0EE66EB3
:10050000A1EC11F0006E050EE15E00508ED30C0ED2
:10051000E66E1E0EE66E000EE66E570EE66E0E0ED0
:10052000E66EA1EC11F0006E050EE15E0050210EAA
:10053000E66E1E0EE66E000EE66E6C0EE66E0E0E9B
:10054000E66EA1EC11F0006E050EE15E0050360E75
:10055000E66E1E0EE66E000EE66E810EE66E0E0E66
:10056000E66EA1EC11F0006E050EE15E00504B0E40
:10057000E66E1E0EE66E000EE66E960EE66E0E0E31
:10058000E66EA1EC11F0006E050EE15E00504DD359
:10059000600EE66E1E0EE66E000EE66E570EE66EFE
:1005A0000E0EE66EA1EC11F0006E050EE15E00503D
:1005B000750EE66E1E0EE66E000EE66E6C0EE66EB4
:1005C0000E0EE66EA1EC11F0006E050EE15E00501D
:1005D0008A0EE66E1E0EE66E000EE66E810EE66E6A
:1005E0000E0EE66EA1EC11F0006E050EE15E0050FD
:1005F0009F0EE66E1E0EE66E000EE66E960EE66E20
:100600000E0EE66EA1EC11F0006E050EE15E0050DC
:100610000CD3B40EE66E1E0EE66E000EE66E570E9E
:10062000E66E0E0EE66EA1EC11F0006E050EE15EB8
:100630000050C90EE66E1E0EE66E000EE66E6C0EE3
:10064000E66E0E0EE66EA1EC11F0006E050EE15E98
:100650000050DE0EE66E1E0EE66E000EE66E810E99
:10066000E66E0E0EE66EA1EC11F0006E050EE15E78
:100670000050F30EE66E1E0EE66E000EE66E960E4F
:10068000E66E0E0EE66EA1EC11F0006E050EE15E58
:100690000050CBD2080EE66E1F0EE66E000EE66E20
:1006A000570EE66E0E0EE66EA1EC11F0006E050E12
:1006B000E15E00501D0EE66E1F0EE66E000EE66E49
:1006C0006C0EE66E0E0EE66EA1EC11F0006E050EDD
:1006D000E15E0050320EE66E1F0EE66E000EE66E14
:1006E000810EE66E0E0EE66EA1EC11F0006E050EA8
:1006F000E15E0050470EE66E1F0EE66E000EE66EDF
:10070000960EE66E0E0EE66EA1EC11F0006E050E72
:10071000E15E00508AD25C0EE66E1F0EE66E000EA1
:10072000E66E570EE66E0E0EE66EA1EC11F0006E50
:10073000050EE15E0050710EE66E1F0EE66E000EB5
:10074000E66E6C0EE66E0E0EE66EA1EC11F0006E1B
:10075000050EE15E0050860EE66E1F0EE66E000E80
:10076000E66E810EE66E0E0EE66EA1EC11F0006EE6
:10077000050EE15E00509B0EE66E1F0EE66E000E4B
:10078000E66E960EE66E0E0EE66EA1EC11F0006EB1
:10079000050EE15E005049D2B00EE66E1F0EE66E09
:1007A000000EE66E570EE66E0E0EE66EA1EC11F030
:1007B000006E050EE15E0050C50EE66E1F0EE66E81
:1007C000000EE66E6C0EE66E0E0EE66EA1EC11F0FB
:1007D000006E050EE15E0050DA0EE66E1F0EE66E4C
:1007E000000EE66E810EE66E0E0EE66EA1EC11F0C6
:1007F000006E050EE15E0050EF0EE66E1F0EE66E17
:10080000000EE66E960EE66E0E0EE66EA1EC11F090
:10081000006E050EE15E005008D2040EE66E200E5A
:10082000E66E000EE66E570EE66E0E0EE66EA1EC5C
:1008300011F0006E050EE15E0050190EE66E200EFE
:10084000E66E000EE66E6C0EE66E0E0EE66EA1EC27
:1008500011F0006E050EE15E00502E0EE66E200EC9
:10086000E66E000EE66E810EE66E0E0EE66EA1ECF2
:1008700011F0006E050EE15E0050430EE66E200E94
:10088000E66E000EE66E960EE66E0E0EE66EA1ECBD
:1008900011F0006E050EE15E0050C7D1580EE66EF5
:1008A000200EE66E000EE66E570EE66E0E0EE66E3B
:1008B000A1EC11F0006E050EE15E00506D0EE66ECB
:1008C000200EE66E000EE66E6C0EE66E0E0EE66E06
:1008D000A1EC11F0006E050EE15E0050820EE66E96
:1008E000200EE66E000EE66E810EE66E0E0EE66ED1
:1008F000A1EC11F0006E050EE15E0050970EE66E61
:10090000200EE66E000EE66E960EE66E0E0EE66E9B
:10091000A1EC11F0006E050EE15E005086D1AC0E28
:10092000E66E200EE66E000EE66E570EE66E0E0EBA
:10093000E66EA1EC11F0006E050EE15E0050C10EF6
:10094000E66E200EE66E000EE66E6C0EE66E0E0E85
:10095000E66EA1EC11F0006E050EE15E0050D60EC1
:10096000E66E200EE66E000EE66E810EE66E0E0E50
:10097000E66EA1EC11F0006E050EE15E0050EB0E8C
:10098000E66E200EE66E000EE66E960EE66E0E0E1B
:10099000E66EA1EC11F0006E050EE15E005045D14F
:1009A000000EE66E210EE66E000EE66E570EE66E47
:1009B0000E0EE66EA1EC11F0006E050EE15E005029
:1009C000150EE66E210EE66E000EE66E6C0EE66EFD
:1009D0000E0EE66EA1EC11F0006E050EE15E005009
:1009E0002A0EE66E210EE66E000EE66E810EE66EB3
:1009F0000E0EE66EA1EC11F0006E050EE15E0050E9
:100A00003F0EE66E210EE66E000EE66E960EE66E68
:100A10000E0EE66EA1EC11F0006E050EE15E0050C8
:100A200004D1540EE66E210EE66E000EE66E570EF1
:100A3000E66E0E0EE66EA1EC11F0006E050EE15EA4
:100A40000050690EE66E210EE66E000EE66E6C0E2C
:100A5000E66E0E0EE66EA1EC11F0006E050EE15E84
:100A600000507E0EE66E210EE66E000EE66E810EE2
:100A7000E66E0E0EE66EA1EC11F0006E050EE15E64
:100A80000050930EE66E210EE66E000EE66E960E98
:100A9000E66E0E0EE66EA1EC11F0006E050EE15E44
:100AA0000050C3D0A80EE66E210EE66E000EE66E74
:100AB000570EE66E0E0EE66EA1EC11F0006E050EFE
:100AC000E15E0050BD0EE66E210EE66E000EE66E93
:100AD0006C0EE66E0E0EE66EA1EC11F0006E050EC9
:100AE000E15E0050D20EE66E210EE66E000EE66E5E
:100AF000810EE66E0E0EE66EA1EC11F0006E050E94
:100B0000E15E0050E70EE66E210EE66E000EE66E28
:100B1000960EE66E0E0EE66EA1EC11F0006E050E5E
:100B2000E15E005082D0FC0EE66E210EE66E000EF5
:100B3000E66E570EE66E0E0EE66EA1EC11F0006E3C
:100B4000050EE15E0050110EE66E220EE66E000EFE
:100B5000E66E6C0EE66E0E0EE66EA1EC11F0006E07
:100B6000050EE15E0050260EE66E220EE66E000EC9
:100B7000E66E810EE66E0E0EE66EA1EC11F0006ED2
:100B8000050EE15E00503B0EE66E220EE66E000E94
:100B9000E66E960EE66E0E0EE66EA1EC11F0006E9D
:100BA000050EE15E005041D0500EE66E220EE66E5C
:100BB000000EE66E570EE66E0E0EE66EA1EC11F01C
:100BC000006E050EE15E0050650EE66E220EE66ECA
:100BD000000EE66E6C0EE66E0E0EE66EA1EC11F0E7
:100BE000006E050EE15E00507A0EE66E220EE66E95
:100BF000000EE66E810EE66E0E0EE66EA1EC11F0B2
:100C0000006E050EE15E00508F0EE66E220EE66E5F
:100C1000000EE66E960EE66E0E0EE66EA1EC11F07C
:100C2000006E050EE15E005000D00001E46B010E85
:100C3000E56F0E01016B026B0001E35101E1FCD78E
:100C4000800EE66E000EE66EE66AE66EE66A8FD805
:100C5000006E050EE15E005012000E010151150DEF
:100C6000F3CF00F0F4CF01F0570E00260E0E012254
:100C700002510F010024E96E000E0120EA6EEF50D0
:100C8000E66E4AD9E5520E010151150DF3CF02F07F
:100C9000F4CF03F0570E02260E0E032202510F016D
:100CA0000224E96E000E0320EA6EEF50E66E0E019C
:100CB0000151150DF3CF00F0F4CF01F0030E002623
:100CC0000E0E012202510F010024E96E000E0120D8
:100CD000EA6EE552E750EF6E030E0E01015D07E18B
:100CE000130E025D04E10001E56B40D03BD0130E12
:100CF000025D37E1012B026B0001E35101E1FCD7FA
:100D00000E010151030A1FE0010A10E0030A01E08D
:100D100027D0C00EE66E000EE66EE66AE66EE66A64
:100D200026D8006E050EE15E00501AD0940EE66ED5
:100D3000000EE66EE66AE66EE66A19D8006E050EEB
:100D4000E15E00500DD0D40EE66E000EE66EE66A4F
:100D5000E66EE66A0CD8006E050EE15E005000D02B
:100D600001D0022B0001E35101E077D71200D9CF67
:100D7000E6FFE1CFD9FF050EE126DE52F00EDD6E73
:100D8000600EF36E020EF3CFDBFFFB0EF36E030E6D
:100D9000F3CFDBFF500EF36E040EF3CFDBFFFA0E42
:100DA000DB50DF6E000000008286000082940000AD
:100DB00000008296FD0EDB50E8B0828AE8A0829A9D
:100DC000000082860000000000008296FB0EDB50CF
:100DD000E8B0828AE8A0829A0000828600000000C3
:100DE00000008296D9CFE9FFDACFEAFFEF50800BFF
:100DF00002E0828A01D0829A000082860000000010
:100E000000008296D9CFE9FFDACFEAFFEF50400B1E
:100E100002E0828A01D0829A0000828600000000EF
:100E200000008296D9CFE9FFDACFEAFFEF50200B1E
:100E300002E0828A01D0829A0000828600000000CF
:100E400000008296D9CFE9FFDACFEAFFEF50100B0E
:100E500002E0828A01D0829A0000828600000000AF
:100E600000008296D9CFE9FFDACFEAFFEF50080BF6
:100E700002E0828A01D0829A00008286000000008F
:100E800000008296D9CFE9FFDACFEAFFEF50040BDA
:100E900002E0828A01D0829A00008286000000006F
:100EA00000008296D9CFE9FFDACFEAFFEF50020BBC
:100EB00002E0828A01D0829A00008286000000004F
:100EC00000008296D9CFE9FFDACFEAFFEF50010B9D
:100ED00002E0828A01D0829A000082860000828429
:100EE0000001E36BDF0407E1010EDB50B36E020E7D
:100EF000DB50B26E06D0030EDB50B36E040EDB5037
:100F0000B26EB180050EE15C02E2E16AE552E16E8B
:100F1000E552E7CFD9FF1200D9CFE6FFE1CFD9FFE5
:100F2000E652FE0EDB50DF6E0000000082860000FD
:100F30008294000000008296828A0000828600006F
:100F4000000000008296829A000082860000000065
:100F500000008296D9CFE9FFDACFEAFFEF50800B8D
:100F600002E0828A01D0829A00008286000000009E
:100F700000008296D9CFE9FFDACFEAFFEF50400BAD
:100F800002E0828A01D0829A00008286000000007E
:100F900000008296D9CFE9FFDACFEAFFEF50200BAD
:100FA00002E0828A01D0829A00008286000000005E
:100FB00000008296D9CFE9FFDACFEAFFEF50100B9D
:100FC00002E0828A01D0829A00008286000000003E
:100FD00000008296D9CFE9FFDACFEAFFEF50080B85
:100FE00002E0828A01D0829A00008286000000001E
:100FF00000008296D9CFE9FFDACFEAFFEF50040B69
:1010000002E0828A01D0829A0000828600000000FD
:1010100000008296D9CFE9FFDACFEAFFEF50020B4A
:1010200002E0828A01D0829A0000828600000000DD
:1010300000008296D9CFE9FFDACFEAFFEF50010B2B
:1010400002E0828A01D0829A0000828600008284B7
:101050000001E36BFB0EB36E500EB26EB180E55231
:10106000E552E7CFD9FF120000016051000801E20C
:101070000ED00ED80001F16FF151000808E20E0108
:10108000F10EBC6F000EBD6F41D80001F16B120074
:10109000D9CFE6FFE1CFD9FFE652DF6A050E0001A6
:1010A000F25D0AE281A8F32B81AAF42B81A6F52B2D
:1010B00081A4F62BF22B1CD0F651020803E2040E99
:1010C000DF6E11D0F551020803E2030EDF6E0BD084
:1010D000F351020803E2010EDF6E05D0F45102085D
:1010E00002E2020EDF6EF66BF56BF36BF46BF26BE4
:1010F000DF5003E1010E606F02D0190E606FDF5008
:1011000000D0E552E552E7CFD9FF1200D9CFE6FF74
:10111000E1CFD9FFE6520E0100513F0A01E150D361
:10112000010A01E1D1D2030A01E152D2010A01E12F
:10113000DBD1160A01E16AD1020A01E132D1370A94
:1011400001E110D1010A01E1EED00A0A01E1DDD08E
:101150001B0A01E1B4D0010A01E193D0030A01E1C5
:101160007AD0010A5AE0070A32E0010A12E00A0ABC
:1011700001E09BD3BCCEE9FFBDCEEAFFEF50030AEE
:1011800001E006D00A0E006F0001010EE46F00D0EE
:101190008CD3BCCEE9FFBDCEEAFFEF50030A10E0CE
:1011A000070A09E0060A01E011D00B0E006F0001EA
:1011B000010EE46F0BD0006B0001010EE46F06D04E
:1011C000140E006F0001010EE46F00D06ED3BCCE90
:1011D000E9FFBDCEEAFFEF50030A18E0070A11E06D
:1011E000060A09E0030A01E017D00A0E006F0001A9
:1011F000010EE46F11D00C0E006F0001010EE46FC0
:101200000BD0006B0001010EE46F06D01E0E006FC4
:101210000001010EE46F00D048D3BCCEE9FFBDCE83
:10122000EAFFEF50040A11E0060A09E0030A01E0B0
:1012300011D00B0E006F0001010EE46F0BD00D0EEC
:10124000006F0001010EE46F05D0006B0001010E7C
:10125000E46F00D02AD3BCCEE9FFBDCEEAFFEF5049
:10126000040A09E0050A01E00BD00E0E006F000130
:10127000010EE46F05D0006B0001010EE46F00D099
:1012800014D3BCCEE9FFBDCEEAFFEF50040A11E053
:10129000060A09E0030A01E011D00F0E006F0001F9
:1012A000010EE46F0BD00D0E006F0001010EE46F14
:1012B00005D0006B0001010EE46F00D0F6D2BCCE69
:1012C000E9FFBDCEEAFFEF50030A18E0070A11E07C
:1012D000060A09E0030A01E017D00A0E006F0001B8
:1012E000010EE46F11D00E0E006F0001010EE46FCD
:1012F0000BD0006B0001010EE46F06D01E0E006FD4
:101300000001010EE46F00D0D0D2BCCEE9FFBDCE0B
:10131000EAFFEF50040A01E005D0006B0001010E66
:10132000E46F00D0C2D2BCCEE9FFBDCEEAFFEF50E1
:10133000030A11E0070A09E0060A01E012D01F0EB5
:10134000006F0001010EE46F0CD00B0E006F000166
:10135000010EE46F06D0280E006F0001010EE46F4D
:1013600000D0A3D2BCCEE9FFBDCEEAFFEF50010A08
:1013700011E0020A09E0070A01E012D00B0E006F2B
:101380000001010EE46F0CD03C0E006F0001010E55
:10139000E46F06D01E0E006F0001010EE46F00D056
:1013A00084D20001F75101E031D0BCCEE9FFBDCEBF
:1013B000EAFFEF50020A12E0010A0AE0070A01E020
:1013C00024D00E011E0E006F0001010EE46F1DD02F
:1013D0002A0EF06F010EE46FE66F17D03E0E0E017D
:1013E000195D07E1200E6D6F3E0E826F0001010E48
:1013F000E56F3E0E0E01195D07E1200E6D6F3E0E8A
:10140000826F0001010EE56F00D000D0BCCEE9FF75
:10141000BDCEEAFFEF50020A44E0030A20E0020AD0
:101420001DE0070A01E05FD00001E75102E0E76B31
:1014300014D0E85102E0E86B10D0E95102E0E96B0A
:101440000CD00E01280E006F0001010EE46FEAC0FF
:10145000EDF0EBC0EEF0ECC0EFF045D044D03E0E26
:101460000E01195D07E1200E6D6F3E0E586F0001F1
:10147000010EE56F3E0E0E012E5D07E1200E826F1C
:101480003E0E6D6F0001010EE56F3E0E0E01435DD5
:1014900007E1200E976F3E0E826F0001010EE56F8F
:1014A00022D03E0E0E01045D07E1200E586F3E0E65
:1014B0006D6F0001010EE56F3E0E0E01195D07E133
:1014C000200E6D6F3E0E826F0001010EE56F3E0E25
:1014D0000E012E5D07E1200E826F3E0E976F000118
:1014E000010EE56F00D0E1D1BCCEE9FFBDCEEAFF31
:1014F000EF50020A66E0010A35E0070A01E067D012
:101500001F0E006F0001010EE46FDF6EDF50060852
:1015100028E3DF50030DF3CFE9FFF4CFEAFFAF0E6E
:10152000E926000EEA22EF6ADF50030DF3CFE9FF50
:10153000F4CFEAFFAF0EE926000EEA22EE52EF6A80
:10154000DF50030DF3CFE9FFF4CFEAFFAF0EE9263A
:10155000000EEA22020EE926000EEA22EF6ADF2AD6
:10156000D5D735D0010EDF6EDF50060829E3DF50F6
:10157000030DF3CFE9FFF4CFEAFFAF0EE926000E2B
:10158000EA22EF6ADF50030DF3CFE9FFF4CFEAFF61
:10159000AF0EE926000EEA22EE52EF6ADF50030D8D
:1015A000F3CFE9FFF4CFEAFFAF0EE926000EEA22FF
:1015B000020EE926000EEA22640EEF6EDF2AD4D76F
:1015C00006D03D0E006F0001010EE46F00D06DD11A
:1015D000BCCEE9FFBDCEEAFFEF50020A6EE0030A7F
:1015E00066E0020A35E0070A01E06DD01F0E006FC9
:1015F0000001010EE46FDF6EDF50060828E3DF50C4
:10160000030DF3CFE9FFF4CFEAFFAF0EE926000E9A
:10161000EA22EF6ADF50030DF3CFE9FFF4CFEAFFD0
:10162000AF0EE926000EEA22EE52EF6ADF50030DFC
:10163000F3CFE9FFF4CFEAFFAF0EE926000EEA226E
:10164000020EE926000EEA22EF6ADF2AD5D73BD048
:10165000010EDF6EDF50060829E3DF50030DF3CFE4
:10166000E9FFF4CFEAFFAF0EE926000EEA22EF6AA7
:10167000DF50030DF3CFE9FFF4CFEAFFAF0EE92609
:10168000000EEA22EE52640EEF6EDF50030DF3CF30
:10169000E9FFF4CFEAFFAF0EE926000EEA22020EC0
:1016A000E926000EEA22EF6ADF2AD4D70CD03C0EDE
:1016B000006F0001010EE46F06D03E0E006F0001C6
:1016C000010EE46F00D0F1D0BCCEE9FFBDCEEAFF41
:1016D000EF50020A6EE0030A66E0020A35E0070AEC
:1016E00001E06DD01F0E006F0001010EE46FDF6E90
:1016F000DF50060828E3DF50030DF3CFE9FFF4CFF6
:10170000EAFFAF0EE926000EEA22EF6ADF50030D72
:10171000F3CFE9FFF4CFEAFFAF0EE926000EEA228D
:10172000EE52EF6ADF50030DF3CFE9FFF4CFEAFF8B
:10173000AF0EE926000EEA22020EE926000EEA228A
:10174000EF6ADF2AD5D73BD0010EDF6EDF500608E7
:1017500029E3DF50030DF3CFE9FFF4CFEAFFAF0E2B
:10176000E926000EEA22640EEF6EDF50030DF3CF80
:10177000E9FFF4CFEAFFAF0EE926000EEA22EE52AF
:10178000EF6ADF50030DF3CFE9FFF4CFEAFFAF0EAE
:10179000E926000EEA22020EE926000EEA22EF6A8E
:1017A000DF2AD4D70CD03D0E006F0001010EE46F8C
:1017B00006D03F0E006F0001010EE46F00D075D01F
:1017C000BCCEE9FFBDCEEAFFEF50010A67E0020A96
:1017D00035E0070A01E068D01F0E006F0001010E1E
:1017E000E46FDF6EDF50060828E3DF50030DF3CF10
:1017F000E9FFF4CFEAFFAF0EE926000EEA22EF6A16
:10180000DF50030DF3CFE9FFF4CFEAFFAF0EE92677
:10181000000EEA22EE52EF6ADF50030DF3CFE9FF2C
:10182000F4CFEAFFAF0EE926000EEA22020EE92607
:10183000000EEA22EF6ADF2AD5D736D0010EDF6E1E
:10184000DF5006082AE3DF50030DF3CFE9FFF4CFA2
:10185000EAFFAF0EE926000EEA22640EEF6EDF50BB
:10186000030DF3CFE9FFF4CFEAFFAF0EE926000E38
:10187000EA22EE52140EEF6EDF50030DF3CFE9FFB4
:10188000F4CFEAFFAF0EE926000EEA22020EE926A7
:10189000000EEA22EF6ADF2AD3D706D03E0E006F91
:1018A0000001010EE46F00D000D0E552E552E7CF11
:1018B000D9FF12000E01BA5103E008D80E01BA6B2D
:1018C000BB5103E02DD90E01BB6B12000C0E0001C1
:1018D000F85D0AE1010EF86F0E01B55103E1010E4A
:1018E000B56F01D0B50701D0F82B0001F851060AF9
:1018F00001E1E9D0030A01E1BAD0010A01E18BD08C
:10190000070A5DE0010A2FE0030A01E008D1909C7C
:10191000909E8E948BC064F08CC065F08DC066F094
:101920000E01B5511FE100018B51D880B25502E282
:101930008B2B04D08B51B25D01E28B078C51D88088
:10194000B35502E28C2B04D08C51B35D01E28C07BD
:101950008D51D880B45502E28D2B04D08D51B45DE9
:1019600001E28D07DCD08E968E988E9A8EC067F03D
:101970008FC068F090C069F00E01B5511FE1000101
:101980008E51D880B55502E28E2B04D08E51B55DB4
:1019900001E28E078F51D880B65502E28F2B04D01A
:1019A0008F51B65D01E28F079051D880B75502E2A2
:1019B000902B04D09051B75D01E29007B0D08E9C7F
:1019C0008E9E8F9691C06AF092C06BF093C06CF0BF
:1019D0000E01B5511FE100019151D880B85502E2C6
:1019E000912B04D09151B85D01E291079251D880BA
:1019F000B95502E2922B04D09251B95D01E29207EF
:101A00009351D880BA5502E2932B04D09351BA5D1A
:101A100001E2930784D08F948F928F9094C06DF0E1
:101A200095C06EF096C06FF00E01B5511FE1000138
:101A30009451D880BB5502E2942B04D09451BB5DE5
:101A400001E294079551D880BC5502E2952B04D051
:101A50009551BC5D01E295079651D880BD5502E2D3
:101A6000962B04D09651BD5D01E2960758D08D901B
:101A70008D92909697C070F098C071F099C072F0F6
:101A80000E01B5511FE100019751D880BE5502E209
:101A9000972B04D09751BE5D01E297079851D880EB
:101AA000BF5502E2982B04D09851BF5D01E2980720
:101AB0009951D880C05502E2992B04D09951C05D4C
:101AC00001E299072CD09094909290909AC073F074
:101AD0009BC074F09CC075F00E01B5511FE1000170
:101AE0009A51D880C15502E29A2B04D09A51C15D17
:101AF00001E29A079B51D880C25502E29B2B04D089
:101B00009B51C25D01E29B079C51D880C35502E204
:101B10009C2B04D09C51C35D01E29C0700D01200B5
:101B200090BC07D0640E0001645D02E1908C01D08E
:101B3000642B90BE07D0640E0001655D02E1908EBB
:101B400001D0652B8EB407D0640E0001665D02E102
:101B50008E8401D0662B8EB607D0640E0001675DBF
:101B600002E18E8601D0672B8EB807D0640E00018B
:101B7000685D02E18E8801D0682B8EBA07D0640EB2
:101B80000001695D02E18E8A01D0692B8EBC07D00D
:101B9000640E00016A5D02E18E8C01D06A2B8EBE5C
:101BA00007D0640E00016B5D02E18E8E01D06B2BBD
:101BB0008FB607D0640E00016C5D02E18F8601D004
:101BC0006C2B8FB407D0640E00016D5D02E18F8431
:101BD00001D06D2B8FB207D0640E00016E5D02E163
:101BE0008F8201D06E2B8FB007D0640E00016F5D25
:101BF00002E18F8001D06F2B8DB007D0640E000101
:101C0000705D02E18D8001D0702B8DB207D0640E23
:101C10000001715D02E18D8201D0712B90B607D079
:101C2000640E0001725D02E1908601D0722B90B4C7
:101C300007D0640E0001735D02E1908401D0732B24
:101C400090B207D0640E0001745D02E1908201D071
:101C5000742B90B007D0640E0001755D02E1908096
:101C600001D0752B1200D9CFE6FFE1CFD9FFE652A4
:101C70000001F95102E0000E01D0010E006E80500B
:101C8000080B01E0010E001407E0640EB26FB36FA1
:101C9000B46F010EF96F36D08050080B080A01E0CE
:101CA000010EF9152FE0010EDF6EDF50060828E364
:101CB000DF50030DF3CFE9FFF4CFEAFFAF0EE926C3
:101CC000000EEA22EF6ADF50030DF3CFE9FFF4CFF5
:101CD000EAFFAF0EE926000EEA22EE52EF6ADF506D
:101CE000030DF3CFE9FFF4CFEAFFAF0EE926000EB4
:101CF000EA22020EE926000EEA22EF6ADF2AD5D791
:101D00000001F96BE552E552E7CFD9FF120012004E
:101D100020202057656C636F6D6520746F20746898
:101D20006520202000202020202020205354524FC6
:101D3000424520202020202020002020202020207C
:101D40002020787878782020202020202020002053
:101D50002020202020202031323334202020202039
:101D6000202020002043686F6F73652061206D6F15
:101D700064653A20202020200020203E204D6F74F2
:101D8000696F6E2053656E73696E67202000202096
:101D900020204D616E75616C2020202020202020A5
:101DA000202000202020205374726F6265202020A4
:101DB00020202020202020002043686F6F736520A2
:101DC00061206D6F64653A202020202000202020B3
:101DD000204D6F74696F6E2053656E73696E672056
:101DE000200020203E204D616E75616C2020202057
:101DF00020202020202000202020205374726F6299
:101E00006520202020202020202020002043686FF3
:101E10006F73652061206D6F64653A20202020205B
:101E200000202020204D6F74696F6E2053656E7303
:101E3000696E67202000202020204D616E75616C46
:101E4000202020202020202020200020203E205361
:101E500074726F6265202020202020202020200026
:101E60002043686F6F73652061206D6F64653A2051
:101E70002020202000202020204D616E75616C20E4
:101E800020202020202020202000202020205374EB
:101E9000726F62652020202020202020202000203A
:101EA000203E204F7074696F6E7320202020202008
:101EB000202020002043686F6F73652061206D6FC4
:101EC00064653A202020202000202020204D616ED3
:101ED00075616C2020202020202020202000202040
:101EE0003E205374726F6265202020202020202025
:101EF000202000202020204F7074696F6E732020F6
:101F000020202020202020002043686F6F73652050
:101F100061206D6F64653A20202020200020203E43
:101F2000204D616E75616C20202020202020202013
:101F30002000202020205374726F62652020202012
:101F400020202020202000202020204F7074696F46
:101F50006E73202020202020202020002020204DD3
:101F60006F74696F6E2053656E736F7273202020DB
:101F70000020202020202020204F4E202020202024
:101F80002020202020002020202020202020202071
:101F90002020202020202020202000202020202061
:101FA0002020202020202020202020202020200051
:101FB000202020204D616E75616C204D6F6465207E
:101FC0002020202000202020202020202020202031
:101FD0002020202020202020200020203E204E6590
:101FE00077202020202020202020202020200020BA
:101FF0002020204C6F6164202020202020202020E1
:1020000020202000202020204D616E75616C204D25
:102010006F64652020202020002020202020202008
:1020200020202020202020202020202020002020D0
:1020300020204E65772020202020202020202020D6
:1020400020200020203E204C6F6164202020202092
:102050002020202020202000202020202020535439
:1020600041474520312020202020202000203E20F4
:102070004368616E676520436F6C6F72202020207B
:1020800020002020204368616E67652044656C61F4
:102090007920202020200020202020202020202007
:1020A000202020204E657874202020002020202031
:1020B000202053544147452032202020202020203A
:1020C00000203E204368616E676520436F6C6F722D
:1020D0002020202020002020204368616E6765209A
:1020E00044656C617920202020200020202042615E
:1020F000636B2020202020204E6578742020200053
:10210000203E2052656420202020202020202020F6
:102110002020202000202020477265656E2020208E
:1021200020202020202020202000202020426C750C
:10213000652020202020202020202020202000207A
:102140002020536176652020202020202020202080
:1021500020202000203E2050726F66696C6520317F
:1021600020202020202020200020202050726F6678
:10217000696C652032202020202020202000202093
:102180002050726F66696C6520332020202020204B
:1021900020200020202050726F66696C652034205A
:1021A000202020202020200020202050726F6669EF
:1021B0006C652031202020202020202000203E207F
:1021C00050726F66696C652032202020202020200C
:1021D000200020202050726F66696C65203320201B
:1021E0002020202020200020202050726F66696C63
:1021F0006520342020202020202020002020205076
:10220000726F66696C6520312020202020202020FC
:102210000020202050726F66696C652032202020DB
:10222000202020202000203E2050726F66696C65BF
:102230002033202020202020202000202020507229
:102240006F66696C6520342020202020202020002B
:1022500020202050726F66696C652031202020207C
:10226000202020200020202050726F66696C65209D
:102270003220202020202020200020202050726F9B
:1022800066696C652033202020202020202000203B
:102290003E2050726F66696C65203420202020201B
:0422A00020202000DA
:0C22A4001C0EF66E000EF76E000EF86EB9
:1022B0000E010900F550B06F0900F550B16F03E150
:1022C000B06701D03DD00900F550AB6F0900F55063
:1022D000AC6F0900F550AD6F09000900F550E96ECB
:1022E0000900F550EA6E090009000900F550AE6FCB
:1022F0000900F550AF6F09000900F6CFB2FEF7CF25
:10230000B3FEF8CFB4FEABCEF6FFACCEF7FFADCE4A
:10231000F8FF0E01AE5302E1AF5307E00900F5509C
:10232000EE6EAE07F8E2AF07F9D7B2CEF6FFB3CE46
:10233000F7FFB4CEF8FF0E01B007000EB15BBFD7B8
:02234000120089
:0E234200FB0EE3CFF6FFFC0EE3CFF7FFFD0E20
:10235000E3CFF8FFFE0EE3CFE9FFFF0EE3CFEAFF86
:10236000E9CFF3FFEACFF4FF0900F5CFEFFFEE6608
:04237000FBD7120085
:0C237400F40EF36E00EE00F00E0E01D827
:102380001200EA6002D0EE6AFCD7F350E960120056
:04239000EE6AFCD71E
:0C2394001DEE00F02DEE00F0F86A059C34
:1023A00052EC11F003EC00F01BEC00F0FBD7120034
:1023B000000000000000000000000000000000001D
:1023C000000000000000000000000000000000000D
:1023D00000000000000000000000000000000000FD
:1023E00000000000000000000000000000000000ED
:1023F00000000000000000000000000000000000DD
:1024000000000000000000000000000000000000CC
:1024100000000000000000000000000000000000BC
:1024200000000000000000000000000000000000AC
:10243000000000000000000000000000000000009C
:10244000000000000000000000000000000000008C
:0B245000000000000000000000000081
:05245B0000000000007C
:10246000000000000000000000000000000000006C
:10247000000000000000000000000000000000005C
:10248000000000000000000000000000000000004C
:10249000000000000000000000000000000000003C
:1024A000000000000000000000000000000000002C
:1024B000000000000000000000000000000000001C
:1024C000000000000000000000000000000000000C
:1024D00000000000000000000000000000000001FB
:1024E00000000000000000000000000000000000EC
:0524F0000000000100E6
:020000040030CA
:0100000018E7
:0100010019E5
:010002007786
:010003007C80
:0100040001FA
:010005008872
:0100060010E9
:01000800FFF8
:01000900C036
:01000A00FFF6
:01000B00E014
:00000001FF
