:020000040000FA
:0600000092EF54F0120023
:020006001200E6
:0600080018EF02F01200E7
:0600180021EF02F01200CE
:02001E000400DC
:100020000EAB0000000800000B00000059AA000001
:1000300000090000B5000000AEA90000000B0000A0
:10004000AB00000055A9000060000000590000004E
:100050000001ED0EC46F400EC56FEE0EC66F400E70
:10006000C76F010EC36F53D862D87FD8F1D8F9D8C3
:10007000C7D9030EE66E32EC0EF0E5520001605176
:10008000060A3AE0030A2BE0010A21E0070A17E01A
:10009000010A10E0030A03E0010E606F36D0E66A41
:1000A000E66A050EE66E24DAE552E552E5520001F5
:1000B000602B2BD03BEC09F00001602B26D0020E08
:1000C000E66E6CEC13F0E5520001602B1ED0030EBF
:1000D000E66E6CEC13F0E5520001602B16D0040EB6
:1000E000E66ED1EC17F0E552050EE66ED1EC17F096
:1000F000E5520001602B09D0020EE66EB7EC19F054
:10010000E5520001010E606F00D0B3D71200D39EFC
:100110008F0ED3147009D36EFC0ED3140009D36E66
:100120009B9E9B8CC00E9B1402099B6E12000F01BC
:10013000030E256F246B236B806A040E816E826E22
:10014000836A846A856A866A876A886A3F0E926EC5
:100150003E0E936ED30E946E956A966A976A986A6D
:10016000996AF00E9A6EF18E1200F28EF28CD08E99
:10017000D59AD598D596F80ED5140009D56ED59C8C
:10018000F28AF194C4C0D7FFC5C0D6FFF294D59EC1
:100190000801036BAA9E3F0ECD144009CD6ECF0E11
:1001A000CD140009CD6ECD96CD829D809F90CF68F5
:1001B000A00ECE6E9E90CD90046B870ECA14780967
:1001C000CA6EFC0ECA140309CA6E9D829F92CC6A45
:1001D000FA0ECB6E9E92CA94B09E3F0EB1140009E7
:1001E000B16ECF0EB1143009B16EB196B182A0825A
:1001F000A292A192B1900F0103870389038B038D13
:1002000003810383B980D290056BFA0E046FBA9014
:100210000395129F139D139F1389138B13971383B9
:10022000B982D292BA92630E156FC00E146F138109
:100230003C9F3D9D3D9F3D893D8B3D973D83B986CC
:10024000D296BA96630E3F6FC00E3E6F3D9112007C
:10025000C78EC79CC69AC688F00EC6140209C66E21
:1002600012000801066BF00EB36E600EB26EB18024
:100270000B01006BE66AE66A010EE66E39D9E552BB
:10028000E552E552400EE66EA90EE66E000EE66EF1
:10029000030EE66E0B0EE66E69EC54F0146E050E5E
:1002A000E15E1450400EE66EA90EE66E000EE66E9C
:1002B000180EE66E0B0EE66E69EC54F0146E050E29
:1002C000E15E1450400EE66EA90EE66E000EE66E7C
:1002D0002D0EE66E0B0EE66E69EC54F0146E050EF4
:1002E000E15E1450400EE66EA90EE66E000EE66E5C
:1002F000420EE66E0B0EE66E69EC54F0146E050EBF
:10030000E15E14500B01016B026B0801065101E123
:10031000FCD7380EE66E000EE66EE66AE66EE66A1A
:10032000B6EC07F0146E050EE15E1450080106519C
:1003300001E1FCD7080EE66E000EE66EE66AE66E98
:10034000E66AB6EC07F0146E050EE15E1450080183
:10035000065101E1FCD7010EE66E000EE66EE66A7C
:10036000E66EE66AB6EC07F0146E050EE15E145018
:100370000801065101E1FCD7060EE66E000EE66E9E
:10038000E66AE66EE66AB6EC07F0146E050EE15E0C
:1003900014500801065101E1FCD7060EE66E000E6E
:1003A000E66EE66AE66EE66AB6EC07F0146E050ED7
:1003B000E15E14500801065101E1FCD7020EE66E21
:1003C000000EE66EE66AE66EE66AB6EC07F0146EBC
:1003D000050EE15E14500801065101E1FCD70C0E38
:1003E000E66E000EE66EE66AE66EE66AB6EC07F0CA
:1003F000146E050EE15E145015EC06F065EF06F084
:10040000CF0EC1140009C16EC196F80EC1140009C7
:10041000C16EC09EC70EC0141009C06EF80EC01485
:100420000609C06E830EC2140009C26EC29012008B
:10043000DACFE4FFE2CFDAFFE652E552E5CFDAFFAA
:100440001100DACFE4FFE2CFDAFFE652F2A409D0DE
:10045000C4C0D7FFC5C0D6FFF2940801010E036FD8
:10046000F29C9EA009D0C6C0CFFFC7C0CEFF9E9011
:100470000801010E046FF29CA1A205D0A19208010F
:10048000010E066FB190BAA20BD00F01630E156F6B
:10049000C00E146F08010051000801E20007BA9273
:1004A000BAA60FD00F01630E3F6FC00E3E6F08015A
:1004B000055105E1010E016F050E056F01D005071D
:1004C000BA969EA208D008010A070A5103E1010E5C
:1004D000096F0A6F9E92BAA007D00801070707515B
:1004E00002E1010E086FBA90E552E5CFDAFF110084
:1004F000D9CFE6FFE1CFD9FFFE0EDB50050A0CE0B5
:10050000010A09E0070A05E0020A01E00BD0A5D8BC
:1005100009D013DB07D006D00801065101E102D053
:1005200005D800D0E552E7CFD9FF1200140E0B0119
:10053000025D19E10151030A11E0010A0CE0030A0E
:1005400007E0010A02E0016B0BD0010E016F08D039
:10055000020E016F05D0030E016F02D0016B00D0B7
:10056000026B1FDB79D00151150DF3CF15F0F4CFDD
:1005700016F0030E15260B0E162202510F0115243C
:10058000E96E000E1620EA6EEFCF14F00B01015158
:10059000150DF3CF17F0F4CF18F0570E17260B0EEA
:1005A000182202510F011724E96E000E1820EA6E7E
:1005B000EF50145C4BE00001625104E0F2DA0001FC
:1005C000626B4AD00B010151150DF3CF14F0F4CF3B
:1005D00015F0570E14260B0E152202510F0114248C
:1005E000E96E000E1520EA6EEF50E66E8DEC08F015
:1005F000E5520B010151150DF3CF16F0F4CF17F0B2
:10060000570E16260B0E172202510F011624E96E03
:10061000000E1720EA6EEF50E66E0B010151150D2A
:10062000F3CF14F0F4CF15F0030E14260B0E1522A1
:1006300002510F011424E96E000E1520EA6EE552F6
:10064000E750EF6E0B010229026F06D00B01022B5F
:100650000001010E626F6AD712000B010051260AD9
:1006600001E163D2030A01E151D2010A01E148D25A
:10067000070A01E135D2010A01E12FD2030A01E1A3
:1006800026D2010A01E11DD23F0A01E115D2010A79
:1006900001E1CED1090A01E18AD1010A01E181D14A
:1006A000030A01E13AD1010A01E1F3D01B0A01E199
:1006B000EBD0010A01E1A4D0030A01E19CD0010AB8
:1006C00001E193D0070A01E18AD0010A44E00A0A55
:1006D00001E031D2420EE66E9D0EE66E000EE66E31
:1006E000570EE66E0B0EE66E69EC54F0146E050EB6
:1006F000E15E1450570EE66E9D0EE66E000EE66E3D
:100700006C0EE66E0B0EE66E69EC54F0146E050E80
:10071000E15E14506C0EE66E9D0EE66E000EE66E07
:10072000810EE66E0B0EE66E69EC54F0146E050E4B
:10073000E15E1450810EE66E9D0EE66E000EE66ED2
:10074000960EE66E0B0EE66E69EC54F0146E050E16
:10075000E15E1450F0D1960EE66E9D0EE66E000E30
:10076000E66E570EE66E0B0EE66E69EC54F0146EF4
:10077000050EE15E1450AB0EE66E9D0EE66E000EA9
:10078000E66E6C0EE66E0B0EE66E69EC54F0146EBF
:10079000050EE15E1450C00EE66E9D0EE66E000E74
:1007A000E66E810EE66E0B0EE66E69EC54F0146E8A
:1007B000050EE15E1450D50EE66E9D0EE66E000E3F
:1007C000E66E960EE66E0B0EE66E69EC54F0146E55
:1007D000050EE15E14500B01070E596FACD1070EE8
:1007E0006E6F200E596F836FA6D1070E836F200E98
:1007F0006E6FA26FA0D1070EA26F200E836F9BD1E8
:10080000EA0EE66E9D0EE66E000EE66E570EE66E82
:100810000B0EE66E69EC54F0146E050EE15E14509A
:10082000FF0EE66E9D0EE66E000EE66E6C0EE66E38
:100830000B0EE66E69EC54F0146E050EE15E14507A
:10084000140EE66E9E0EE66E000EE66E810EE66EED
:100850000B0EE66E69EC54F0146E050EE15E14505A
:10086000290EE66E9E0EE66E000EE66E960EE66EA3
:100870000B0EE66E69EC54F0146E050EE15E14503A
:100880000B01070E596F57D1070EA26F200E596F3B
:1008900052D13E0EE66E9E0EE66E000EE66E570ECE
:1008A000E66E0B0EE66E69EC54F0146E050EE15E1A
:1008B0001450530EE66E9E0EE66E000EE66E6C0E43
:1008C000E66E0B0EE66E69EC54F0146E050EE15EFA
:1008D0001450680EE66E9E0EE66E000EE66E810EF9
:1008E000E66E0B0EE66E69EC54F0146E050EE15EDA
:1008F00014507D0EE66E9E0EE66E000EE66E960EAF
:10090000E66E0B0EE66E69EC54F0146E050EE15EB9
:1009100014500B01070E596F0ED1920EE66E9E0E0B
:10092000E66E000EE66E570EE66E0B0EE66E69EC96
:1009300054F0146E050EE15E1450A70EE66E9E0E86
:10094000E66E000EE66E6C0EE66E0B0EE66E69EC61
:1009500054F0146E050EE15E1450BC0EE66E9E0E51
:10096000E66E000EE66E810EE66E0B0EE66E69EC2C
:1009700054F0146E050EE15E1450D10EE66E9E0E1C
:10098000E66E000EE66E960EE66E0B0EE66E69ECF7
:1009900054F0146E050EE15E14500B01070E596FF2
:1009A000CAD0070E6E6F200E596F836FC4D0E60E4B
:1009B000E66E9E0EE66E000EE66E570EE66E0B0EAF
:1009C000E66E69EC54F0146E050EE15E1450FB0EF9
:1009D000E66E9E0EE66E000EE66E6C0EE66E0B0E7A
:1009E000E66E69EC54F0146E050EE15E1450100EC4
:1009F000E66E9F0EE66E000EE66E810EE66E0B0E44
:100A0000E66E69EC54F0146E050EE15E1450250E8E
:100A1000E66E9F0EE66E000EE66E960EE66E0B0E0E
:100A2000E66E69EC54F0146E050EE15E145083D04E
:100A30003A0EE66E9F0EE66E000EE66E570EE66EFE
:100A40000B0EE66E69EC54F0146E050EE15E145068
:100A50004F0EE66E9F0EE66E000EE66E6C0EE66EB4
:100A60000B0EE66E69EC54F0146E050EE15E145048
:100A7000640EE66E9F0EE66E000EE66E810EE66E6A
:100A80000B0EE66E69EC54F0146E050EE15E145028
:100A9000790EE66E9F0EE66E000EE66E960EE66E20
:100AA0000B0EE66E69EC54F0146E050EE15E145008
:100AB0000B01070E586F3FD0070E586F200E6D6F59
:100AC0003AD0200E586F0001010E636F34D0070E2C
:100AD0006D6F200E586F826F2ED0200E6D6F2BD051
:100AE0000001635106E00B01070E826F0001636B8A
:100AF00006D00B01070E826F200E6D6F976F1BD013
:100B0000200E826F0001010E636F15D0000163514A
:100B100006E00B01070E976F0001636B05D00B0118
:100B2000070E976F200E826F06D0200E976F000180
:100B3000010E636F00D000D012000901B3510A0A00
:100B400027E0010A1EE0070A14E00C0A0BE00B0183
:100B5000200E636F300E0901B3250B01646F200E68
:100B6000656F1ED00B01410E636F6C0E646F656F75
:100B700017D00B01200E636F310E646F320E656F5C
:100B80000FD00B01200E636F310E646F656F08D0BC
:100B90000B01200E636F310E646F300E656F00D055
:100BA00012000B010151030A31E0010A21E0030A9E
:100BB00011E0010A01E038D0800E0225E66E000E39
:100BC000E66EE66AE66EE66AD1D9146E050EE15E5F
:100BD00014502AD0C00E0225E66E000EE66EE66ABC
:100BE000E66EE66AC3D9146E050EE15E14501CD0A1
:100BF000940E0225E66E000EE66EE66AE66EE66A82
:100C0000B5D9146E050EE15E14500ED0D40E022537
:100C1000E66E000EE66EE66AE66EE66AA7D9146E28
:100C2000050EE15E145000D012000801065101E1EA
:100C3000FCD7780EE66E000EE66EE66AE66EE66AB1
:100C400095D9146E050EE15E14500801065101E1BC
:100C5000FCD7E66A62DAE5520801065101E1FCD7E9
:100C6000080EE66E5ADAE5520801065101E1FCD79A
:100C70000C0EE66E52DAE5520801065101E1FCD78E
:100C80001E0EE66E4ADAE5520801065101E1FCD774
:100C90001F0EE66E42DAE5520801065101E1FCD76B
:100CA0001E0EE66E3ADAE5520801065101E1FCD764
:100CB0000C0EE66E32DAE5520801065101E1FCD76E
:100CC000080EE66E2ADAE55212000801065101E12B
:100CD000FCD7500EE66E000EE66EE66AE66EE66A39
:100CE00045D9146E050EE15E14500801065101E16C
:100CF000FCD7100EE66E11DAE5520801065101E14B
:100D0000FCD7100EE66E09DAE5520801065101E142
:100D1000FCD7100EE66E01DAE5520801065101E13A
:100D2000FCD7100EE66EF9D9E5520801065101E133
:100D3000FCD7100EE66EF1D9E5520801065101E12B
:100D4000FCD7100EE66EE9D9E5520801065101E123
:100D5000FCD7100EE66EE1D9E5520801065101E11B
:100D6000FCD7100EE66ED9D9E5520801065101E113
:100D7000FCD7180EE66ED1D9E5520801065101E103
:100D8000FCD7180EE66EC9D9E5520801065101E1FB
:100D9000FCD7180EE66EC1D9E5520801065101E1F3
:100DA000FCD7180EE66EB9D9E5520801065101E1EB
:100DB000FCD7180EE66EB1D9E5520801065101E1E3
:100DC000FCD7180EE66EA9D9E5520801065101E1DB
:100DD000FCD7180EE66EA1D9E5520801065101E1D3
:100DE000FCD7180EE66E99D9E5520801065101E1CB
:100DF000FCD71C0EE66E91D9E5520801065101E1BF
:100E0000FCD71C0EE66E89D9E5520801065101E1B6
:100E1000FCD71C0EE66E81D9E5520801065101E1AE
:100E2000FCD71C0EE66E79D9E5520801065101E1A6
:100E3000FCD71C0EE66E71D9E5520801065101E19E
:100E4000FCD71C0EE66E69D9E5520801065101E196
:100E5000FCD71C0EE66E61D9E5520801065101E18E
:100E6000FCD71C0EE66E59D9E5520801065101E186
:100E7000FCD71E0EE66E51D9E5520801065101E17C
:100E8000FCD71E0EE66E49D9E5520801065101E174
:100E9000FCD71E0EE66E41D9E5520801065101E16C
:100EA000FCD71E0EE66E39D9E5520801065101E164
:100EB000FCD71E0EE66E31D9E5520801065101E15C
:100EC000FCD71E0EE66E29D9E5520801065101E154
:100ED000FCD71E0EE66E21D9E5520801065101E14C
:100EE000FCD71E0EE66E19D9E5520801065101E144
:100EF000FCD71F0EE66E11D9E5520801065101E13B
:100F0000FCD71F0EE66E09D9E5520801065101E132
:100F1000FCD71F0EE66E01D9E5520801065101E12A
:100F2000FCD71F0EE66EF9D8E5520801065101E123
:100F3000FCD71F0EE66EF1D8E5520801065101E11B
:100F4000FCD71F0EE66EE9D8E5520801065101E113
:100F5000FCD71F0EE66EE1D8E5520801065101E10B
:100F6000FCD71F0EE66ED9D8E5521200D9CFE6FFA6
:100F7000E1CFD9FF050EE126DE52F00EDD6E600EE8
:100F8000F36E020EF3CFDBFFF90EF36E030EF3CF19
:100F9000DBFFC00EF36E040EF3CFDBFFFA0EDB5067
:100FA000DF6EF29E00000000828600008294000046
:100FB00000008296FD0EDB50E8B0828AE8A0829A9B
:100FC000000082860000000000008296FB0EDB50CD
:100FD000E8B0828AE8A0829A0000828600000000C1
:100FE00000008296D9CFE9FFDACFEAFFEF50800BFD
:100FF00002E0828A01D0829A00008286000000000E
:1010000000008296D9CFE9FFDACFEAFFEF50400B1C
:1010100002E0828A01D0829A0000828600000000ED
:1010200000008296D9CFE9FFDACFEAFFEF50200B1C
:1010300002E0828A01D0829A0000828600000000CD
:1010400000008296D9CFE9FFDACFEAFFEF50100B0C
:1010500002E0828A01D0829A0000828600000000AD
:1010600000008296D9CFE9FFDACFEAFFEF50080BF4
:1010700002E0828A01D0829A00008286000000008D
:1010800000008296D9CFE9FFDACFEAFFEF50040BD8
:1010900002E0828A01D0829A00008286000000006D
:1010A00000008296D9CFE9FFDACFEAFFEF50020BBA
:1010B00002E0828A01D0829A00008286000000004D
:1010C00000008296D9CFE9FFDACFEAFFEF50010B9B
:1010D00002E0828A01D0829A000082860000828427
:1010E0000801066BDF0407E1010EDB50B36E020E50
:1010F000DB50B26E06D0030EDB50B36E040EDB5035
:10110000B26EB180F28E050EE15C02E2E16AE55258
:10111000E16EE552E7CFD9FF1200D9CFE6FFE1CF6C
:10112000D9FFE652FE0EDB50DF6EF29E000000009B
:101130008286000082940000000082960000828A6D
:10114000000000008286000000000000829600007F
:10115000829A000000008286000000000000829653
:10116000D9CFE9FFDACFEAFFEF50800B02E0828AA5
:1011700001D0829A00008286000000000000829662
:10118000D9CFE9FFDACFEAFFEF50400B02E0828AC5
:1011900001D0829A00008286000000000000829642
:1011A000D9CFE9FFDACFEAFFEF50200B02E0828AC5
:1011B00001D0829A00008286000000000000829622
:1011C000D9CFE9FFDACFEAFFEF50100B02E0828AB5
:1011D00001D0829A00008286000000000000829602
:1011E000D9CFE9FFDACFEAFFEF50080B02E0828A9D
:1011F00001D0829A000082860000000000008296E2
:10120000D9CFE9FFDACFEAFFEF50040B02E0828A80
:1012100001D0829A000082860000000000008296C1
:10122000D9CFE9FFDACFEAFFEF50020B02E0828A62
:1012300001D0829A000082860000000000008296A1
:10124000D9CFE9FFDACFEAFFEF50010B02E0828A43
:1012500001D0829A00008286000082840801066B19
:10126000F90EB36EC00EB26EB180F28EE552E55249
:10127000E7CFD9FF120008010051000801E20ED0AB
:101280000ED80001646F6451000808E20001640E8A
:10129000C86F000EC96F43D80001646B1200D9CF2C
:1012A000E6FFE1CFD9FFE652DF6A050E0001655D7A
:1012B0000AE281A8662B81AA672B81A6682B81A4EC
:1012C000692B652B1CD06951020803E2040EDF6E06
:1012D00011D06851020803E2030EDF6E0BD0665195
:1012E000020803E2010EDF6E05D06751020802E238
:1012F000020EDF6E696B686B666B676B656BDF5048
:1013000004E10801010E006F03D00801190E006FFF
:10131000DF5000D0E552E552E7CFD9FF1200D9CF18
:10132000E6FFE1CFD9FFE6520B010051220A02E1AC
:1013300096EF0DF0030A01E169D3010A01E106D33A
:101340003F0A01E1C2D2010A01E17ED2090A01E1AC
:1013500034D2010A01E1E4D1030A01E1A2D1010A78
:1013600001E160D11B0A01E12CD1010A01E106D1A2
:10137000030A01E1D3D0010A01E192D0070A4DE04E
:10138000010A1AE00A0A02E02DEF0EF0C8C0E9FFD8
:10139000C9C0EAFFEF50030A01E00CD00A0E006F4B
:1013A000E66AE66A010EE66E78EC02F0E552E55276
:1013B000E55200D02DEF0EF0C8C0E9FFC9C0EAFF2A
:1013C000EF50020A1CE0010A0EE0070A01E023D0F8
:1013D000006BE66AE66A010EE66E78EC02F0E55212
:1013E000E552E55218D0140E006FE66AE66A010E67
:1013F000E66E78EC02F0E552E552E5520CD00B0EA9
:10140000006FE66AE66A010EE66E78EC02F0E552DD
:10141000E552E55200D02DEF0EF0C8C0E9FFC9C07B
:10142000EAFFEF50020A2FE0030A21E0020A0EE071
:10143000070A01E034D0006BE66AE66A010EE66E48
:1014400078EC02F0E552E552E55229D01E0E006F0D
:10145000E66AE66A010EE66E78EC02F0E552E552C5
:10146000E552020EE66E32EC0EF0E55218D00A0E8E
:10147000006FE66AE66A010EE66E78EC02F0E5526D
:10148000E552E5520CD00C0E006FE66AE66A010EDA
:10149000E66E78EC02F0E552E552E55200D0DDD37D
:1014A000C8C0E9FFC9C0EAFFEF50020A2AE0030AF8
:1014B0001CE0020A0EE0070A01E02FD0006BE66A8A
:1014C000E66A010EE66E78EC02F0E552E552E5526E
:1014D00024D0500E006FE66AE66A010EE66E78ECE4
:1014E00002F0E552E552E55218D00B0E006FE66AA5
:1014F000E66A010EE66E78EC02F0E552E552E5523E
:101500000CD00D0E006FE66AE66A010EE66E78EC0E
:1015100002F0E552E552E55200D09FD3C8C0E9FF82
:10152000C9C0EAFFEF50010A1CE0020A0EE0070AF8
:1015300001E023D0006BE66AE66A010EE66E78EC05
:1015400002F0E552E552E55218D00E0E006FE66A41
:10155000E66A010EE66E78EC02F0E552E552E552DD
:101560000CD00C0E006FE66AE66A010EE66E78ECAF
:1015700002F0E552E552E55200D06FD3C8C0E9FF52
:10158000C9C0EAFFEF50020A0FE0060A01E018D0D6
:101590000A0E006FE66AE66A010EE66E78EC02F06B
:1015A000E552E552E5520CD00F0E006FE66AE66A8E
:1015B000010EE66E78EC02F0E552E552E55200D0FD
:1015C0004CD3C8C0E9FFC9C0EAFFEF50010A1DE0D3
:1015D000020A0FE0070A01E024D00A0E006FE66A53
:1015E000E66A010EE66E78EC02F0E552E552E5524D
:1015F00018D00A0E006FE66AE66A010EE66E78EC15
:1016000002F0E552E552E5520CD00E0E006FE66A8C
:10161000E66A010EE66E78EC02F0E552E552E5521C
:1016200000D01BD3C8C0E9FFC9C0EAFFEF50020ACF
:101630002BE0010A14E0070A01E032D00A0E006F25
:10164000E66AE66A010EE66E78EC02F0E552E552D3
:10165000E552040EE66E6CEC13F0E55221D0150E47
:10166000006FE66AE66A010EE66E78EC02F0E5527B
:10167000E552E552010EE66E6CEC13F0E552010EF8
:10168000E66EF0DAE5520CD0160E006FE66AE66AF6
:10169000010EE66E78EC02F0E552E552E55200D01C
:1016A000DCD2C8C0E9FFC9C0EAFFEF50020A2BE054
:1016B000010A14E0070A01E032D00A0E006FE66A60
:1016C000E66A010EE66E78EC02F0E552E552E5526C
:1016D000040EE66E6CEC13F0E55221D0140E006F90
:1016E000E66AE66A010EE66E78EC02F0E552E55233
:1016F000E552040EE66E6CEC13F0E552040EE66E55
:10170000B1DAE5520CD0160E006FE66AE66A010EF9
:10171000E66E78EC02F0E552E552E55200D09DD23B
:10172000C8C0E9FFC9C0EAFFEF50010A31E0020A70
:1017300014E0070A01E040D00A0E006FE66AE66A8C
:10174000010EE66E78EC02F0E552E552E552040E29
:10175000E66E6CEC13F0E5522FD0170E006FE66AC0
:10176000E66A010EE66E78EC02F0E552E552E552CB
:10177000010EE66ED1EC17F0E55200C902F901C97D
:1017800003F904C907F905C908F906C909F914D00C
:101790000F013DA104D00B01150E006F03D00B010A
:1017A000140E006FE66AE66A010EE66E78EC02F04F
:1017B000E552E552E55200D050D2C8C0E9FFC9C099
:1017C000EAFFEF50030A26E0070A01E03CD00F01D0
:1017D0003DA104D00B01150E006F03D00B01140EB8
:1017E000006FE66AE66A010EE66E78EC02F0E552FA
:1017F000E552E552070EE66ED1EC17F0E55202C94C
:1018000000F903C901F907C904F908C905F909C9AB
:1018100006F919D00F013DA104D00B01150E006F80
:1018200003D00B01140E006FE66AE66A010EE66E45
:1018300078EC02F0E552E552E552070EE66ED1EC87
:1018400017F0E55200D009D2C8C0E9FFC9C0EAFFCD
:10185000EF50020A2DE0010A18E0070A01E034D037
:101860000A0E006FE66AE66A010EE66E78EC02F098
:10187000E552E552E552080EE66ED1EC17F0E5525E
:10188000050EE66EEFD9E5521FD0200E006FE66A16
:10189000E66A010EE66E78EC02F0E552E552E5529A
:1018A000010EE66EB7EC19F0E552B3C9B4F90CD0ED
:1018B000210E006FE66AE66A010EE66E78EC02F031
:1018C000E552E552E55200D0C8D1C8C0E9FFC9C011
:1018D000EAFFEF50020A2DE0010A18E0070A01E0D2
:1018E00034D00A0E006FE66AE66A010EE66E78EC06
:1018F00002F0E552E552E552080EE66ED1EC17F023
:10190000E552050EE66EAED9E5521FD0200E006FEF
:10191000E66AE66A010EE66E78EC02F0E552E55200
:10192000E552010EE66EB7EC19F0E552B3C9B4F911
:101930000CD0210E006FE66AE66A010EE66E78ECC6
:1019400002F0E552E552E55200D087D1C8C0E9FF68
:10195000C9C0EAFFEF50020A47E0030A34E0020A76
:1019600020E0070A01E051D0030EE66EB7EC19F053
:10197000E5520B011F0E006FE66AE66A010EE66E85
:1019800078EC02F0E552E552E552B4C9B3F9E66AE3
:10199000E66A030EE66E78EC02F0E552E552E55297
:1019A00034D0030EE66EB7EC19F0E5520B011F0EB2
:1019B000006FE66AE66A010EE66E78EC02F0E55228
:1019C000E552E55222D00C0E0901B35D02E1B36B82
:1019D00001D0B32BE66AE66A030EE66E78EC02F0FD
:1019E000E552E552E55211D00901B35103E10C0E65
:1019F000B36F01D0B307E66AE66A030EE66E78ECD1
:101A000002F0E552E552E55200D027D1C8C0E9FF07
:101A1000C9C0EAFFEF50020A01E17BD0030A6DE082
:101A2000020A18E0070A01E080D00A0E006FE66A99
:101A3000E66A010EE66E78EC02F0E552E552E552F8
:101A4000080EE66ED1EC17F0E552050EE66E0AD9E7
:101A5000E5526BD0220E006FE66AE66A010EE66E72
:101A600078EC02F0E552E552E552010EE66EB7EC75
:101A700019F0E552020EE66ED1EC17F0E5520901BD
:101A8000B35121E1010EDF6EDF500C081BE3DF5084
:101A9000030DF3CFE9FFF4CFEAFF580EE926090E54
:101AA000EA22EF50E66EDF50030DF3CFE9FFF4CFEB
:101AB000EAFF7F0EE926090EEA22E552E750EF6EB3
:101AC000DF2AE2D719D0B351030DF3CFE9FFF4CFEA
:101AD000EAFF580EE926090EEA22EF50E66EB351EE
:101AE000030DF3CFE9FFF4CFEAFF7F0EE926090EDD
:101AF000EA22E552E750EF6E18D01F0E006FE66A3B
:101B0000E66A010EE66E78EC02F0E552E552E55227
:101B10000CD0230E006FE66AE66A010EE66E78ECE2
:101B200002F0E552E552E55200D097D0C8C0E9FF77
:101B3000C9C0EAFFEF50030A01E177D0070A01E0CC
:101B40008BD0030EE66EB7EC19F0E552080EE66E88
:101B5000D1EC17F0E5520B01210E006FE66AE66A40
:101B6000010EE66E78EC02F0E552E552E55209010D
:101B7000B3512CE1010EDF6EDF500C081BE3DF5088
:101B8000030DF3CFE9FFF4CFEAFF7F0EE926090E3C
:101B9000EA22EF50E66EDF50030DF3CFE9FFF4CFFA
:101BA000EAFF580EE926090EEA22E552E750EF6EE9
:101BB000DF2AE2D782C9E6FF090EE66E010EE66E65
:101BC000BAEC1AF0E552E552E5522ED0B351030DAE
:101BD000F3CFE9FFF4CFEAFF7F0EE926090EEA22F0
:101BE000EF50E66EB351030DF3CFE9FFF4CFEAFFF8
:101BF000580EE926090EEA22E552E750EF6EB3517E
:101C0000030DF3CFE9FFF4CFEAFF580EE926090EE2
:101C1000EA22EF50E66E090EE66E010EE66EBAECB1
:101C20001AF0E552E552E55217D0030EE66EB7EC16
:101C300019F0E552080EE66ED1EC17F0E5520B01F3
:101C4000210E006FE66AE66A010EE66E78EC02F09D
:101C5000E552E552E55200D000D0E552E552E7CF1B
:101C6000D9FF1200D9CFE6FFE1CFD9FFE652FE0E31
:101C7000DB50040A55E0070A41E0010A09E0030AC3
:101C800001E0C8D0D58ECD800001010E6B6FC2D0AF
:101C9000D58ECD80010EDF6EDF500C082BE3DF50B8
:101CA000030DF3CFE9FFF4CFEAFF580EE926090E42
:101CB000EA22010EEF6EDF50030DF3CFE9FFF4CF00
:101CC000EAFF580EE926090EEA22EE52010EEF6EE7
:101CD000DF50030DF3CFE9FFF4CFEAFF580EE926FA
:101CE000090EEA22020EE926000EEA22010EEF6E2C
:101CF000DF2AD2D70001010E6B6F8CD000016B512F
:101D000001E188D00801045104E0A1DB0801046B63
:101D1000F28C035104E083D80801036BF28C7AD073
:101D2000010EDF6EDF500C0828E3DF50030DF3CF08
:101D3000E9FFF4CFEAFF580EE926090EEA22EF6A1E
:101D4000DF50030DF3CFE9FFF4CFEAFF580EE92689
:101D5000090EEA22EE52EF6ADF50030DF3CFE9FFDE
:101D6000F4CFEAFF580EE926090EEA22020EE92610
:101D7000000EEA22EF6ADF2AD5D700016C6B08015A
:101D8000045103E064DB0801046B035103E047D80E
:101D90000801036B010EDF6EDF500C0834E3DF50E7
:101DA000030DF3CFE9FFF4CFEAFF310EE926090E68
:101DB000EA22EF5003E00001010E6C6FDF50030DCB
:101DC000F3CFE9FFF4CFEAFF310EE926090EEA224C
:101DD000EE52EF5003E00001010E6C6FDF50030D77
:101DE000F3CFE9FFF4CFEAFF310EE926090EEA222C
:101DF000020EE926000EEA22EF5003E00001010E78
:101E00006C6FDF2AC9D700016C51B7E1D59ECD9028
:101E10006B6B00D0E552E552E7CFD9FF12000C0EF4
:101E200000016D5D0CE10001010E6D6FC4C0D7FFB4
:101E3000C5C0D6FFC6C0CFFFC7C0CEFF02D00001CD
:101E40006D2B00016D510C0A01E1BFD2070A01E1BF
:101E50007FD2010A01E13FD2030A01E1FFD1010A69
:101E600001E1BFD10F0A01E17FD1010A01E13FD1B8
:101E7000030A01E1FFD0010A01E1BFD0070A01E135
:101E80007FD0010A40E0030A01E0DCD2909C000010
:101E9000909E00008E94000034C90DF935C90EF9EA
:101EA00036C90FF9090134510901D8805B5503E2A5
:101EB0000901342B07D00901345109015B5D02E2AD
:101EC00009013407090135510901D8805C5503E245
:101ED0000901352B07D00901355109015C5D02E28A
:101EE00009013507090136510901D8805D5503E222
:101EF0000901362B07D00901365109015D5D02E267
:101F000009013607A3D28E9600008E9800008E9AA3
:101F1000000037C910F938C911F939C912F9090196
:101F200037510901D8805E5503E20901372B07D0EC
:101F30000901375109015E5D02E209013707090114
:101F400038510901D8805F5503E20901382B07D0C9
:101F50000901385109015F5D02E2090138070901F1
:101F600039510901D880605503E20901392B07D0A6
:101F7000090139510901605D02E20901390766D2A0
:101F80008E9C00008E9E00008F9600003AC913F9C7
:101F90003BC914F93CC915F909013A510901D88026
:101FA000615503E209013A2B07D009013A510901B1
:101FB000615D02E209013A0709013B510901D8803C
:101FC000625503E209013B2B07D009013B5109018E
:101FD000625D02E209013B0709013C510901D88019
:101FE000635503E209013C2B07D009013C5109016B
:101FF000635D02E209013C0729D28F9400008F92B1
:1020000000008F9000003DC916F93EC917F93FC97D
:1020100018F909013D510901D880645503E209010D
:102020003D2B07D009013D510901645D02E2090120
:102030003D0709013E510901D880655503E20901B8
:102040003E2B07D009013E510901655D02E20901FD
:102050003E0709013F510901D880665503E2090195
:102060003F2B07D009013F510901665D02E20901DA
:102070003F07ECD18D9000008D92000090960000FB
:1020800040C919F941C91AF942C91BF9090140515E
:102090000901D880675503E20901402B07D00901E7
:1020A00040510901675D02E2090140070901415100
:1020B0000901D880685503E20901412B07D00901C5
:1020C00041510901685D02E20901410709014251DC
:1020D0000901D880695503E20901422B07D00901A3
:1020E00042510901695D02E209014207AFD19094B2
:1020F0000000909200009090000043C91CF944C970
:102100001DF945C91EF9090143510901D8806A55D5
:1021100003E20901432B07D00901435109016A5D1C
:1021200002E209014307090144510901D8806B55B6
:1021300003E20901442B07D00901445109016B5DF9
:1021400002E209014407090145510901D8806C5593
:1021500003E20901452B07D00901455109016C5DD6
:1021600002E20901450772D18D9600008D980000AA
:102170008D9A000046C91FF947C920F948C921F9BD
:10218000090146510901D8806D5503E20901462B2A
:1021900007D00901465109016D5D02E209014607B8
:1021A000090147510901D8806E5503E20901472B07
:1021B00007D00901475109016E5D02E20901470795
:1021C000090148510901D8806F5503E20901482BE4
:1021D00007D00901485109016F5D02E20901480772
:1021E00035D18D9C00008D9E00008C90000049C967
:1021F00022F94AC923F94BC924F9090149510901B6
:10220000D880705503E20901492B07D009014951D3
:102210000901705D02E20901490709014A510901FA
:10222000D880715503E209014A2B07D009014A51B0
:102230000901715D02E209014A0709014B510901D7
:10224000D880725503E209014B2B07D009014B518D
:102250000901725D02E209014B07F8D08C9200007F
:102260008C9400008C9600004CC925F94DC926F9C4
:102270004EC927F909014C510901D880735503E271
:1022800009014C2B07D009014C510901735D02E291
:1022900009014C0709014D510901D880745503E229
:1022A00009014D2B07D009014D510901745D02E26E
:1022B00009014D0709014E510901D880755503E206
:1022C00009014E2B07D009014E510901755D02E24B
:1022D00009014E07BBD08C9800008C9A00008C9CA2
:1022E00000004FC928F950C929F951C92AF9090133
:1022F0004F510901D880765503E209014F2B07D0D1
:1023000009014F510901765D02E209014F070901F8
:1023100050510901D880775503E20901502B07D0AD
:10232000090150510901775D02E2090150070901D5
:1023300051510901D880785503E20901512B07D08A
:10234000090151510901785D02E2090151077ED06E
:102350008C9E0000919000009192000052C92BF9D0
:1023600053C92CF954C92DF9090152510901D880DA
:10237000795503E20901522B07D009015251090195
:10238000795D02E209015207090153510901D88020
:102390007A5503E20901532B07D009015351090172
:1023A0007A5D02E209015307090154510901D880FD
:1023B0007B5503E20901542B07D00901545109014F
:1023C0007B5D02E20901540741D09194000091968F
:1023D00000008A90000055C92EF956C92FF957C937
:1023E00030F9090155510901D8807C5503E20901F2
:1023F000552B07D00901555109017C5D02E2090105
:102400005507090156510901D8807D5503E209019C
:10241000562B07D00901565109017D5D02E20901E1
:102420005607090157510901D8807E5503E2090179
:10243000572B07D00901575109017E5D02E20901BE
:10244000570704D00001010E6D6F00D0120090BC40
:1024500007D0640E09010D5D02E3908C01D00D2BB5
:1024600090BE07D0640E09010E5D02E1908E01D08E
:102470000E2B8EB407D0640E09010F5D02E18E842D
:1024800001D00F2B8EB607D0640E0901105D02E15A
:102490008E8601D0102B8EB807D0640E0901115D15
:1024A00002E18E8801D0112B8EBA07D0640E09018B
:1024B000125D02E18E8A01D0122B8EBC07D0640E11
:1024C0000901135D02E18E8C01D0132B8EBE07D063
:1024D000640E0901145D02E18E8E01D0142B8FB6BB
:1024E00007D0640E0901155D02E18F8601D0152B1E
:1024F0008FB407D0640E0901165D02E18F8401D00C
:10250000162B8FB207D0640E0901175D02E18F828E
:1025100001D0172B8FB007D0640E0901185D02E1BE
:102520008F8001D0182B8DB007D0640E0901195D82
:1025300002E18D8001D0192B8DB207D0640E090104
:102540001A5D02E18D8201D01A2B90B607D0640E7D
:1025500009011B5D02E1908601D01B2B90B407D0CE
:10256000640E09011C5D02E1908401D01C2B90B225
:1025700007D0640E09011D5D02E1908201D01D2B80
:1025800090B007D0640E09011E5D02E1908001D079
:102590001E2B8DB607D0640E09011F5D02E18D86EA
:1025A00001D01F2B8DB807D0640E0901205D02E118
:1025B0008D8801D0202B8DBA07D0640E0901215DD2
:1025C00002E18D8A01D0212B8DBC07D0640E090158
:1025D000225D02E18D8C01D0222B8DBE07D0640ECE
:1025E0000901235D02E18D8E01D0232B8CB007D031
:1025F000640E0901245D02E18C8001D0242B8CB291
:1026000007D0640E0901255D02E18C8201D0252BE3
:102610008CB407D0640E0901265D02E18C8401D0E0
:10262000262B8CB607D0640E0901275D02E18C864B
:1026300001D0272B8CB807D0640E0901285D02E178
:102640008C8801D0282B8CBA07D0640E0901295D33
:1026500002E18C8A01D0292B8CBC07D0640E0901C1
:102660002A5D02E18C8C01D02A2B8CBE07D0640E2F
:1026700009012B5D02E18C8E01D02B2B91B007D08C
:10268000640E09012C5D02E1918001D02C2B91B2E6
:1026900007D0640E09012D5D02E1918201D02D2B3E
:1026A00091B407D0640E09012E5D02E1918401D03E
:1026B0002E2B91B607D0640E09012F5D02E19186A1
:1026C00001D02F2B8AB007D0640E0901305D02E1E2
:1026D0008A8001D0302B1200D9CFE6FFE1CFD9FF9D
:1026E000E652FE0EDB50040A02E19AEF17F0070AE9
:1026F00001E163D1010A3CE0030A02E0CCEF17F0EC
:10270000010EDF6EDF500C0822E3DF50EA6A950FFE
:10271000E96E000EEA22EF6ADF50EA6AA20FE96E64
:10272000000EEA22EF6AEA6ADF34FE0BEA36E96E4F
:102730007B0EE926000EEA22EE6AED6ADF50EA6AB5
:102740006E0FE96E000EEA22EF6ADF2ADBD7000186
:10275000B16B0001B06B0801016BBA960801050E60
:10276000026F0F013D810001010EAF6FCCEF17F03A
:102770000001AF5102E1CCEF17F00801015102E175
:10278000CCEF17F08050080B01E0010E0001966FAE
:1027900000008050040B01E0010E0001976F000063
:1027A0008050200B01E0010E0001986F0000805066
:1027B000100B01E0010E0001996F00008250020B26
:1027C00001E0010E00019A6F00008250010B000130
:1027D0009B6F00008250400B01E0010E00019C6FD6
:1027E00000008250800B01E0010E00019D6F00008F
:1027F0008850100B01E0010E00019E6F0000885010
:10280000200B01E0010E00019F6F00008850400B7B
:1028100001E0010E0001A06F00008850800B01E074
:10282000010E0001A16F0000010EDF6EDF500C08E9
:1028300075E3DF50EA6A950FE96E000EEA22EFCFEA
:1028400014F0DF50EA6AA20FE96E000EEA22EF50A0
:10285000145C62E0DF50EA6A950FE96E000EEA222E
:10286000EF5031E0DF500C0A0BE00D0A01E010D010
:102870000001010E6F6F00017A6B0001706B1FD0B9
:102880000001010E7A6F0001796B00016F6B17D0A8
:10289000DF50EA6A6E0FE96E000EEA22010EEF6E5B
:1028A000DF04EA6A6E0FE96E000EEA22EF6ADF28A3
:1028B000EA6A6E0FE96E000EEA22EF6A00D00001AC
:1028C000010EB06F18D0DF50EA6A6E0FE96E000E8D
:1028D000EA22EF5010E0EA6ADF34FE0BEA36E96ED6
:1028E0007B0EE926000EEA2200C9EEFF01C9EDFFCA
:1028F0000001010EB16FDF50EA6A950FE96E000E1C
:10290000EA22EF50E66EDF50EA6AA20FE96E000E8F
:10291000EA22E552E750EF6EDF2A88D70001B15175
:1029200001E13AD30001B16B010EDF6EDF500C08FC
:1029300041E3EA6ADF34FE0BEA36E96E7B0EE926F4
:10294000000EEA22EECF14F0EFCF15F0010E1418AE
:1029500001E1155006E0145001E1155001E018D0D6
:1029600027D0EA6ADF34FE0BEA36E96E7B0EE926F1
:10297000000EEA22EE06000EEF5ADF50EA6A6E0FF2
:10298000E96E000EEA22EF6A0001010EB06F10D06E
:10299000EA6ADF34FE0BEA36E96E7B0EE926000EAA
:1029A000EA22EE06000EEF5A0001010EB16F00D0D0
:1029B000DF2ABCD70801016BEFD20001AF5101E162
:1029C000EBD200016F510AE00901640E5B6F09014F
:1029D000640E5C6F0901640E5D6F2DD000017A51A9
:1029E00003E10001705107E004C95BF904C95CF917
:1029F00004C95DF920D00001795103E10001715152
:102A000007E005C95BF905C95CF905C95DF913D093
:102A10000001785103E10001725107E006C95BF93A
:102A200006C95CF906C95DF906D009015B6B0901AD
:102A30005C6B09015D6B000170510AE00901640ED5
:102A40005E6F0901640E5F6F0901640E606F2DD027
:102A500000016F5103E10001715107E004C95EF903
:102A600004C95FF904C960F920D000017A5103E17B
:102A70000001725107E005C95EF905C95FF905C992
:102A800060F913D00001795103E10001735107E0AF
:102A900006C95EF906C95FF906C960F906D00901E1
:102AA0005E6B09015F6B0901606B000171510AE007
:102AB0000901640E616F0901640E626F0901640E01
:102AC000636F2DD00001705103E10001725107E0E6
:102AD00004C961F904C962F904C963F920D000018D
:102AE0006F5103E10001735107E005C961F905C9A0
:102AF00062F905C963F913D000017A5103E10001BD
:102B0000745107E006C961F906C962F906C963F99B
:102B100006D00901616B0901626B0901636B000159
:102B200072510AE00901640E646F0901640E656F59
:102B30000901640E666F2DD00001715103E100019F
:102B4000735107E004C964F904C965F904C966F959
:102B500020D00001705103E10001745107E005C964
:102B600064F905C965F905C966F913D000016F510B
:102B700003E10001755107E006C964F906C965F96A
:102B800006C966F906D00901646B0901656B090184
:102B9000666B000173510AE00901640E676F090159
:102BA000640E686F0901640E696F2DD000017251C7
:102BB00003E10001745107E004C967F904C968F929
:102BC00004C969F920D00001715103E10001755178
:102BD00007E005C967F905C968F905C969F913D09E
:102BE0000001705103E10001765107E006C967F961
:102BF00006C968F906C969F906D00901676B0901B8
:102C0000686B0901696B000174510AE00901640EE7
:102C10006A6F0901640E6B6F0901640E6C6F2DD031
:102C20000001735103E10001755107E004C96AF91D
:102C300004C96BF904C96CF920D00001725103E199
:102C40000001765107E005C96AF905C96BF905C9A4
:102C50006CF913D00001715103E10001775107E0D5
:102C600006C96AF906C96BF906C96CF906D00901EB
:102C70006A6B09016B6B09016C6B000175510AE00D
:102C80000901640E6D6F0901640E6E6F0901640E17
:102C90006F6F2DD00001745103E10001765107E000
:102CA00004C96DF904C96EF904C96FF920D0000197
:102CB000735103E10001775107E005C96DF905C9BA
:102CC0006EF905C96FF913D00001725103E10001DB
:102CD000785107E006C96DF906C96EF906C96FF9A2
:102CE00006D009016D6B09016E6B09016F6B000164
:102CF00076510AE00901640E706F0901640E716F6C
:102D00000901640E726F2DD00001755103E10001BD
:102D1000775107E004C970F904C971F904C972F95F
:102D200020D00001745103E10001785107E005C98A
:102D300070F905C971F905C972F913D00001735111
:102D400003E10001795107E006C970F906C971F97C
:102D500006C972F906D00901706B0901716B09018E
:102D6000726B000177510AE00901640E736F09016B
:102D7000640E746F0901640E756F2DD000017651D9
:102D800003E10001785107E004C973F904C974F93B
:102D900004C975F920D00001755103E10001795192
:102DA00007E005C973F905C974F905C975F913D0A8
:102DB0000001745103E100017A5107E006C973F97B
:102DC00006C974F906C975F906D00901736B0901C2
:102DD000746B0901756B000178510AE00901640EFA
:102DE000766F0901640E776F0901640E786F2DD03C
:102DF0000001775103E10001795107E004C976F938
:102E000004C977F904C978F920D00001765103E1AB
:102E100000017A5107E005C976F905C977F905C9B6
:102E200078F913D00001755103E100016F5107E0FB
:102E300006C976F906C977F906C978F906D00901F5
:102E4000766B0901776B0901786B000179510AE013
:102E50000901640E796F0901640E7A6F0901640E2D
:102E60007B6F2DD00001785103E100017A5107E01A
:102E700004C979F904C97AF904C97BF920D00001A1
:102E8000775103E100016F5107E005C979F905C9E0
:102E90007AF905C97BF913D00001765103E10001ED
:102EA000705107E006C979F906C97AF906C97BF9B4
:102EB00006D00901796B09017A6B09017B6B00016E
:102EC0007A510AE00901640E7C6F0901640E7D6F7E
:102ED0000901640E7E6F2DD00001795103E10001DC
:102EE0006F5107E004C97CF904C97DF904C97EF972
:102EF00020D00001785103E10001705107E005C9BD
:102F00007CF905C97DF905C97EF913D00001775117
:102F100003E10001715107E006C97CF906C97DF99A
:102F200006C97EF906D009017C6B09017D6B090198
:102F30007E6B32D00F013D910001AF6B010EDF6E51
:102F4000DF500C0828E3DF50030DF3CFE9FFF4CF87
:102F5000EAFF580EE926090EEA22EF6ADF50030D58
:102F6000F3CFE9FFF4CFEAFF580EE926090EEA2273
:102F7000EE52EF6ADF50030DF3CFE9FFF4CFEAFF23
:102F8000580EE926090EEA22020EE926000EEA2270
:102F9000EF6ADF2AD5D700D0E552E552E7CFD9FF57
:102FA0001200D9CFE6FFE1CFD9FF040EE126DE6A99
:102FB000DD6A020EDB6AFE0EDB50080A01E1C7D1B2
:102FC0000F0A01E1BED1020A01E1D5D0010A39E0C0
:102FD000060A1CE0030A01E0C0D100EC02F0000088
:102FE000C46A0000C28000000001010EB46F00013D
:102FF000B56B0001B66B0801096B9E920801010ECA
:103000000A6FCA840001010EB26FA7D100EC02F072
:103010000000C46A0000C2800000830EC2140409CC
:10302000C26E0001020EB46F0001B66B0801096B9D
:103030009E920801010E0A6FCA840001010EB36F4F
:103040008CD10001B25101E188D10801095101E19F
:1030500084D10001B451020A46E0030A01E086D09F
:10306000C450DE6EDD6A000EDBCF06F0010EDBCF52
:1030700007F005EC53F005C014F006C015F007C0CA
:1030800016F008C017F0330E0A6E330E0B6E230EC7
:103090000C6E400E0D6E14C005F015C006F016C083
:1030A00007F017C008F01AEC53F06DEC53F007C0AE
:1030B000B5F00000830EC2140409C26E00000001C6
:1030C000020EB46F0000C28200000801096BB5C097
:1030D000E6FF050EE66E010EE66EC0EC2AF0E55244
:1030E000E552E55247D0C450DE6EDD6A000EDBCFFC
:1030F00006F0010EDBCF07F005EC53F005C014F02D
:1031000006C015F007C016F008C017F0330E0A6E9F
:10311000330E0B6E230E0C6E400E0D6E14C005F0B8
:1031200015C006F016C007F017C008F01AEC53F0EF
:103130006DEC53F007C0B6F00000830EC214000916
:10314000C26E00000001010EB46F0000C2820000D8
:103150000801096BB6C0E6FF050EE66E030EE66ECB
:1031600065EC3DF0E552E552E55204D00001010E58
:10317000B46F00D0F2D00001B35101E1EED00801EC
:10318000095101E1EAD0C450DE6EDD6A0000C2825E
:103190000000000EDBCF06F0010EDBCF07F005ECE0
:1031A00053F005C014F006C015F007C016F008C0B3
:1031B00017F0330E0A6E330E0B6E230E0C6E400E9C
:1031C0000D6E14C005F015C006F016C007F017C04C
:1031D00008F01AEC53F06DEC53F007C0B6F008019C
:1031E000096B0B010051260A67E0020A33E0060A68
:1031F00001E09AD0010EF36E020EF3CFDBFF09015E
:10320000B3511AE1010EF36E030EF3CFDBFF030E91
:10321000DB500C0810E3030EDB50030DF3CFE9FF86
:10322000F4CFEAFF580EE926090EEA22B6C0EFFFF6
:10323000030EDB2AECD70DD00901B351030DF3CFF8
:10324000E9FFF4CFEAFF580EE926090EEA22B6C0DC
:10325000EFFF6BD0020EF36E020EF3CFDBFF09011E
:10326000B3511BE1010EF36E030EF3CFDBFF030E30
:10327000DB500C0811E3030EDB50030DF3CFE9FF25
:10328000F4CFEAFF580EE926090EEA22EE52B6C044
:10329000EFFF030EDB2AEBD70ED00901B351030D6C
:1032A000F3CFE9FFF4CFEAFF580EE926090EEA2230
:1032B000EE52B6C0EFFF39D0030EF36E020EF3CF1D
:1032C000DBFF0901B3511EE1010EF36E030EF3CFD4
:1032D000DBFF030EDB500C0814E3030EDB50030D81
:1032E000F3CFE9FFF4CFEAFF580EE926090EEA22F0
:1032F000020EE926000EEA22B6C0EFFF030EDB2A1B
:10330000E8D711D00901B351030DF3CFE9FFF4CF92
:10331000EAFF580EE926090EEA22020EE926000EFF
:10332000EA22B6C0EFFF01D000D0B6C0E6FF090E1A
:10333000E66E020EDBCFE6FF1DD9E552E552E552FF
:103340000CD0C2900000CA940001B26B06D0C290AB
:103350000000CA940001B36B00D0040EE15C02E2ED
:10336000E16AE552E16EE552E7CFD9FF1200D9CF0D
:10337000E6FFE1CFD9FFFE0EDB50020A19E0010A99
:103380000EE0020A01E020D00801086BBA90780E26
:10339000076F0F0103850001010EB76F15D00F01F4
:1033A0000395010EE66E14D8E5520001B76B0CD000
:1033B0000001B75101E108D00801085101E104D032
:1033C000E66A06D8E55200D0E552E7CFD9FF1200F1
:1033D000D9CFE6FFE1CFD9FF0B010051260A01E169
:1033E00095D0020A60E0060A33E0020A01E0BED08E
:1033F000FE0EDB500CE05A0E5A6F6F0E5B6F6E0EB6
:103400005C6F650E5D6F0001010EB86FAFD00001FB
:10341000B8510DE00B01200E5A6F5B6F5C6F5D6F52
:103420000001B86B08013C0E076F086B10D00B0150
:103430005A0E5A6F6F0E5B6F6E0E5C6F650E5D6F8E
:103440000001010EB86F0801780E076F086B8ED06F
:10345000FE0EDB500AE0520E6F6F650E706F640E49
:10346000716F0001010EB86F81D00001B8510CE0FE
:103470000B01200E6F6F706F716F0001B86B080148
:103480003C0E076F086B0ED00B01520E6F6F650E6E
:10349000706F640E716F0001010EB86F0801780E35
:1034A000076F086B63D0FE0EDB500DE0470E846F94
:1034B000720E856F650E866F876F6E0E886F0001C6
:1034C000010EB86F53D00001B8510EE00B01200E71
:1034D000846F856F866F876F886F0001B86B0801F6
:1034E0003C0E076F086B11D00B01470E846F720EF4
:1034F000856F650E866F876F6E0E886F0001010EF7
:10350000B86F0801780E076F086B30D0FE0EDB50E5
:103510000CE0420E846F6C0E856F750E866F650E23
:10352000876F0001010EB86F21D00001B8510DE086
:103530000B01200E846F856F866F876F0001B86B5B
:1035400008013C0E076F086B10D00B01420E846F10
:103550006C0E856F750E866F650E876F0001010E0C
:10356000B86F0801780E076F086B00D0E552E7CFFF
:10357000D9FF1200D9CFE6FFE1CFD9FFE652FC0E0A
:10358000DB50630A02E188EF2AF0070A02E188EFC4
:103590002AF0050A02E155EF2AF0030A02E155EF8D
:1035A0002AF03D0A02E122EF2AF03F0A02E122EF6F
:1035B0002AF03D0A02E1EFEF29F0030A02E1EFEF02
:1035C00029F0050A02E1BCEF29F0070A02E1BCEF8D
:1035D00029F0050A02E16DEF29F0030A02E16DEF1F
:1035E00029F00D0A02E11EEF29F00F0A02E11EEF99
:1035F00029F00D0A02E1CFEF28F0030A02E1CFEF34
:1036000028F0050A02E180EF28F0070A02E180EFC6
:1036100028F0050A02E131EF28F0030A02E131EF58
:1036200028F01D0A02E1E2EF27F01F0A02E1E2EFB3
:1036300027F01D0A02E193EF27F0030A02E193EF5E
:1036400027F0050A02E144EF27F0070A02E144EF00
:1036500027F0050A02E1F5EF26F0030A02E1F5EF93
:1036600026F00D0A02E1A6EF26F00F0A02E1A6EF0E
:1036700026F00D0A02E156EF26F0030A02E156EFAA
:1036800026F0050A02E106EF26F0070A02E106EF3E
:1036900026F0050A02E1B6EF25F0030A02E1B6EFD3
:1036A00025F07D0A02E166EF25F07F0A02E166EF70
:1036B00025F07D0A02E116EF25F0030A02E116EF7C
:1036C00025F0050A02E1C7EF24F0070A02E1C7EF7F
:1036D00024F0050A02E177EF24F0030A02E177EF14
:1036E00024F00D0A02E127EF24F00F0A02E127EF90
:1036F00024F00D0A02E1D7EF23F0030A02E1D7EF2D
:1037000023F0050A02E187EF23F0070A02E187EFC1
:1037100023F0050A02E137EF23F0030A02E137EF55
:1037200023F01D0A02E1E8EF22F01F0A02E1E8EFB0
:1037300022F01D0A02E198EF22F0030A02E198EF5D
:1037400022F0050A02E148EF22F0070A02E148EF01
:1037500022F0050A02E1F8EF21F0030A02E1F8EF96
:1037600021F00D0A02E1A8EF21F00F0A02E1A8EF13
:1037700021F00D0A02E158EF21F0030A02E158EFAF
:1037800021F0050A02E109EF21F0070A02E109EF41
:1037900021F0050A02E1B9EF20F0030A02E1B9EFD6
:1037A00020F03D0A02E169EF20F03F0A02E169EFF3
:1037B00020F03D0A02E119EF20F0030A02E119EFBF
:1037C00020F0050A01E1E5D3070A01E1E2D3050A89
:1037D00001E18FD3030A01E18CD30D0A01E13AD351
:1037E0000F0A01E137D30D0A01E1E4D2030A01E136
:1037F000E1D2050A01E18FD2070A01E18CD2050A64
:1038000001E13AD2030A01E137D21D0A01E1E5D113
:103810001F0A01E1E2D11D0A01E190D1030A01E191
:103820008DD1050A01E13CD1070A01E139D1050A30
:1038300001E103D1030A01E100D10D0A01E1CAD07F
:103840000F0A01E1C7D00D0A01E193D0030A01E19B
:1038500090D0050A5BE0070A59E0050A24E0030A54
:1038600022E0020A02E0BBEF2AF0DF6ADF5009081B
:1038700018E3FE0EDB50150DF3CF14F0F4CF15F066
:10388000570E14260B0E1522FD0EDB50DF240F0100
:103890001424E96E000E1520EA6E200EEF6EDF2A6A
:1038A000E5D7BBEF2AF0FE0EDB50150DF3CF14F079
:1038B000F4CF15F0570E14260B0E1522FD0EDB501B
:1038C0000F011424E96E000E1520EA6E020EEF6E51
:1038D000010EDF6EDF50090817E3FE0EDB50150DF9
:1038E000F3CF14F0F4CF15F0570E14260B0E15225B
:1038F000FD0EDB50DF241424E96E000E1520EA6E65
:10390000200EEF6EDF2AE6D7BBEF2AF0FE0EDB506B
:10391000150DF3CF14F0F4CF15F0570E14260B0E3F
:103920001522FD0EDB500F011424E96E000E152048
:10393000EA6E030EEF6E010EDF6EDF50090817E32B
:10394000FE0EDB50150DF3CF14F0F4CF15F0570E2B
:1039500014260B0E1522FD0EDB50DF241424E96E15
:10396000000E1520EA6E200EEF6EDF2AE6D7BBEFC1
:103970002AF0FE0EDB50150DF3CF14F0F4CF15F046
:10398000570E14260B0E1522FD0EDB500F011424CA
:10399000E96E000E1520EA6E040EEF6E010EDF6E6A
:1039A000DF50090817E3FE0EDB50150DF3CF14F0BE
:1039B000F4CF15F0570E14260B0E1522FD0EDB501A
:1039C000DF241424E96E000E1520EA6E200EEF6E3F
:1039D000DF2AE6D7FE0EDB50150DF3CF14F0F4CF3F
:1039E00015F0570E14260B0E1522FD0EDB500F019D
:1039F0001424E96E000E1520EA6E050EEF6E010E1E
:103A0000DF6EDF50090817E3FE0EDB50150DF3CF14
:103A100014F0F4CF15F0570E14260B0E1522FD0EE0
:103A2000DB50DF241424E96E000E1520EA6E200E10
:103A3000EF6EDF2AE6D7BBEF2AF0FE0EDB50150D46
:103A4000F3CF14F0F4CF15F0570E14260B0E1522F9
:103A5000FD0EDB500F011424E96E000E1520EA6EF6
:103A6000060EEF6E010EDF6EDF50090817E3FE0E43
:103A7000DB50150DF3CF14F0F4CF15F0570E1426CC
:103A80000B0E1522FD0EDB50DF241424E96E000E10
:103A90001520EA6E200EEF6EDF2AE6D7BBEF2AF084
:103AA000DF6ADF50000818E3FE0EDB50150DF3CF80
:103AB00014F0F4CF15F0570E14260B0E1522FD0E40
:103AC000DB50DF240F011424E96E000E1520EA6E8E
:103AD000060EEF6EDF2AE5D7FE0EDB50150DF3CF95
:103AE00014F0F4CF15F0570E14260B0E1522FD0E10
:103AF000DB280F011424E96E000E1520EA6E020E79
:103B0000EF6EDF6EDF50090817E3FE0EDB50150D78
:103B1000F3CF14F0F4CF15F0570E14260B0E152228
:103B2000FD0EDB50DF241424E96E000E1520EA6E32
:103B3000200EEF6EDF2AE6D7BBEF2AF0DF6ADF50F8
:103B4000000818E3FE0EDB50150DF3CF14F0F4CF90
:103B500015F0570E14260B0E1522FD0EDB50DF2438
:103B60000F011424E96E000E1520EA6E060EEF6EAA
:103B7000DF2AE5D7FE0EDB50150DF3CF14F0F4CF9E
:103B800015F0570E14260B0E1522FD0EDB280F0123
:103B90001424E96E000E1520EA6E030EEF6E020E7D
:103BA000DF6EDF50090817E3FE0EDB50150DF3CF73
:103BB00014F0F4CF15F0570E14260B0E1522FD0E3F
:103BC000DB50DF241424E96E000E1520EA6E200E6F
:103BD000EF6EDF2AE6D7BBEF2AF0DF6ADF5000087E
:103BE00018E3FE0EDB50150DF3CF14F0F4CF15F0F3
:103BF000570E14260B0E1522FD0EDB50DF240F018D
:103C00001424E96E000E1520EA6E060EEF6EDF2A10
:103C1000E5D7FE0EDB50150DF3CF14F0F4CF15F001
:103C2000570E14260B0E1522FD0EDB280F0114244F
:103C3000E96E000E1520EA6E040EEF6E020EDF6EC6
:103C4000DF50090817E3FE0EDB50150DF3CF14F01B
:103C5000F4CF15F0570E14260B0E1522FD0EDB5077
:103C6000DF241424E96E000E1520EA6E200EEF6E9C
:103C7000DF2AE6D7BBEF2AF0DF6ADF50000818E33F
:103C8000FE0EDB50150DF3CF14F0F4CF15F0570EE8
:103C900014260B0E1522FD0EDB50DF240F01142419
:103CA000E96E000E1520EA6E060EEF6EDF2AE5D7EC
:103CB000FE0EDB50150DF3CF14F0F4CF15F0570EB8
:103CC00014260B0E1522FD0EDB280F011424E96EBD
:103CD000000E1520EA6E050EEF6E020EDF6EDF504D
:103CE000090817E3FE0EDB50150DF3CF14F0F4CFE7
:103CF00015F0570E14260B0E1522FD0EDB50DF2497
:103D00001424E96E000E1520EA6E200EEF6EDF2AF5
:103D1000E6D7BBEF2AF0DF6ADF50000818E3FE0E9B
:103D2000DB50150DF3CF14F0F4CF15F0570E142619
:103D30000B0E1522FD0EDB50DF240F011424E96E5B
:103D4000000E1520EA6E060EEF6EDF2AE5D7FE0E96
:103D5000DB50150DF3CF14F0F4CF15F0570E1426E9
:103D60000B0E1522FD0EDB280F011424E96E000E48
:103D70001520EA6E060EEF6E020EDF6EDF500908A8
:103D800017E3FE0EDB50150DF3CF14F0F4CF15F052
:103D9000570E14260B0E1522FD0EDB50DF241424C3
:103DA000E96E000E1520EA6E200EEF6EDF2AE6D7D0
:103DB000BBEF2AF0DF6ADF50010818E3FE0EDB508C
:103DC000150DF3CF14F0F4CF15F0570E14260B0E8B
:103DD0001522FD0EDB50DF240F011424E96E000EC6
:103DE0001520EA6E060EEF6EDF2AE5D7FE0EDB50D9
:103DF000150DF3CF14F0F4CF15F0570E14260B0E5B
:103E00001522FD0EDB50020F0F011424E96E000E87
:103E10001520EA6E020EEF6E030EDF6EDF5009080A
:103E200017E3FE0EDB50150DF3CF14F0F4CF15F0B1
:103E3000570E14260B0E1522FD0EDB50DF24142422
:103E4000E96E000E1520EA6E200EEF6EDF2AE6D72F
:103E5000BBEF2AF0DF6ADF50010818E3FE0EDB50EB
:103E6000150DF3CF14F0F4CF15F0570E14260B0EEA
:103E70001522FD0EDB50DF240F011424E96E000E25
:103E80001520EA6E060EEF6EDF2AE5D7FE0EDB5038
:103E9000150DF3CF14F0F4CF15F0570E14260B0EBA
:103EA0001522FD0EDB50020F0F011424E96E000EE7
:103EB0001520EA6E030EEF6EDF6EDF50090817E380
:103EC000FE0EDB50150DF3CF14F0F4CF15F0570EA6
:103ED00014260B0E1522FD0EDB50DF241424E96E90
:103EE000000E1520EA6E200EEF6EDF2AE6D7BBEF3C
:103EF0002AF0DF6ADF50010818E3FE0EDB50150DD3
:103F0000F3CF14F0F4CF15F0570E14260B0E152234
:103F1000FD0EDB50DF240F011424E96E000E152086
:103F2000EA6E060EEF6EDF2AE5D7FE0EDB50150DAA
:103F3000F3CF14F0F4CF15F0570E14260B0E152204
:103F4000FD0EDB50020F0F011424E96E000E152048
:103F5000EA6E040EEF6E030EDF6EDF50090817E302
:103F6000FE0EDB50150DF3CF14F0F4CF15F0570E05
:103F700014260B0E1522FD0EDB50DF241424E96EEF
:103F8000000E1520EA6E200EEF6EDF2AE6D7BBEF9B
:103F90002AF0DF6ADF50010818E3FE0EDB50150D32
:103FA000F3CF14F0F4CF15F0570E14260B0E152294
:103FB000FD0EDB50DF240F011424E96E000E1520E6
:103FC000EA6E060EEF6EDF2AE5D7FE0EDB50150D0A
:103FD000F3CF14F0F4CF15F0570E14260B0E152264
:103FE000FD0EDB50020F0F011424E96E000E1520A8
:103FF000EA6E050EEF6E030EDF6EDF50090817E361
:10400000FE0EDB50150DF3CF14F0F4CF15F0570E64
:1040100014260B0E1522FD0EDB50DF241424E96E4E
:10402000000E1520EA6E200EEF6EDF2AE6D7BBEFFA
:104030002AF0DF6ADF50010818E3FE0EDB50150D91
:10404000F3CF14F0F4CF15F0570E14260B0E1522F3
:10405000FD0EDB50DF240F011424E96E000E152045
:10406000EA6E060EEF6EDF2AE5D7FE0EDB50150D69
:10407000F3CF14F0F4CF15F0570E14260B0E1522C3
:10408000FD0EDB50020F0F011424E96E000E152007
:10409000EA6E060EEF6E030EDF6EDF50090817E3BF
:1040A000FE0EDB50150DF3CF14F0F4CF15F0570EC4
:1040B00014260B0E1522FD0EDB50DF241424E96EAE
:1040C000000E1520EA6E200EEF6EDF2AE6D7BBEF5A
:1040D0002AF0DF6ADF50020818E3FE0EDB50150DF0
:1040E000F3CF14F0F4CF15F0570E14260B0E152253
:1040F000FD0EDB50DF240F011424E96E000E1520A5
:10410000EA6E060EEF6EDF2AE5D7FE0EDB50150DC8
:10411000F3CF14F0F4CF15F0570E14260B0E152222
:10412000FD0EDB50030F0F011424E96E000E152065
:10413000EA6E020EEF6E040EDF6EDF50090817E321
:10414000FE0EDB50150DF3CF14F0F4CF15F0570E23
:1041500014260B0E1522FD0EDB50DF241424E96E0D
:10416000000E1520EA6E200EEF6EDF2AE6D7BBEFB9
:104170002AF0DF6ADF50020818E3FE0EDB50150D4F
:10418000F3CF14F0F4CF15F0570E14260B0E1522B2
:10419000FD0EDB50DF240F011424E96E000E152004
:1041A000EA6E060EEF6EDF2AE5D7FE0EDB50150D28
:1041B000F3CF14F0F4CF15F0570E14260B0E152282
:1041C000FD0EDB50030F0F011424E96E000E1520C5
:1041D000EA6E030EEF6E040EDF6EDF50090817E380
:1041E000FE0EDB50150DF3CF14F0F4CF15F0570E83
:1041F00014260B0E1522FD0EDB50DF241424E96E6D
:10420000000E1520EA6E200EEF6EDF2AE6D7BBEF18
:104210002AF0DF6ADF50020818E3FE0EDB50150DAE
:10422000F3CF14F0F4CF15F0570E14260B0E152211
:10423000FD0EDB50DF240F011424E96E000E152063
:10424000EA6E060EEF6EDF2AE5D7FE0EDB50150D87
:10425000F3CF14F0F4CF15F0570E14260B0E1522E1
:10426000FD0EDB50030F0F011424E96E000E152024
:10427000EA6E040EEF6EDF6EDF50090817E3FE0EE4
:10428000DB50150DF3CF14F0F4CF15F0570E1426B4
:104290000B0E1522FD0EDB50DF241424E96E000EF8
:1042A0001520EA6E200EEF6EDF2AE6D7BBEF2AF06C
:1042B000DF6ADF50020818E3FE0EDB50150DF3CF66
:1042C00014F0F4CF15F0570E14260B0E1522FD0E28
:1042D000DB50DF240F011424E96E000E1520EA6E76
:1042E000060EEF6EDF2AE5D7FE0EDB50150DF3CF7D
:1042F00014F0F4CF15F0570E14260B0E1522FD0EF8
:10430000DB50030F0F011424E96E000E1520EA6E36
:10431000050EEF6E040EDF6EDF50090817E3FE0E88
:10432000DB50150DF3CF14F0F4CF15F0570E142613
:104330000B0E1522FD0EDB50DF241424E96E000E57
:104340001520EA6E200EEF6EDF2AE6D7BBEF2AF0CB
:10435000DF6ADF50020818E3FE0EDB50150DF3CFC5
:1043600014F0F4CF15F0570E14260B0E1522FD0E87
:10437000DB50DF240F011424E96E000E1520EA6ED5
:10438000060EEF6EDF2AE5D7FE0EDB50150DF3CFDC
:1043900014F0F4CF15F0570E14260B0E1522FD0E57
:1043A000DB50030F0F011424E96E000E1520EA6E96
:1043B000060EEF6E040EDF6EDF50090817E3FE0EE7
:1043C000DB50150DF3CF14F0F4CF15F0570E142673
:1043D0000B0E1522FD0EDB50DF241424E96E000EB7
:1043E0001520EA6E200EEF6EDF2AE6D7BBEF2AF02B
:1043F000DF6ADF50030818E3FE0EDB50150DF3CF24
:1044000014F0F4CF15F0570E14260B0E1522FD0EE6
:10441000DB50DF240F011424E96E000E1520EA6E34
:10442000060EEF6EDF2AE5D7FE0EDB50150DF3CF3B
:1044300014F0F4CF15F0570E14260B0E1522FD0EB6
:10444000DB50040F0F011424E96E000E1520EA6EF4
:10445000020EEF6E050EDF6EDF50090817E3FE0E49
:10446000DB50150DF3CF14F0F4CF15F0570E1426D2
:104470000B0E1522FD0EDB50DF241424E96E000E16
:104480001520EA6E200EEF6EDF2AE6D7BBEF2AF08A
:10449000DF6ADF50030818E3FE0EDB50150DF3CF83
:1044A00014F0F4CF15F0570E14260B0E1522FD0E46
:1044B000DB50DF240F011424E96E000E1520EA6E94
:1044C000060EEF6EDF2AE5D7FE0EDB50150DF3CF9B
:1044D00014F0F4CF15F0570E14260B0E1522FD0E16
:1044E000DB50040F0F011424E96E000E1520EA6E54
:1044F000030EEF6E050EDF6EDF50090817E3FE0EA8
:10450000DB50150DF3CF14F0F4CF15F0570E142631
:104510000B0E1522FD0EDB50DF241424E96E000E75
:104520001520EA6E200EEF6EDF2AE6D7BBEF2AF0E9
:10453000DF6ADF50030818E3FE0EDB50150DF3CFE2
:1045400014F0F4CF15F0570E14260B0E1522FD0EA5
:10455000DB50DF240F011424E96E000E1520EA6EF3
:10456000060EEF6EDF2AE5D7FE0EDB50150DF3CFFA
:1045700014F0F4CF15F0570E14260B0E1522FD0E75
:10458000DB50040F0F011424E96E000E1520EA6EB3
:10459000040EEF6E050EDF6EDF50090817E3FE0E06
:1045A000DB50150DF3CF14F0F4CF15F0570E142691
:1045B0000B0E1522FD0EDB50DF241424E96E000ED5
:1045C0001520EA6E200EEF6EDF2AE6D7BBEF2AF049
:1045D000DF6ADF50030818E3FE0EDB50150DF3CF42
:1045E00014F0F4CF15F0570E14260B0E1522FD0E05
:1045F000DB50DF240F011424E96E000E1520EA6E53
:10460000060EEF6EDF2AE5D7FE0EDB50150DF3CF59
:1046100014F0F4CF15F0570E14260B0E1522FD0ED4
:10462000DB50040F0F011424E96E000E1520EA6E12
:10463000050EEF6EDF6EDF50090817E3FE0EDB504C
:10464000150DF3CF14F0F4CF15F0570E14260B0E02
:104650001522FD0EDB50DF241424E96E000E152018
:10466000EA6E200EEF6EDF2AE6D7BBEF2AF0DF6A94
:10467000DF50030818E3FE0EDB50150DF3CF14F0E6
:10468000F4CF15F0570E14260B0E1522FD0EDB503D
:10469000DF240F011424E96E000E1520EA6E060EC9
:1046A000EF6EDF2AE5D7FE0EDB50150DF3CF14F0C9
:1046B000F4CF15F0570E14260B0E1522FD0EDB500D
:1046C000040F0F011424E96E000E1520EA6E060E89
:1046D000EF6E050EDF6EDF50090817E3FE0EDB50AC
:1046E000150DF3CF14F0F4CF15F0570E14260B0E62
:1046F0001522FD0EDB50DF241424E96E000E152078
:10470000EA6E200EEF6EDF2AE6D7BBEF2AF0DF6AF3
:10471000DF50040818E3FE0EDB50150DF3CF14F044
:10472000F4CF15F0570E14260B0E1522FD0EDB509C
:10473000DF240F011424E96E000E1520EA6E060E28
:10474000EF6EDF2AE5D7FE0EDB50150DF3CF14F028
:10475000F4CF15F0570E14260B0E1522FD0EDB506C
:10476000050F0F011424E96E000E1520EA6E020EEB
:10477000EF6E060EDF6EDF50090817E3FE0EDB500A
:10478000150DF3CF14F0F4CF15F0570E14260B0EC1
:104790001522FD0EDB50DF241424E96E000E1520D7
:1047A000EA6E200EEF6EDF2AE6D7BBEF2AF0DF6A53
:1047B000DF50040818E3FE0EDB50150DF3CF14F0A4
:1047C000F4CF15F0570E14260B0E1522FD0EDB50FC
:1047D000DF240F011424E96E000E1520EA6E060E88
:1047E000EF6EDF2AE5D7FE0EDB50150DF3CF14F088
:1047F000F4CF15F0570E14260B0E1522FD0EDB50CC
:10480000050F0F011424E96E000E1520EA6E030E49
:10481000EF6E060EDF6EDF50090817E3FE0EDB5069
:10482000150DF3CF14F0F4CF15F0570E14260B0E20
:104830001522FD0EDB50DF241424E96E000E152036
:10484000EA6E200EEF6EDF2AE6D7BBEF2AF0DF6AB2
:10485000DF50040818E3FE0EDB50150DF3CF14F003
:10486000F4CF15F0570E14260B0E1522FD0EDB505B
:10487000DF240F011424E96E000E1520EA6E060EE7
:10488000EF6EDF2AE5D7FE0EDB50150DF3CF14F0E7
:10489000F4CF15F0570E14260B0E1522FD0EDB502B
:1048A000050F0F011424E96E000E1520EA6E040EA8
:1048B000EF6E060EDF6EDF50090817E3FE0EDB50C9
:1048C000150DF3CF14F0F4CF15F0570E14260B0E80
:1048D0001522FD0EDB50DF241424E96E000E152096
:1048E000EA6E200EEF6EDF2AE6D7BBEF2AF0DF6A12
:1048F000DF50040818E3FE0EDB50150DF3CF14F063
:10490000F4CF15F0570E14260B0E1522FD0EDB50BA
:10491000DF240F011424E96E000E1520EA6E060E46
:10492000EF6EDF2AE5D7FE0EDB50150DF3CF14F046
:10493000F4CF15F0570E14260B0E1522FD0EDB508A
:10494000050F0F011424E96E000E1520EA6E050E06
:10495000EF6E060EDF6EDF50090817E3FE0EDB5028
:10496000150DF3CF14F0F4CF15F0570E14260B0EDF
:104970001522FD0EDB50DF241424E96E000E1520F5
:10498000EA6E200EEF6EDF2AE6D7BBEF2AF0DF6A71
:10499000DF50040818E3FE0EDB50150DF3CF14F0C2
:1049A000F4CF15F0570E14260B0E1522FD0EDB501A
:1049B000DF240F011424E96E000E1520EA6E060EA6
:1049C000EF6EDF2AE5D7FE0EDB50150DF3CF14F0A6
:1049D000F4CF15F0570E14260B0E1522FD0EDB50EA
:1049E000050F0F011424E96E000E1520EA6E060E65
:1049F000EF6EDF6EDF50090817E3FE0EDB50150D7A
:104A0000F3CF14F0F4CF15F0570E14260B0E152229
:104A1000FD0EDB50DF241424E96E000E1520EA6E33
:104A2000200EEF6EDF2AE6D7BBEF2AF0DF6ADF50F9
:104A3000050818E3FE0EDB50150DF3CF14F0F4CF8C
:104A400015F0570E14260B0E1522FD0EDB50DF2439
:104A50000F011424E96E000E1520EA6E060EEF6EAB
:104A6000DF2AE5D7FE0EDB50150DF3CF14F0F4CF9F
:104A700015F0570E14260B0E1522FD0EDB50060FF7
:104A80000F011424E96E000E1520EA6E020EEF6E7F
:104A9000070EDF6EDF50090817E3FE0EDB50150D21
:104AA000F3CF14F0F4CF15F0570E14260B0E152289
:104AB000FD0EDB50DF241424E96E000E1520EA6E93
:104AC000200EEF6EDF2AE6D7BBEF2AF0DF6ADF5059
:104AD000050818E3FE0EDB50150DF3CF14F0F4CFEC
:104AE00015F0570E14260B0E1522FD0EDB50DF2499
:104AF0000F011424E96E000E1520EA6E060EEF6E0B
:104B0000DF2AE5D7FE0EDB50150DF3CF14F0F4CFFE
:104B100015F0570E14260B0E1522FD0EDB50060F56
:104B20000F011424E96E000E1520EA6E030EEF6EDD
:104B3000070EDF6EDF50090817E3FE0EDB50150D80
:104B4000F3CF14F0F4CF15F0570E14260B0E1522E8
:104B5000FD0EDB50DF241424E96E000E1520EA6EF2
:104B6000200EEF6EDF2AE6D7BBEF2AF0DF6ADF50B8
:104B7000050818E3FE0EDB50150DF3CF14F0F4CF4B
:104B800015F0570E14260B0E1522FD0EDB50DF24F8
:104B90000F011424E96E000E1520EA6E060EEF6E6A
:104BA000DF2AE5D7FE0EDB50150DF3CF14F0F4CF5E
:104BB00015F0570E14260B0E1522FD0EDB50060FB6
:104BC0000F011424E96E000E1520EA6E040EEF6E3C
:104BD000070EDF6EDF50090817E3FE0EDB50150DE0
:104BE000F3CF14F0F4CF15F0570E14260B0E152248
:104BF000FD0EDB50DF241424E96E000E1520EA6E52
:104C0000200EEF6EDF2AE6D7BBEF2AF0DF6ADF5017
:104C1000050818E3FE0EDB50150DF3CF14F0F4CFAA
:104C200015F0570E14260B0E1522FD0EDB50DF2457
:104C30000F011424E96E000E1520EA6E060EEF6EC9
:104C4000DF2AE5D7FE0EDB50150DF3CF14F0F4CFBD
:104C500015F0570E14260B0E1522FD0EDB50060F15
:104C60000F011424E96E000E1520EA6E050EEF6E9A
:104C7000070EDF6EDF50090817E3FE0EDB50150D3F
:104C8000F3CF14F0F4CF15F0570E14260B0E1522A7
:104C9000FD0EDB50DF241424E96E000E1520EA6EB1
:104CA000200EEF6EDF2AE6D7BBEF2AF0DF6ADF5077
:104CB000050818E3FE0EDB50150DF3CF14F0F4CF0A
:104CC00015F0570E14260B0E1522FD0EDB50DF24B7
:104CD0000F011424E96E000E1520EA6E060EEF6E29
:104CE000DF2AE5D7FE0EDB50150DF3CF14F0F4CF1D
:104CF00015F0570E14260B0E1522FD0EDB50060F75
:104D00000F011424E96E000E1520EA6E060EEF6EF8
:104D1000070EDF6EDF50090817E3FE0EDB50150D9E
:104D2000F3CF14F0F4CF15F0570E14260B0E152206
:104D3000FD0EDB50DF241424E96E000E1520EA6E10
:104D4000200EEF6EDF2AE6D7BBEF2AF0DF6ADF50D6
:104D5000060818E3FE0EDB50150DF3CF14F0F4CF68
:104D600015F0570E14260B0E1522FD0EDB50DF2416
:104D70000F011424E96E000E1520EA6E060EEF6E88
:104D8000DF2AE5D7FE0EDB50150DF3CF14F0F4CF7C
:104D900015F0570E14260B0E1522FD0EDB50070FD3
:104DA0000F011424E96E000E1520EA6E020EEF6E5C
:104DB000080EDF6EDF50090817E3FE0EDB50150DFD
:104DC000F3CF14F0F4CF15F0570E14260B0E152266
:104DD000FD0EDB50DF241424E96E000E1520EA6E70
:104DE000200EEF6EDF2AE6D7C6D3DF6ADF50060853
:104DF00018E3FE0EDB50150DF3CF14F0F4CF15F0D1
:104E0000570E14260B0E1522FD0EDB50DF240F016A
:104E10001424E96E000E1520EA6E060EEF6EDF2AEE
:104E2000E5D7FE0EDB50150DF3CF14F0F4CF15F0DF
:104E3000570E14260B0E1522FD0EDB50070F0F0127
:104E40001424E96E000E1520EA6E030EEF6E080EB4
:104E5000DF6EDF50090817E3FE0EDB50150DF3CFB0
:104E600014F0F4CF15F0570E14260B0E1522FD0E7C
:104E7000DB50DF241424E96E000E1520EA6E200EAC
:104E8000EF6EDF2AE6D777D3DF6ADF50060818E334
:104E9000FE0EDB50150DF3CF14F0F4CF15F0570EC6
:104EA00014260B0E1522FD0EDB50DF240F011424F7
:104EB000E96E000E1520EA6E060EEF6EDF2AE5D7CA
:104EC000FE0EDB50150DF3CF14F0F4CF15F0570E96
:104ED00014260B0E1522FD0EDB50070F0F011424B4
:104EE000E96E000E1520EA6E040EEF6E080EDF6EFE
:104EF000DF50090817E3FE0EDB50150DF3CF14F059
:104F0000F4CF15F0570E14260B0E1522FD0EDB50B4
:104F1000DF241424E96E000E1520EA6E200EEF6ED9
:104F2000DF2AE6D728D3DF6ADF50060818E3FE0E33
:104F3000DB50150DF3CF14F0F4CF15F0570E1426F7
:104F40000B0E1522FD0EDB50DF240F011424E96E39
:104F5000000E1520EA6E060EEF6EDF2AE5D7FE0E74
:104F6000DB50150DF3CF14F0F4CF15F0570E1426C7
:104F70000B0E1522FD0EDB50070F0F011424E96EF6
:104F8000000E1520EA6E050EEF6E080EDF6EDF5084
:104F9000090817E3FE0EDB50150DF3CF14F0F4CF24
:104FA00015F0570E14260B0E1522FD0EDB50DF24D4
:104FB0001424E96E000E1520EA6E200EEF6EDF2A33
:104FC000E6D7D9D2DF6ADF50060818E3FE0EDB50C1
:104FD000150DF3CF14F0F4CF15F0570E14260B0E69
:104FE0001522FD0EDB50DF240F011424E96E000EA4
:104FF0001520EA6E060EEF6EDF2AE5D7FE0EDB50B7
:10500000150DF3CF14F0F4CF15F0570E14260B0E38
:105010001522FD0EDB50070F0F011424E96E000E60
:105020001520EA6E060EEF6E080EDF6EDF500908DF
:1050300017E3FE0EDB50150DF3CF14F0F4CF15F08F
:10504000570E14260B0E1522FD0EDB50DF24142400
:10505000E96E000E1520EA6E200EEF6EDF2AE6D70D
:105060008AD2DF6ADF50070818E3FE0EDB50150D09
:10507000F3CF14F0F4CF15F0570E14260B0E1522B3
:10508000FD0EDB50DF240F011424E96E000E152005
:10509000EA6E060EEF6EDF2AE5D7FE0EDB50150D29
:1050A000F3CF14F0F4CF15F0570E14260B0E152283
:1050B000FD0EDB50080F0F011424E96E000E1520C1
:1050C000EA6E020EEF6E090EDF6EDF50090817E37D
:1050D000FE0EDB50150DF3CF14F0F4CF15F0570E84
:1050E00014260B0E1522FD0EDB50DF241424E96E6E
:1050F000000E1520EA6E200EEF6EDF2AE6D73BD2B7
:10510000DF6ADF50070818E3FE0EDB50150DF3CF02
:1051100014F0F4CF15F0570E14260B0E1522FD0EC9
:10512000DB50DF240F011424E96E000E1520EA6E17
:10513000060EEF6EDF2AE5D7FE0EDB50150DF3CF1E
:1051400014F0F4CF15F0570E14260B0E1522FD0E99
:10515000DB50080F0F011424E96E000E1520EA6ED3
:10516000030EEF6E090EDF6EDF50090817E3FE0E27
:10517000DB50150DF3CF14F0F4CF15F0570E1426B5
:105180000B0E1522FD0EDB50DF241424E96E000EF9
:105190001520EA6E200EEF6EDF2AE6D7ECD1DF6A2B
:1051A000DF50070818E3FE0EDB50150DF3CF14F0A7
:1051B000F4CF15F0570E14260B0E1522FD0EDB5002
:1051C000DF240F011424E96E000E1520EA6E060E8E
:1051D000EF6EDF2AE5D7FE0EDB50150DF3CF14F08E
:1051E000F4CF15F0570E14260B0E1522FD0EDB50D2
:1051F000080F0F011424E96E000E1520EA6E040E4C
:10520000EF6E090EDF6EDF50090817E3FE0EDB506C
:10521000150DF3CF14F0F4CF15F0570E14260B0E26
:105220001522FD0EDB50DF241424E96E000E15203C
:10523000EA6E200EEF6EDF2AE6D79DD1DF6ADF50DF
:10524000070818E3FE0EDB50150DF3CF14F0F4CF72
:1052500015F0570E14260B0E1522FD0EDB50DF2421
:105260000F011424E96E000E1520EA6E060EEF6E93
:10527000DF2AE5D7FE0EDB50150DF3CF14F0F4CF87
:1052800015F0570E14260B0E1522FD0EDB50080FDD
:105290000F011424E96E000E1520EA6E050EEF6E64
:1052A000090EDF6EDF50090817E3FE0EDB50150D07
:1052B000F3CF14F0F4CF15F0570E14260B0E152271
:1052C000FD0EDB50DF241424E96E000E1520EA6E7B
:1052D000200EEF6EDF2AE6D74ED1DF6ADF500708D7
:1052E00018E3FE0EDB50150DF3CF14F0F4CF15F0DC
:1052F000570E14260B0E1522FD0EDB50DF240F0176
:105300001424E96E000E1520EA6E060EEF6EDF2AF9
:10531000E5D7FE0EDB50150DF3CF14F0F4CF15F0EA
:10532000570E14260B0E1522FD0EDB50080F0F0131
:105330001424E96E000E1520EA6E060EEF6E090EBB
:10534000DF6EDF50090817E3FE0EDB50150DF3CFBB
:1053500014F0F4CF15F0570E14260B0E1522FD0E87
:10536000DB50DF241424E96E000E1520EA6E200EB7
:10537000EF6EDF2AE6D7FFD0DF6ADF50080818E3B8
:10538000FE0EDB50150DF3CF14F0F4CF15F0570ED1
:1053900014260B0E1522FD0EDB50DF240F01142402
:1053A000E96E000E1520EA6E060EEF6EDF2AE5D7D5
:1053B000FE0EDB50150DF3CF14F0F4CF15F0570EA1
:1053C00014260B0E1522FD0EDB50090F0F011424BD
:1053D000E96E000E1520EA6E020EEF6ECCD0DF6A89
:1053E000DF50080818E3FE0EDB50150DF3CF14F064
:1053F000F4CF15F0570E14260B0E1522FD0EDB50C0
:10540000DF240F011424E96E000E1520EA6E060E4B
:10541000EF6EDF2AE5D7FE0EDB50150DF3CF14F04B
:10542000F4CF15F0570E14260B0E1522FD0EDB508F
:10543000090F0F011424E96E000E1520EA6E030E09
:10544000EF6E99D0DF6ADF50080818E3FE0EDB50DC
:10545000150DF3CF14F0F4CF15F0570E14260B0EE4
:105460001522FD0EDB50DF240F011424E96E000E1F
:105470001520EA6E060EEF6EDF2AE5D7FE0EDB5032
:10548000150DF3CF14F0F4CF15F0570E14260B0EB4
:105490001522FD0EDB50090F0F011424E96E000EDA
:1054A0001520EA6E040EEF6E66D0DF6ADF50080842
:1054B00018E3FE0EDB50150DF3CF14F0F4CF15F00A
:1054C000570E14260B0E1522FD0EDB50DF240F01A4
:1054D0001424E96E000E1520EA6E060EEF6EDF2A28
:1054E000E5D7FE0EDB50150DF3CF14F0F4CF15F019
:1054F000570E14260B0E1522FD0EDB50090F0F015F
:105500001424E96E000E1520EA6E050EEF6E33D0FE
:10551000DF6ADF50080818E3FE0EDB50150DF3CFED
:1055200014F0F4CF15F0570E14260B0E1522FD0EB5
:10553000DB50DF240F011424E96E000E1520EA6E03
:10554000060EEF6EDF2AE5D7FE0EDB50150DF3CF0A
:1055500014F0F4CF15F0570E14260B0E1522FD0E85
:10556000DB50090F0F011424E96E000E1520EA6EBE
:10557000060EEF6E00D0E552E552E7CFD9FF1200DC
:10558000D9CFE6FFE1CFD9FFE652FC0EDB50630A2C
:1055900002E11FEF3DF0070A02E11FEF3DF0050AAF
:1055A00002E1DEEF3CF0030A02E1DEEF3CF03D0AEF
:1055B00002E19DEF3CF03F0A02E19DEF3CF03D0A25
:1055C00002E15CEF3CF0030A02E15CEF3CF0050A0B
:1055D00002E11BEF3CF0070A02E11BEF3CF0050A79
:1055E00002E1BEEF3BF0030A02E1BEEF3BF00D0A21
:1055F00002E161EF3BF00F0A02E161EF3BF00D0ABF
:1056000002E105EF3BF0030A02E105EF3BF0050A7A
:1056100002E1A9EF3AF0070A02E1A9EF3AF0050A20
:1056200002E14DEF3AF0030A02E14DEF3AF01D0AB4
:1056300002E1F1EF39F01F0A02E1F1EF39F01D0A42
:1056400002E195EF39F0030A02E195EF39F0050A1E
:1056500002E139EF39F0070A02E139EF39F0050AC2
:1056600002E1DCEF38F0030A02E1DCEF38F00D0A6A
:1056700002E17FEF38F00F0A02E17FEF38F00D0A08
:1056800002E122EF38F0030A02E122EF38F0050AC6
:1056900002E1C5EF37F0070A02E1C5EF37F0050A6E
:1056A00002E167EF37F0030A02E167EF37F07D0AA6
:1056B00002E109EF37F07F0A02E109EF37F07D0AD6
:1056C00002E1ABEF36F0030A02E1ABEF36F0050A78
:1056D00002E14EEF36F0070A02E14EEF36F0050A1E
:1056E00002E1F0EF35F0030A02E1F0EF35F00D0AC8
:1056F00002E192EF35F00F0A02E192EF35F00D0A68
:1057000002E134EF35F0030A02E134EF35F0050A27
:1057100002E1D7EF34F0070A02E1D7EF34F0050ACF
:1057200002E17BEF34F0030A02E17BEF34F01D0A63
:1057300002E11FEF34F01F0A02E11FEF34F01D0AEF
:1057400002E1C2EF33F0030A02E1C2EF33F0050ACF
:1057500002E165EF33F0070A02E165EF33F0050A75
:1057600002E108EF33F0030A02E108EF33F00D0A1B
:1057700002E1ABEF32F00F0A02E1ABEF32F00D0ABB
:1057800002E14EEF32F0030A02E14EEF32F0050A79
:1057900002E1F3EF31F0070A02E1F3EF31F0050A1D
:1057A00002E197EF31F0030A02E197EF31F03D0A91
:1057B00002E13BEF31F03F0A02E13BEF31F03D0AFD
:1057C00002E1DFEF30F0030A02E1DFEF30F0050A1B
:1057D00002E183EF30F0070A02E183EF30F0050ABF
:1057E00002E127EF30F0030A02E127EF30F00D0A63
:1057F00001E1D2D30F0A01E1CFD30D0A01E170D349
:10580000030A01E16DD3050A01E10FD3070A01E1A3
:105810000CD3050A01E1ADD2030A01E1AAD21D0AA7
:1058200001E14BD21F0A01E148D21D0A01E1E9D191
:10583000030A01E1E6D1050A01E188D1070A01E185
:1058400085D1050A01E142D1030A01E13FD10D0AE8
:1058500001E1FCD00F0A01E1F9D00D0A01E1B8D055
:10586000030A01E1B5D0050A73E0070A71E0050AF1
:105870002FE0030A2DE0020A02E060EF3DF009018B
:10588000006B016B0B01200E676F686F300E696F44
:10589000730E6A6FDF6ADF50090818E3FE0EDB50F3
:1058A000150DF3CF14F0F4CF15F0570E14260B0E90
:1058B0001522FD0EDB50DF240F011424E96E000ECB
:1058C0001520EA6E200EEF6EDF2AE5D760EF3DF07F
:1058D000010E0901006F016B0B01300E676F2E0E78
:1058E000686F310E696F730E6A6FFE0EDB50150D17
:1058F000F3CF14F0F4CF15F0570E14260B0E15222B
:10590000FD0EDB500F011424E96E000E1520EA6E27
:10591000020EEF6E010EDF6EDF50090817E3FE0E78
:10592000DB50150DF3CF14F0F4CF15F0570E1426FD
:105930000B0E1522FD0EDB50DF241424E96E000E41
:105940001520EA6E200EEF6EDF2AE6D760EF3DF0FD
:10595000020E0901006F016B0B01300E676F2E0EF6
:10596000686F320E696F730E6A6FFE0EDB50150D95
:10597000F3CF14F0F4CF15F0570E14260B0E1522AA
:10598000FD0EDB500F011424E96E000E1520EA6EA7
:10599000030EEF6E010EDF6EDF50090817E3FE0EF7
:1059A000DB50150DF3CF14F0F4CF15F0570E14267D
:1059B0000B0E1522FD0EDB50DF241424E96E000EC1
:1059C0001520EA6E200EEF6EDF2AE6D760EF3DF07D
:1059D000030E0901006F016B0B01300E676F2E0E75
:1059E000686F330E696F730E6A6FFE0EDB50150D14
:1059F000F3CF14F0F4CF15F0570E14260B0E15222A
:105A0000FD0EDB500F011424E96E000E1520EA6E26
:105A1000040EEF6E010EDF6EDF50090817E3FE0E75
:105A2000DB50150DF3CF14F0F4CF15F0570E1426FC
:105A30000B0E1522FD0EDB50DF241424E96E000E40
:105A40001520EA6E200EEF6EDF2AE6D7040E09015C
:105A5000006F016B0B01300E676F2E0E686F340EF6
:105A6000696F730E6A6FFE0EDB50150DF3CF14F0E5
:105A7000F4CF15F0570E14260B0E1522FD0EDB5039
:105A80000F011424E96E000E1520EA6E050EEF6E6C
:105A9000010EDF6EDF50090817E3FE0EDB50150D17
:105AA000F3CF14F0F4CF15F0570E14260B0E152279
:105AB000FD0EDB50DF241424E96E000E1520EA6E83
:105AC000200EEF6EDF2AE6D760EF3DF0050E0901EC
