:020000040000FA
:0600000041EF2EF012009A
:020006001200E6
:04000800EBEF01F029
:04001800F4EF01F010
:04001C000200B65DCB
:100020000000600000008F000000B35C00000009C9
:06003000000003010000C6
:0A0036000E01F90E026F7D0E036F3C
:100040000469380E056F010E016F44D853D870D87B
:10005000D4D8DCD8A8D9030EE66E6FEC20F0E552B8
:100060000901AF51050A2BE0010A21E0070A17E058
:10007000010A10E0030A03E0010EAF6F29D0E66A1F
:10008000E66A030EE66E42DAE552E552E5520901F0
:10009000AF2B1ED09CEC1DF00901AF2B19D0030E25
:1000A000E66EE1EC24F0E5520901AF2B11D0040E0D
:1000B000E66EE1EC24F0E5520901AF2B09D0030E06
:1000C000E66EA0EC28F0E5520901010EAF6F00D0FA
:1000D000C2D71200D39E8F0ED3147009D36EFC0EBC
:1000E000D3140009D36E9B9E9B8CC00E9B140209F7
:1000F0009B6E12000F01030E256F246B236B806A29
:10010000040E816E826E836A846A856A866A876A53
:10011000886A3F0E926E3E0E936ED30E946E956A71
:10012000966A976A986A996AF00E9A6EF18E120032
:10013000F28EF28CD08ED59AD598D596F80ED5142D
:100140000209D56ED59CF28AF19402CED7FF03CE78
:10015000D6FFF294D59E0E01066BAA9E3F0ECD14DB
:100160000009CD6ECF0ECD143009CD6ECD96CD8267
:100170009D809F90CF68A00ECE6E9E90CD90076B15
:10018000870ECA147809CA6EFC0ECA140309CA6E17
:100190009D829F92FA0ECB6E9E92CA94B09E3F0EA5
:1001A000B1140009B16ECF0EB1143009B16EB19621
:1001B000B182A082A292A192B1900F01129F139DD1
:1001C000139F1389138B13971383B982D292BA9218
:1001D000630E156FC00E146F13813C9F3D9D3D9FB4
:1001E0003D893D8B3D973D83B986D296BA96630E85
:1001F0003F6FC00E3E6F3D911200C78EC79CC69ADE
:10020000C688F00EC6140209C66E12000901AB6B57
:10021000F00EB36E600EB26EB180006BE66AE66AF5
:10022000010EE66E73D9E552E552E5529E0EE66E7A
:100230005C0EE66E000EE66E030EE66E090EE66ECE
:1002400018EC2EF0006E050EE15E00509E0EE66E7C
:100250005C0EE66E000EE66E180EE66E090EE66E99
:1002600018EC2EF0006E050EE15E00509E0EE66E5C
:100270005C0EE66E000EE66E2D0EE66E090EE66E64
:1002800018EC2EF0006E050EE15E00509E0EE66E3C
:100290005C0EE66E000EE66E420EE66E090EE66E2F
:1002A00018EC2EF0006E050EE15E00500901016BA6
:1002B000026BAB5101E1FDD7380EE66E000EE66E23
:1002C000E66AE66EE66A1BEC1CF0006E050EE15E67
:1002D00000500901AB5101E1FCD7080EE66E000E9B
:1002E000E66EE66AE66EE66A1BEC1CF0006E050E32
:1002F000E15E00500901AB5101E1FCD7010EE66E51
:10030000000EE66EE66AE66EE66A1BEC1CF0006E16
:10031000050EE15E00500901AB5101E1FCD7060E6C
:10032000E66E000EE66EE66AE66EE66A1BEC1CF010
:10033000006E050EE15E00500901AB5101E1FCD7F2
:10034000060EE66E000EE66EE66AE66EE66A1BECE8
:100350001CF0006E050EE15E00500901AB5101E199
:10036000FCD7020EE66E000EE66EE66AE66EE66A00
:100370001BEC1CF0006E050EE15E00500901AB5154
:1003800001E1FCD70C0EE66E000EE66EE66AE66E44
:10039000E66A1BEC1CF0006E050EE15E00507AEC84
:1003A0001AF0CAEF1AF0CF0EC1140009C16EC1963F
:1003B000F80EC1140009C16EC09EC70EC01410090A
:1003C000C06EF80EC0140609C06E830EC214000978
:1003D000C26EC2901200DACFE4FFE2CFDAFFE6523B
:1003E000E552E5CFDAFF1100DACFE4FFE2CFDAFF22
:1003F000E9CFE4FFEACFE4FFF6CFE4FFF7CFE4FF75
:10040000F8CFE4FFF5CFE4FFF3CFE4FFF4CFE4FF50
:10041000FACFE4FFFBCFE4FF00EE05F0020EE804A4
:1004200003E3EECFE4FFFBD700EE00F0050EE80497
:1004300003E3EECFE4FFFBD7E652F2A407D002CEEF
:10044000D7FF03CED6FFF2948CEC20F09EA007D00D
:1004500004CECFFF05CECEFF9E909CEC23F0A1A250
:1004600005D0A1920901010EAB6FB190BAA20BD0D9
:100470000F01630E156FC00E146F0001605100086C
:1004800001E26007BA92BAA60FD00F01630E3F6F68
:10049000C00E3E6F0001EE5105E1010E616F050EC9
:1004A000EE6F01D0EE07BA969EA208D00901AD0703
:1004B000AD5103E1010EAC6FAD6F9E92E55200EEBF
:1004C00004F0050EE80403E3E5CFEDFFFBD700EEF3
:1004D00006F0020EE80403E3E5CFEDFFFBD7E5CF1E
:1004E000FBFFE5CFFAFFE5CFF4FFE5CFF3FFE5CF64
:1004F000F5FFE5CFF8FFE5CFF7FFE5CFF6FFE5CF56
:10050000EAFFE5CFE9FFE5CFDAFF1100D9CFE6FF3B
:10051000E1CFD9FFFE0EDB50030A12E0010A05E02D
:10052000030A01E013D0ADD811D0FC0EDBCFE6FFFB
:10053000FD0EDBCFE6FFCCEC07F0E552E55206D02E
:100540000901AB5101E102D005D800D0E552E7CF57
:10055000D9FF1200140E0901025D1AE10151030ACC
:1005600011E0010A0CE0030A07E0010A02E0016B56
:100570000BD0010E016F08D0020E016F05D0030EE3
:10058000016F02D0016B00D0026B36EC1AF078D00C
:100590000151150DF3CF01F0F4CF02F0030E012647
:1005A000090E022202510F010124E96E000E022001
:1005B000EA6EEFCF00F009010151150DF3CF03F002
:1005C000F4CF04F0570E0326090E042202510F0146
:1005D0000324E96E000E0420EA6EEF50005C4BE04D
:1005E0000901B15105E036EC1AF00901B16B48D0B0
:1005F0000151150DF3CF00F0F4CF01F0570E002696
:10060000090E012202510F010024E96E000E0120A3
:10061000EA6EEF50E66EF2EC1CF0E5520901015172
:10062000150DF3CF02F0F4CF03F0570E0226090E9A
:10063000032202510F010224E96E000E0320EA6E2C
:10064000EF50E66E09010151150DF3CF00F0F4CF24
:1006500001F0030E0026090E012202510F010024B1
:10066000E96E000E0120EA6EE552E750EF6E0901D7
:100670000229026F05D00901022B010EB16F6AD762
:100680001200090100513F0A02E189EF07F0010A57
:1006900002E148EF07F0030A01E1B9D3010A01E1E1
:1006A00075D3160A01E131D3030A01E1EDD2010A43
:1006B00001E1A9D2370A01E165D2010A01E121D2A3
:1006C000040A01E119D2030A01E1D0D10E0A01E1C5
:1006D0008CD1010A01E183D1030A01E13CD1010A75
:1006E00001E1F5D01B0A01E1EDD0010A01E1A6D03C
:1006F000030A01E19ED0010A01E195D0070A01E158
:100700008CD0010A46E00A0A02E0CAEF07F0220E86
:10071000E66E520EE66E000EE66E570EE66E090E9F
:10072000E66E18EC2EF0006E050EE15E0050370EFE
:10073000E66E520EE66E000EE66E6C0EE66E090E6A
:10074000E66E18EC2EF0006E050EE15E00504C0EC9
:10075000E66E520EE66E000EE66E810EE66E090E35
:10076000E66E18EC2EF0006E050EE15E0050610E94
:10077000E66E520EE66E000EE66E960EE66E090E00
:10078000E66E18EC2EF0006E050EE15E0050CAEF2A
:1007900007F0760EE66E520EE66E000EE66E570E0F
:1007A000E66E090EE66E18EC2EF0006E050EE15EA8
:1007B00000508B0EE66E520EE66E000EE66E6C0E6C
:1007C000E66E090EE66E18EC2EF0006E050EE15E88
:1007D0000050A00EE66E520EE66E000EE66E810E22
:1007E000E66E090EE66E18EC2EF0006E050EE15E68
:1007F0000050B50EE66E520EE66E000EE66E960ED8
:10080000E66E090EE66E18EC2EF0006E050EE15E47
:1008100000500901070E596FBDD3070E6E6F200EF1
:10082000596F836FB7D3070E836F200E6E6FA26F61
:10083000B1D3070EA26F200E836FACD3CA0EE66E43
:10084000520EE66E000EE66E570EE66E090EE66E6E
:1008500018EC2EF0006E050EE15E0050DF0EE66E25
:10086000520EE66E000EE66E6C0EE66E090EE66E39
:1008700018EC2EF0006E050EE15E0050F40EE66EF0
:10088000520EE66E000EE66E810EE66E090EE66E04
:1008900018EC2EF0006E050EE15E0050090EE66EBB
:1008A000530EE66E000EE66E960EE66E090EE66ECE
:1008B00018EC2EF0006E050EE15E00500901070EE7
:1008C000596F68D3070EA26F200E596F63D31E0EA7
:1008D000E66E530EE66E000EE66E570EE66E090EDD
:1008E000E66E18EC2EF0006E050EE15E0050330E41
:1008F000E66E530EE66E000EE66E6C0EE66E090EA8
:10090000E66E18EC2EF0006E050EE15E0050480E0B
:10091000E66E530EE66E000EE66E810EE66E090E72
:10092000E66E18EC2EF0006E050EE15E00505D0ED6
:10093000E66E530EE66E000EE66E960EE66E090E3D
:10094000E66E18EC2EF0006E050EE15E0050090117
:10095000070E596F1FD3720EE66E530EE66E000E31
:10096000E66E570EE66E090EE66E18EC2EF0006E7F
:10097000050EE15E0050870EE66E530EE66E000E29
:10098000E66E6C0EE66E090EE66E18EC2EF0006E4A
:10099000050EE15E00509C0EE66E530EE66E000EF4
:1009A000E66E810EE66E090EE66E18EC2EF0006E15
:1009B000050EE15E0050B10EE66E530EE66E000EBF
:1009C000E66E960EE66E090EE66E18EC2EF0006EE0
:1009D000050EE15E00500901070E596FDBD2070ECC
:1009E0006E6F200E596F836FD5D2C60EE66E530E12
:1009F000E66E000EE66E570EE66E090EE66E18EC19
:100A00002EF0006E050EE15E0050DB0EE66E530E1A
:100A1000E66E000EE66E6C0EE66E090EE66E18ECE3
:100A20002EF0006E050EE15E0050F00EE66E530EE5
:100A3000E66E000EE66E810EE66E090EE66E18ECAE
:100A40002EF0006E050EE15E0050050EE66E540EAF
:100A5000E66E000EE66E960EE66E090EE66E18EC79
:100A60002EF0006E050EE15E005094D21A0EE66E76
:100A7000540EE66E000EE66E570EE66E090EE66E3A
:100A800018EC2EF0006E050EE15E00502F0EE66EA3
:100A9000540EE66E000EE66E6C0EE66E090EE66E05
:100AA00018EC2EF0006E050EE15E0050440EE66E6E
:100AB000540EE66E000EE66E810EE66E090EE66ED0
:100AC00018EC2EF0006E050EE15E0050590EE66E39
:100AD000540EE66E000EE66E960EE66E090EE66E9B
:100AE00018EC2EF0006E050EE15E00500901070EB5
:100AF000836F200E986F4ED2070E986F200E836F73
:100B000049D26E0EE66E540EE66E000EE66E570E7D
:100B1000E66E090EE66E18EC2EF0006E050EE15E34
:100B20000050830EE66E540EE66E000EE66E6C0EFE
:100B3000E66E090EE66E18EC2EF0006E050EE15E14
:100B40000050980EE66E540EE66E000EE66E810EB4
:100B5000E66E090EE66E18EC2EF0006E050EE15EF4
:100B60000050AD0EE66E540EE66E000EE66E960E6A
:100B7000E66E090EE66E18EC2EF0006E050EE15ED4
:100B8000005008D2C20EE66E540EE66E000EE66EFF
:100B9000570EE66E090EE66E18EC2EF0006E050E8E
:100BA000E15E0050D70EE66E540EE66E000EE66E65
:100BB0006C0EE66E090EE66E18EC2EF0006E050E59
:100BC000E15E0050EC0EE66E540EE66E000EE66E30
:100BD000810EE66E090EE66E18EC2EF0006E050E24
:100BE000E15E0050010EE66E550EE66E000EE66EFA
:100BF000960EE66E090EE66E18EC2EF0006E050EEF
:100C0000E15E0050C7D1160EE66E550EE66E000E80
:100C1000E66E570EE66E090EE66E18EC2EF0006ECC
:100C2000050EE15E00502B0EE66E550EE66E000ED0
:100C3000E66E6C0EE66E090EE66E18EC2EF0006E97
:100C4000050EE15E0050400EE66E550EE66E000E9B
:100C5000E66E810EE66E090EE66E18EC2EF0006E62
:100C6000050EE15E0050550EE66E550EE66E000E66
:100C7000E66E960EE66E090EE66E18EC2EF0006E2D
:100C8000050EE15E005086D16A0EE66E550EE66EE8
:100C9000000EE66E570EE66E090EE66E18EC2EF0AC
:100CA000006E050EE15E00507F0EE66E550EE66E9C
:100CB000000EE66E6C0EE66E090EE66E18EC2EF077
:100CC000006E050EE15E0050940EE66E550EE66E67
:100CD000000EE66E810EE66E090EE66E18EC2EF042
:100CE000006E050EE15E0050A90EE66E550EE66E32
:100CF000000EE66E960EE66E090EE66E18EC2EF00D
:100D0000006E050EE15E005045D1BE0EE66E550E3A
:100D1000E66E000EE66E570EE66E090EE66E18ECF5
:100D20002EF0006E050EE15E0050D30EE66E550EFD
:100D3000E66E000EE66E6C0EE66E090EE66E18ECC0
:100D40002EF0006E050EE15E0050E80EE66E550EC8
:100D5000E66E000EE66E810EE66E090EE66E18EC8B
:100D60002EF0006E050EE15E0050FD0EE66E550E93
:100D7000E66E000EE66E960EE66E090EE66E18EC56
:100D80002EF0006E050EE15E005004D1120EE66EEC
:100D9000560EE66E000EE66E570EE66E090EE66E15
:100DA00018EC2EF0006E050EE15E0050270EE66E88
:100DB000560EE66E000EE66E6C0EE66E090EE66EE0
:100DC00018EC2EF0006E050EE15E00503C0EE66E53
:100DD000560EE66E000EE66E810EE66E090EE66EAB
:100DE00018EC2EF0006E050EE15E0050510EE66E1E
:100DF000560EE66E000EE66E960EE66E090EE66E76
:100E000018EC2EF0006E050EE15E0050C3D0660EA9
:100E1000E66E560EE66E000EE66E570EE66E090E94
:100E2000E66E18EC2EF0006E050EE15E00507B0EB3
:100E3000E66E560EE66E000EE66E6C0EE66E090E5F
:100E4000E66E18EC2EF0006E050EE15E0050900E7E
:100E5000E66E560EE66E000EE66E810EE66E090E2A
:100E6000E66E18EC2EF0006E050EE15E0050A50E49
:100E7000E66E560EE66E000EE66E960EE66E090EF5
:100E8000E66E18EC2EF0006E050EE15E005082D08A
:100E9000BA0EE66E560EE66E000EE66E570EE66E63
:100EA000090EE66E18EC2EF0006E050EE15E0050A5
:100EB000CF0EE66E560EE66E000EE66E6C0EE66E19
:100EC000090EE66E18EC2EF0006E050EE15E005085
:100ED000E40EE66E560EE66E000EE66E810EE66ECF
:100EE000090EE66E18EC2EF0006E050EE15E005065
:100EF000F90EE66E560EE66E000EE66E960EE66E85
:100F0000090EE66E18EC2EF0006E050EE15E005044
:100F100041D00E0EE66E570EE66E000EE66E570ED0
:100F2000E66E090EE66E18EC2EF0006E050EE15E20
:100F30000050230EE66E570EE66E000EE66E6C0E47
:100F4000E66E090EE66E18EC2EF0006E050EE15E00
:100F50000050380EE66E570EE66E000EE66E810EFD
:100F6000E66E090EE66E18EC2EF0006E050EE15EE0
:100F700000504D0EE66E570EE66E000EE66E960EB3
:100F8000E66E090EE66E18EC2EF0006E050EE15EC0
:100F9000005000D000D01200D9CFE6FFE1CFD9FF3A
:100FA00009010051170A02E032EF1AF0FE0EDB04CD
:100FB0001DE1620EE66E570EE66E000EE66E6C0EDA
:100FC000E66E090EE66E18EC2EF0006E050EE15E80
:100FD00000500001626B636B0901200E676F686F40
:100FE000300E696F730E6A6FDCEF11F0FE0EDB508E
:100FF000010827E2050EF36EFE0EDBCFF4FFF3507F
:10100000F45C1FE2770EE66E570EE66E000EE66E9B
:101010006C0EE66E090EE66E18EC2EF0006E050EF4
:10102000E15E0050010E0001626F636B0901300E3A
:10103000676F2E0E686F310E696F730E6A6FDCEF8B
:1010400011F0050EF36EFE0EDBCFF4FFF350F45CEF
:1010500027E30A0EF36EFE0EDBCFF4FFF350F45CD1
:101060001FE28C0EE66E570EE66E000EE66E6C0EFC
:10107000E66E090EE66E18EC2EF0006E050EE15ECF
:101080000050020E0001626F636B0901300E676F42
:101090002E0E686F320E696F730E6A6FDCEF11F0FF
:1010A0000A0EF36EFE0EDBCFF4FFF350F45C27E381
:1010B0000F0EF36EFE0EDBCFF4FFF350F45C1FE275
:1010C000A10EE66E570EE66E000EE66E6C0EE66E34
:1010D000090EE66E18EC2EF0006E050EE15E005073
:1010E000030E0001626F636B0901300E676F2E0EF5
:1010F000686F330E696F730E6A6FDCEF11F00F0EBD
:10110000F36EFE0EDBCFF4FFF350F45C27E3140E16
:10111000F36EFE0EDBCFF4FFF350F45C1FE2B60E6D
:10112000E66E570EE66E000EE66E6C0EE66E090E6B
:10113000E66E18EC2EF0006E050EE15E0050040E17
:101140000001626F636B0901300E676F2E0E686FCE
:10115000340E696F730E6A6FDCEF11F0140EF36ECC
:10116000FE0EDBCFF4FFF350F45C27E31A0EF36EB0
:10117000FE0EDBCFF4FFF350F45C1FE2CB0EE66E05
:10118000570EE66E000EE66E6C0EE66E090EE66E0B
:1011900018EC2EF0006E050EE15E0050050E000109
:1011A000626F636B0901300E676F2E0E686F350E2C
:1011B000696F730E6A6FDCEF11F01A0EF36EFE0E9C
:1011C000DBCFF4FFF350F45C27E31F0EF36EFE0E4B
:1011D000DBCFF4FFF350F45C1FE2E00EE66E570E37
:1011E000E66E000EE66E6C0EE66E090EE66E18EC0C
:1011F0002EF0006E050EE15E0050060E0001626FDB
:10120000636B0901300E676F2E0E686F360E696FC3
:10121000730E6A6FDCEF11F01F0EF36EFE0EDBCF64
:10122000F4FFF350F45C27E3240EF36EFE0EDBCFE5
:10123000F4FFF350F45C1FE2F50EE66E570EE66E17
:10124000000EE66E6C0EE66E090EE66E18EC2EF0E1
:10125000006E050EE15E0050070E0001626F636BC9
:101260000901300E676F2E0E686F370E696F730EAF
:101270006A6FDCEF11F0240EF36EFE0EDBCFF4FF8D
:10128000F350F45C27E3290EF36EFE0EDBCFF4FF80
:10129000F350F45C1FE20A0EE66E580EE66E000E86
:1012A000E66E6C0EE66E090EE66E18EC2EF0006E21
:1012B000050EE15E0050080E0001626F636B0901CC
:1012C000300E676F2E0E686F380E696F730E6A6F7F
:1012D000DCEF11F0290EF36EFE0EDBCFF4FFF350BE
:1012E000F45C27E32E0EF36EFE0EDBCFF4FFF3501B
:1012F000F45C1FE21F0EE66E580EE66E000EE66E00
:101300006C0EE66E090EE66E18EC2EF0006E050E01
:10131000E15E0050090E0001626F636B0901300E3F
:10132000676F2E0E686F390E696F730E6A6FDCEF90
:1013300011F02E0EF36EFE0EDBCFF4FFF350F45CD3
:1013400026E3330EF36EFE0EDBCFF4FFF350F45CB6
:101350001EE2340EE66E580EE66E000EE66E6C0E61
:10136000E66E090EE66E18EC2EF0006E050EE15EDC
:1013700000500A0E0001626F636B0901200E676F57
:10138000686F310E696F730E6A6FDCEF11F0330E08
:10139000F36EFE0EDBCFF4FFF350F45C26E3380E61
:1013A000F36EFE0EDBCFF4FFF350F45C1EE2490E49
:1013B000E66E580EE66E000EE66E6C0EE66E090ED8
:1013C000E66E18EC2EF0006E050EE15E0050140E75
:1013D0000001626F636B0901200E676F686F320E48
:1013E000696F730E6A6FDCEF11F0380EF36EFE0E4C
:1013F000DBCFF4FFF350F45C26E33D0EF36EFE0EFC
:10140000DBCFF4FFF350F45C1EE25E0EE66E580E86
:10141000E66E000EE66E6C0EE66E090EE66E18ECD9
:101420002EF0006E050EE15E00501E0E0001626F90
:10143000636B0901200E676F686F330E696F730E5F
:101440006A6FDCEF11F03D0EF36EFE0EDBCFF4FFA2
:10145000F350F45C26E3420EF36EFE0EDBCFF4FF96
:10146000F350F45C1EE2730EE66E580EE66E000E4C
:10147000E66E6C0EE66E090EE66E18EC2EF0006E4F
:10148000050EE15E0050280E0001626F636B0901DA
:10149000200E676F686F340E696F730E6A6FDCEF32
:1014A00011F0420EF36EFE0EDBCFF4FFF350F45C4E
:1014B00026E3470EF36EFE0EDBCFF4FFF350F45C31
:1014C0001EE2880EE66E580EE66E000EE66E6C0E9C
:1014D000E66E090EE66E18EC2EF0006E050EE15E6B
:1014E0000050320E0001626F636B0901200E676FBE
:1014F000686F350E696F730E6A6FDCEF11F0470E7F
:10150000F36EFE0EDBCFF4FFF350F45C26E34D0EDA
:10151000F36EFE0EDBCFF4FFF350F45C1EE29D0E83
:10152000E66E580EE66E000EE66E6C0EE66E090E66
:10153000E66E18EC2EF0006E050EE15E00503C0EDB
:101540000001626F636B0901200E676F686F360ED2
:10155000696F730E6A6FDCEF11F04D0EF36EFE0EC5
:10156000DBCFF4FFF350F45C26E3520EF36EFE0E75
:10157000DBCFF4FFF350F45C1EE2B20EE66E580EC1
:10158000E66E000EE66E6C0EE66E090EE66E18EC68
:101590002EF0006E050EE15E0050460E0001626FF7
:1015A000636B0901200E676F686F370E696F730EEA
:1015B0006A6FDCEF11F0520EF36EFE0EDBCFF4FF1C
:1015C000F350F45C26E3570EF36EFE0EDBCFF4FF10
:1015D000F350F45C1EE2C70EE66E580EE66E000E87
:1015E000E66E6C0EE66E090EE66E18EC2EF0006EDE
:1015F000050EE15E0050500E0001626F636B090141
:10160000200E676F686F380E696F730E6A6FDCEFBC
:1016100011F0570EF36EFE0EDBCFF4FFF350F45CC7
:1016200026E35C0EF36EFE0EDBCFF4FFF350F45CAA
:101630001EE2DC0EE66E580EE66E000EE66E6C0ED6
:10164000E66E090EE66E18EC2EF0006E050EE15EF9
:1016500000505A0E0001626F636B0901200E676F24
:10166000686F390E696F730E6A6FDCEF11F05C0EF4
:10167000F36EFE0EDBCFF4FFF350F45C27E3610E54
:10168000F36EFE0EDBCFF4FFF350F45C1FE2F10EBD
:10169000E66E580EE66E000EE66E6C0EE66E090EF5
:1016A000E66E18EC2EF0006E050EE15E0050640E42
:1016B0000001626F636B0901200E676F310E686F66
:1016C000300E696F730E6A6FDCEF11F0610EF36E0E
:1016D000FE0EDBCFF4FFF350F45C27E3660EF36EEF
:1016E000FE0EDBCFF4FFF350F45C1FE2060EE66E55
:1016F000590EE66E000EE66E6C0EE66E090EE66E94
:1017000018EC2EF0006E050EE15E0050780E000120
:10171000626F636B0901200E676F310E686F320EC6
:10172000696F730E6A6FDCEF11F0660EF36EFE0EDA
:10173000DBCFF4FFF350F45C27E36B0EF36EFE0E89
:10174000DBCFF4FFF350F45C1FE21B0EE66E590E84
:10175000E66E000EE66E6C0EE66E090EE66E18EC96
:101760002EF0006E050EE15E00508C0E0001626FDF
:10177000636B0901200E676F310E686F340E696F5D
:10178000730E6A6FDCEF11F06B0EF36EFE0EDBCFA3
:10179000F4FFF350F45C27E3700EF36EFE0EDBCF24
:1017A000F4FFF350F45C1FE2300EE66E590EE66E65
:1017B000000EE66E6C0EE66E090EE66E18EC2EF06C
:1017C000006E050EE15E0050A00E0001626F636BBB
:1017D0000901200E676F310E686F360E696F730E48
:1017E0006A6FDCEF11F0700EF36EFE0EDBCFF4FFCC
:1017F000F350F45C27E3750EF36EFE0EDBCFF4FFBF
:10180000F350F45C1FE2450EE66E590EE66E000ED4
:10181000E66E6C0EE66E090EE66E18EC2EF0006EAB
:10182000050EE15E0050B40E0001626F636B0901AA
:10183000200E676F310E686F380E696F730E6A6F16
:10184000DCEF11F0750EF36EFE0EDBCFF4FFF350FC
:10185000F45C27E37A0EF36EFE0EDBCFF4FFF35059
:10186000F45C1FE25A0EE66E590EE66E000EE66E4E
:101870006C0EE66E090EE66E18EC2EF0006E050E8C
:10188000E15E0050C80E0001626F636B0901200E1B
:10189000676F320E686F300E696F730E6A6FDCEF20
:1018A00011F07A0EF36EFE0EDBCFF4FFF350F45C12
:1018B0002AE3FE0EDB50006E016AD890015004E668
:1018C000800E005C000E01581EE26F0EE66E590E8F
:1018D000E66E000EE66E6C0EE66E090EE66E18EC15
:1018E0002EF0006E050EE15E0050DC0E0001626F0E
:1018F000636B0901200E676F320E686F696F730E9C
:101900006A6FDCEF11F0FE0EDB50006E016AD890BA
:10191000015004E6800E005C000E01582BE3FE0E21
:10192000DB50026E036AD890035004E6850E025C19
:10193000000E03581FE2840EE66E590EE66E000E8E
:10194000E66E6C0EE66E090EE66E18EC2EF0006E7A
:10195000050EE15E0050F00E0001626F636B09013D
:10196000200E676F320E686F340E696F730E6A6FE8
:10197000DCEF11F0FE0EDB50006E016AD8900150D2
:1019800004E6850E005C000E01582CE3FE0EDB50D1
:10199000026E036AD890035004E68A0E025C000EC1
:1019A000035820E2990EE66E590EE66E000EE66EC2
:1019B0006C0EE66E090EE66E18EC2EF0006E050E4B
:1019C000E15E00500001040E626F010E636F0901B9
:1019D000200E676F320E686F360E696F730E6A6F76
:1019E000DCEF11F0FE0EDB50006E016AD890015062
:1019F00004E68A0E005C000E01582CE3FE0EDB505C
:101A0000026E036AD890035004E68F0E025C000E4B
:101A1000035820E2AE0EE66E590EE66E000EE66E3C
:101A20006C0EE66E090EE66E18EC2EF0006E050EDA
:101A3000E15E00500001180E626F010E636F090134
:101A4000200E676F320E686F380E696F730E6A6F03
:101A5000DCEF11F0FE0EDB50006E016AD8900150F1
:101A600004E68F0E005C000E01582CE3FE0EDB50E6
:101A7000026E036AD890035004E6940E025C000ED6
:101A8000035820E2C30EE66E590EE66E000EE66EB7
:101A90006C0EE66E090EE66E18EC2EF0006E050E6A
:101AA000E15E005000012C0E626F010E636F0901B0
:101AB000200E676F330E686F300E696F730E6A6F9A
:101AC000DCEF11F0FE0EDB50006E016AD890015081
:101AD00004E6940E005C000E01582CE3FE0EDB5071
:101AE000026E036AD890035004E6990E025C000E61
:101AF000035820E2D80EE66E590EE66E000EE66E32
:101B00006C0EE66E090EE66E18EC2EF0006E050EF9
:101B1000E15E005000015E0E626F010E636F09010D
:101B2000200E676F330E686F350E696F730E6A6F24
:101B3000DCEF11F0FE0EDB50006E016AD890015010
:101B400004E6990E005C000E01582CE3FE0EDB50FB
:101B5000026E036AD890035004E69E0E025C000EEB
:101B6000035820E2ED0EE66E590EE66E000EE66EAC
:101B70006C0EE66E090EE66E18EC2EF0006E050E89
:101B8000E15E00500001900E626F010E636F09016B
:101B9000200E676F340E686F300E696F730E6A6FB8
:101BA000DCEF11F0FE0EDB50006E016AD8900150A0
:101BB00004E69E0E005C000E01582BE3FE0EDB5087
:101BC000026E036AD890035004E6A30E025C000E76
:101BD00003581FE2020EE66E5A0EE66E000EE66E27
:101BE0006C0EE66E090EE66E18EC2EF0006E050E19
:101BF000E15E00500001C20E626F010E636F0901C9
:101C0000200E676F340E686F350E696F730E6A6F42
:101C1000D3D3FE0EDB50006E016AD890015004E66B
:101C2000A30E005C000E01582BE3FE0EDB50026E8B
:101C3000036AD890035004E6A80E025C000E035815
:101C40001FE2170EE66E5A0EE66E000EE66E6C0E82
:101C5000E66E090EE66E18EC2EF0006E050EE15EE3
:101C600000500001F40E626F010E636F0901200E37
:101C7000676F350E686F300E696F730E6A6F9CD395
:101C8000FE0EDB50006E016AD890015004E6A80EEB
:101C9000005C000E01582AE3FE0EDB50026E036A60
:101CA000D890035004E6AD0E025C000E03581EE20D
:101CB0002C0EE66E5A0EE66E000EE66E6C0EE66EAA
:101CC000090EE66E18EC2EF0006E050EE15E005077
:101CD0000001260E626F020E636F0901200E676F0E
:101CE000350E686F696F730E6A6F66D3FE0EDB5038
:101CF000006E016AD890015004E6AD0E005C000E43
:101D000001582AE3FE0EDB50026E036AD89003509E
:101D100004E6B30E025C000E03581EE2410EE66EAE
:101D20005A0EE66E000EE66E6C0EE66E090EE66E5C
:101D300018EC2EF0006E050EE15E00500001580E0A
:101D4000626F020E636F0901200E676F686F310EBC
:101D5000696F6D0E6A6F30D3FE0EDB50006E016A44
:101D6000D890015004E6B30E005C000E01582AE33F
:101D7000FE0EDB50026E036AD890035004E6B80EE4
:101D8000025C000E03581EE2560EE66E5A0EE66E18
:101D9000000EE66E6C0EE66E090EE66E18EC2EF086
:101DA000006E050EE15E00500001B00E626F040E81
:101DB000636F0901200E676F686F320E696F6D0ED9
:101DC0006A6FFAD2FE0EDB50006E016AD8900150A5
:101DD00004E6B80E005C000E01582AE3FE0EDB504C
:101DE000026E036AD890035004E6BD0E025C000E3A
:101DF00003581EE26B0EE66E5A0EE66E000EE66E9D
:101E00006C0EE66E090EE66E18EC2EF0006E050EF6
:101E1000E15E00500001080E626F070E636F09015A
:101E2000200E676F686F330E696F6D0E6A6FC4D2D4
:101E3000FE0EDB50006E016AD890015004E6BD0E24
:101E4000005C000E01582AE3FE0EDB50026E036AAE
:101E5000D890035004E6C20E025C000E03581EE246
:101E6000800EE66E5A0EE66E000EE66E6C0EE66EA4
:101E7000090EE66E18EC2EF0006E050EE15E0050C5
:101E80000001600E626F090E636F0901200E676F1B
:101E9000686F340E696F6D0E6A6F8ED2FE0EDB5066
:101EA000006E016AD890015004E6C20E005C000E7C
:101EB00001582AE3FE0EDB50026E036AD8900350ED
:101EC00004E6C70E025C000E03581EE2950EE66E95
:101ED0005A0EE66E000EE66E6C0EE66E090EE66EAB
:101EE00018EC2EF0006E050EE15E00500001B80EF9
:101EF000626F0B0E636F0901200E676F686F350EFE
:101F0000696F6D0E6A6F58D2FE0EDB50006E016A6B
:101F1000D890015004E6C70E005C000E01582AE379
:101F2000FE0EDB50026E036AD890035004E6CC0E1E
:101F3000025C000E03581EE2AA0EE66E5A0EE66E12
:101F4000000EE66E6C0EE66E090EE66E18EC2EF0D4
:101F5000006E050EE15E00500001100E626F0E0E65
:101F6000636F0901200E676F686F360E696F6D0E23
:101F70006A6F22D2FE0EDB50006E016AD8900150CB
:101F800004E6CC0E005C000E01582AE3FE0EDB5086
:101F9000026E036AD890035004E6D10E025C000E74
:101FA00003581EE2BF0EE66E5A0EE66E000EE66E97
:101FB0006C0EE66E090EE66E18EC2EF0006E050E45
:101FC000E15E00500001680E626F100E636F090140
:101FD000200E676F686F370E696F6D0E6A6FECD1F8
:101FE000FE0EDB50006E016AD890015004E6D10E5F
:101FF000005C000E01582AE3FE0EDB50026E036AFD
:10200000D890035004E6D60E025C000E03581EE280
:10201000D40EE66E5A0EE66E000EE66E6C0EE66E9E
:10202000090EE66E18EC2EF0006E050EE15E005013
:102030000001C00E626F120E636F0901200E676F00
:10204000686F380E696F6D0E6A6FB6D1FE0EDB5089
:10205000006E016AD890015004E6D60E005C000EB6
:1020600001582AE3FE0EDB50026E036AD89003503B
:1020700004E6DB0E025C000E03581EE2E90EE66E7B
:102080005A0EE66E000EE66E6C0EE66E090EE66EF9
:1020900018EC2EF0006E050EE15E00500001180EE7
:1020A000626F150E636F0901200E676F686F390E3E
:1020B000696F6D0E6A6F80D1FE0EDB50006E016A93
:1020C000D890015004E6DB0E005C000E01582BE3B3
:1020D000FE0EDB50026E036AD890035004E6E00E59
:1020E000025C000E03581FE2FE0EE66E5A0EE66E0C
:1020F000000EE66E6C0EE66E090EE66E18EC2EF023
:10210000006E050EE15E00500001700E626F170E4A
:10211000636F0901200E676F310E686F300E696FB3
:102120006D0E6A6F49D1FE0EDB50006E016AD890C9
:10213000015004E6E00E005C000E01582BE3FE0E99
:10214000DB50026E036AD890035004E6E60E025C90
:10215000000E03581FE2130EE66E5B0EE66E000ED5
:10216000E66E6C0EE66E090EE66E18EC2EF0006E52
:10217000050EE15E00500001280E626F230E636FB2
:102180000901200E676F310E686F350E696F6D0E95
:102190006A6F12D1FE0EDB50006E016AD8900150BA
:1021A00004E6E60E005C000E01582BE3FE0EDB5049
:1021B000026E036AD890035004E6EB0E025C000E38
:1021C00003581FE2280EE66E5B0EE66E000EE66E0A
:1021D0006C0EE66E090EE66E18EC2EF0006E050E23
:1021E000E15E00500001E00E626F2E0E636F090188
:1021F000200E676F320E686F300E696F6D0E6A6F5A
:10220000DBD0FE0EDB50006E016AD890015004E670
:10221000EB0E005C000E01582BE3FE0EDB50026E4D
:10222000036AD890035004E6F00E025C000E0358D7
:102230001FE23D0EE66E5B0EE66E000EE66E6C0E65
:10224000E66E090EE66E18EC2EF0006E050EE15EED
:1022500000500001980E626F3A0E636F0901200E64
:10226000676F320E686F350E696F6D0E6A6FA4D09E
:10227000FE0EDB50006E016AD890015004E6F00EAD
:10228000005C000E01582BE3FE0EDB50026E036A69
:10229000D890035004E6F50E025C000E03581FE2CE
:1022A000520EE66E5B0EE66E000EE66E6C0EE66E8D
:1022B000090EE66E18EC2EF0006E050EE15E005081
:1022C0000001500E626F460E636F0901200E676FAA
:1022D000330E686F300E696F6D0E6A6F6DD0FE0E33
:1022E000DB50006E016AD890015004E6F50E005CE8
:1022F000000E01582BE3FE0EDB50026E036AD890ED
:10230000035004E6FA0E025C000E03581FE2670E4B
:10231000E66E5B0EE66E000EE66E6C0EE66E090E65
:10232000E66E18EC2EF0006E050EE15E0050000126
:10233000780E626F690E636F0901200E676F340EAD
:10234000686F350E696F6D0E6A6F36D0FE0EDB500A
:10235000006E016AD890015004E6FA0E005C000E8F
:1023600001582AE3FE0EDB50026E036AD890035038
:1023700004E6FF0E025C000E03581EE27C0EE66EC1
:102380005B0EE66E000EE66E6C0EE66E090EE66EF5
:1023900018EC2EF0006E050EE15E00500001A00E5C
:1023A000626F8C0E636F0901200E676F310E686FCC
:1023B000680E696F720E6A6FFD0EDB0415E1620E26
:1023C000E66E570EE66E000EE66E960EE66E090E8F
:1023D000E66E18EC2EF0006E050EE15E0050000176
:1023E000E86BE96B31EF1AF0FD0EDB5001081EE2DD
:1023F000050EF36EFD0EDBCFF4FFF350F45C16E236
:10240000770EE66E570EE66E000EE66E960EE66EE0
:10241000090EE66E18EC2EF0006E050EE15E00501F
:102420000001010EE86FE96B31EF1AF0050EF36E53
:10243000FD0EDBCFF4FFF350F45C1EE30A0EF36EE7
:10244000FD0EDBCFF4FFF350F45C16E28C0EE66E6B
:10245000570EE66E000EE66E960EE66E090EE66EFE
:1024600018EC2EF0006E050EE15E00500001020E29
:10247000E86FE96B31EF1AF00A0EF36EFD0EDBCF59
:10248000F4FFF350F45C1EE30F0EF36EFD0EDBCF92
:10249000F4FFF350F45C16E2A10EE66E570EE66E02
:1024A000000EE66E960EE66E090EE66E18EC2EF045
:1024B000006E050EE15E00500001030EE86FE96B4F
:1024C00031EF1AF00F0EF36EFD0EDBCFF4FFF35079
:1024D000F45C1EE3140EF36EFD0EDBCFF4FFF3503D
:1024E000F45C16E2B60EE66E570EE66E000EE66E71
:1024F000960EE66E090EE66E18EC2EF0006E050ED6
:10250000E15E00500001040EE86FE96B31EF1AF054
:10251000140EF36EFD0EDBCFF4FFF350F45C1EE3FC
:102520001A0EF36EFD0EDBCFF4FFF350F45C16E2EF
:10253000CB0EE66E570EE66E000EE66E960EE66E5B
:10254000090EE66E18EC2EF0006E050EE15E0050EE
:102550000001050EE86FE96B31EF1AF01A0EF36E09
:10256000FD0EDBCFF4FFF350F45C1EE31F0EF36EA1
:10257000FD0EDBCFF4FFF350F45C16E2E00EE66EE6
:10258000570EE66E000EE66E960EE66E090EE66ECD
:1025900018EC2EF0006E050EE15E00500001060EF4
:1025A000E86FE96B31EF1AF01F0EF36EFD0EDBCF13
:1025B000F4FFF350F45C1EE3240EF36EFD0EDBCF4C
:1025C000F4FFF350F45C16E2F50EE66E570EE66E7D
:1025D000000EE66E960EE66E090EE66E18EC2EF014
:1025E000006E050EE15E00500001070EE86FE96B1A
:1025F00031EF1AF0240EF36EFD0EDBCFF4FFF35033
:10260000F45C1EE3290EF36EFD0EDBCFF4FFF350F6
:10261000F45C16E20A0EE66E580EE66E000EE66EEA
:10262000960EE66E090EE66E18EC2EF0006E050EA4
:10263000E15E00500001080EE86FE96B31EF1AF01F
:10264000290EF36EFD0EDBCFF4FFF350F45C1EE3B6
:102650002E0EF36EFD0EDBCFF4FFF350F45C16E2AA
:102660001F0EE66E580EE66E000EE66E960EE66ED5
:10267000090EE66E18EC2EF0006E050EE15E0050BD
:102680000001090EE86FE96B31EF1AF02E0EF36EC0
:10269000FD0EDBCFF4FFF350F45C1EE3330EF36E5C
:1026A000FD0EDBCFF4FFF350F45C16E2340EE66E61
:1026B000580EE66E000EE66E960EE66E090EE66E9B
:1026C00018EC2EF0006E050EE15E005000010A0EBF
:1026D000E86FE96B31EF1AF0330EF36EFD0EDBCFCE
:1026E000F4FFF350F45C1FE3380EF36EFD0EDBCF06
:1026F000F4FFF350F45C17E2490EE66E580EE66EF6
:10270000000EE66E960EE66E090EE66E18EC2EF0E2
:10271000006E050EE15E005000010C0EE86F010E28
:10272000E96F31EF1AF0380EF36EFD0EDBCFF4FFD8
:10273000F350F45C1FE33D0EF36EFD0EDBCFF4FFB0
:10274000F350F45C17E25E0EE66E580EE66E000E75
:10275000E66E960EE66E090EE66E18EC2EF0006E32
:10276000050EE15E005000010E0EE86F020EE96FEB
:1027700031EF1AF03D0EF36EFD0EDBCFF4FFF35098
:10278000F45C1FE3420EF36EFD0EDBCFF4FFF3505B
:10279000F45C17E2730EE66E580EE66E000EE66EFF
:1027A000960EE66E090EE66E18EC2EF0006E050E23
:1027B000E15E00500001100EE86F030EE96F31EF8B
:1027C0001AF0420EF36EFD0EDBCFF4FFF350F45C13
:1027D0001FE3470EF36EFD0EDBCFF4FFF350F45C06
:1027E00017E2880EE66E580EE66E000EE66E960E46
:1027F000E66E090EE66E18EC2EF0006E050EE15E38
:1028000000500001120EE86F040EE96F31EF1AF06C
:10281000470EF36EFD0EDBCFF4FFF350F45C1FE3C5
:102820004D0EF36EFD0EDBCFF4FFF350F45C17E2B8
:102830009D0EE66E580EE66E000EE66E960EE66E85
:10284000090EE66E18EC2EF0006E050EE15E0050EB
:102850000001140EE86F050EE96F31EF1AF04D0E0E
:10286000F36EFD0EDBCFF4FFF350F45C1FE3520E6A
:10287000F36EFD0EDBCFF4FFF350F45C17E2B20E03
:10288000E66E580EE66E000EE66E960EE66E090EC9
:10289000E66E18EC2EF0006E050EE15E00500001B1
:1028A000160EE86F060EE96F31EF1AF0520EF36E56
:1028B000FD0EDBCFF4FFF350F45C1FE3570EF36E15
:1028C000FD0EDBCFF4FFF350F45C17E2C70EE66EAB
:1028D000580EE66E000EE66E960EE66E090EE66E79
:1028E00018EC2EF0006E050EE15E00500001180E8F
:1028F000E86F070EE96F31EF1AF0570EF36EFD0E19
:10290000DBCFF4FFF350F45C1FE35C0EF36EFD0EBF
:10291000DBCFF4FFF350F45C17E2DC0EE66E580EEA
:10292000E66E000EE66E960EE66E090EE66E18EC8A
:102930002EF0006E050EE15E005000011A0EE86FE9
:10294000080EE96F31EF1AF05C0EF36EFD0EDBCF6F
:10295000F4FFF350F45C1FE3610EF36EFD0EDBCF6A
:10296000F4FFF350F45C17E2F10EE66E580EE66EDB
:10297000000EE66E960EE66E090EE66E18EC2EF070
:10298000006E050EE15E005000011C0EE86F090E9E
:10299000E96F31EF1AF0610EF36EFD0EDBCFF4FF3D
:1029A000F350F45C1FE3660EF36EFD0EDBCFF4FF15
:1029B000F350F45C17E2060EE66E590EE66E000E5A
:1029C000E66E960EE66E090EE66E18EC2EF0006EC0
:1029D000050EE15E005000011E0EE86F0A0EE96F61
:1029E00031EF1AF0660EF36EFD0EDBCFF4FFF350FD
:1029F000F45C1FE36B0EF36EFD0EDBCFF4FFF350C0
:102A0000F45C17E21B0EE66E590EE66E000EE66EE3
:102A1000960EE66E090EE66E18EC2EF0006E050EB0
:102A2000E15E00500001230EE86F0C0EE96F31EFFC
:102A30001AF06B0EF36EFD0EDBCFF4FFF350F45C77
:102A40001FE3700EF36EFD0EDBCFF4FFF350F45C6A
:102A500017E2300EE66E590EE66E000EE66E960E2A
:102A6000E66E090EE66E18EC2EF0006E050EE15EC5
:102A700000500001280EE86F0E0EE96F31EF1AF0DA
:102A8000700EF36EFD0EDBCFF4FFF350F45C1FE32A
:102A9000750EF36EFD0EDBCFF4FFF350F45C17E21E
:102AA000450EE66E590EE66E000EE66E960EE66E6A
:102AB000090EE66E18EC2EF0006E050EE15E005079
:102AC00000012D0EE86F100EE96F31EF1AF0750E50
:102AD000F36EFD0EDBCFF4FFF350F45C1FE37A0ED0
:102AE000F36EFD0EDBCFF4FFF350F45C17E25A0EE9
:102AF000E66E590EE66E000EE66E960EE66E090E56
:102B0000E66E18EC2EF0006E050EE15E005000013E
:102B1000320EE86F120EE96F31EF1AF07A0EF36E93
:102B2000FD0EDBCFF4FFF350F45C23E3FD0EDB502E
:102B3000006E016AD890015004E6800E005C000E21
:102B4000015817E26F0EE66E590EE66E000EE66E45
:102B5000960EE66E090EE66E18EC2EF0006E050E6F
:102B6000E15E00500001370EE86F140EE96F31EF9F
:102B70001AF0FD0EDB50006E016AD890015004E699
:102B8000800E005C000E015823E3FD0EDB50026E48
:102B9000036AD890035004E6850E025C000E0358C9
:102BA00017E2840EE66E590EE66E000EE66E960E85
:102BB000E66E090EE66E18EC2EF0006E050EE15E74
:102BC000005000013C0EE86F160EE96F31EF1AF06D
:102BD000FD0EDB50006E016AD890015004E6850EB0
:102BE000005C000E015823E3FD0EDB50026E036A09
:102BF000D890035004E68A0E025C000E035817E2D8
:102C0000990EE66E590EE66E000EE66E960EE66EB4
:102C1000090EE66E18EC2EF0006E050EE15E005017
:102C20000001410EE86F180EE96F31EF1AF0FD0E4A
:102C3000DB50006E016AD890015004E68A0E005CF9
:102C4000000E015822E3FD0EDB50026E036AD8909D
:102C5000035004E68F0E025C000E035816E2AE0E1F
:102C6000E66E590EE66E000EE66E960EE66E090EE4
:102C7000E66E18EC2EF0006E050EE15E00500001CD
:102C8000460EE86F1A0EE96FECD3FD0EDB50006EB6
:102C9000016AD890015004E68F0E005C000E0158C6
:102CA00022E3FD0EDB50026E036AD890035004E667
:102CB000940E025C000E035816E2C30EE66E590E27
:102CC000E66E000EE66E960EE66E090EE66E18ECE7
:102CD0002EF0006E050EE15E005000014B0EE86F15
:102CE0001C0EE96FBED3FD0EDB50006E016AD8905A
:102CF000015004E6940E005C000E015822E3FD0E24
:102D0000DB50026E036AD890035004E6990E025C11
:102D1000000E035816E2D80EE66E590EE66E000E4F
:102D2000E66E960EE66E090EE66E18EC2EF0006E5C
:102D3000050EE15E00500001500EE86F1E0EE96FB7
:102D400090D3FD0EDB50006E016AD890015004E66E
:102D5000990E005C000E015822E3FD0EDB50026E5E
:102D6000036AD890035004E69E0E025C000E0358DE
:102D700016E2ED0EE66E590EE66E000EE66E960E4B
:102D8000E66E090EE66E18EC2EF0006E050EE15EA2
:102D900000500001550EE86F230EE96F62D3FD0E5F
:102DA000DB50006E016AD890015004E69E0E005C74
:102DB000000E015822E3FD0EDB50026E036AD8902C
:102DC000035004E6A30E025C000E035816E2020E46
:102DD000E66E5A0EE66E000EE66E960EE66E090E72
:102DE000E66E18EC2EF0006E050EE15E005000015C
:102DF0005A0EE86F280EE96F34D3FD0EDB50006EDB
:102E0000016AD890015004E6A30E005C000E015840
:102E100022E3FD0EDB50026E036AD890035004E6F5
:102E2000A80E025C000E035816E2170EE66E5A0E4C
:102E3000E66E000EE66E960EE66E090EE66E18EC75
:102E40002EF0006E050EE15E005000015F0EE86F8F
:102E50002D0EE96F06D3FD0EDB50006E016AD8908F
:102E6000015004E6A80E005C000E015822E3FD0E9E
:102E7000DB50026E036AD890035004E6AD0E025C8C
:102E8000000E035816E22C0EE66E5A0EE66E000E89
:102E9000E66E960EE66E090EE66E18EC2EF0006EEB
:102EA000050EE15E00500001640EE86F320EE96F1E
:102EB000D8D2FD0EDB50006E016AD890015004E6B6
:102EC000AD0E005C000E015822E3FD0EDB50026ED9
:102ED000036AD890035004E6B30E025C000E035858
:102EE00016E2410EE66E5A0EE66E000EE66E960E85
:102EF000E66E090EE66E18EC2EF0006E050EE15E31
:102F000000500001640EE86F370EE96FAAD2FD0E83
:102F1000DB50006E016AD890015004E6B30E005CED
:102F2000000E015822E3FD0EDB50026E036AD890BA
:102F3000035004E6B80E025C000E035816E2560E6B
:102F4000E66E5A0EE66E000EE66E960EE66E090E00
:102F5000E66E18EC2EF0006E050EE15E00500001EA
:102F6000640EE86F3C0EE96F7CD2FD0EDB50006E04
:102F7000016AD890015004E6B80E005C000E0158BA
:102F800022E3FD0EDB50026E036AD890035004E684
:102F9000BD0E025C000E035816E26B0EE66E5A0E72
:102FA000E66E000EE66E960EE66E090EE66E18EC04
:102FB0002EF0006E050EE15E00500001640EE86F19
:102FC000410EE96F4ED2FD0EDB50006E016AD890C3
:102FD000015004E6BD0E005C000E015822E3FD0E18
:102FE000DB50026E036AD890035004E6C20E025C06
:102FF000000E035816E2800EE66E5A0EE66E000EC4
:10300000E66E960EE66E090EE66E18EC2EF0006E79
:10301000050EE15E00500001640EE86F460EE96F98
:1030200020D2FD0EDB50006E016AD890015004E6FC
:10303000C20E005C000E015822E3FD0EDB50026E52
:10304000036AD890035004E6C70E025C000E0358D2
:1030500016E2950EE66E5A0EE66E000EE66E960EBF
:10306000E66E090EE66E18EC2EF0006E050EE15EBF
:1030700000500001640EE86F4B0EE96FF2D1FD0EB7
:10308000DB50006E016AD890015004E6C70E005C68
:10309000000E015822E3FD0EDB50026E036AD89049
:1030A000035004E6CC0E025C000E035816E2AA0E92
:1030B000E66E5A0EE66E000EE66E960EE66E090E8F
:1030C000E66E18EC2EF0006E050EE15E0050000179
:1030D000640EE86F500EE96FC4D1FD0EDB50006E38
:1030E000016AD890015004E6CC0E005C000E015835
:1030F00022E3FD0EDB50026E036AD890035004E613
:10310000D10E025C000E035816E2BF0EE66E5A0E98
:10311000E66E000EE66E960EE66E090EE66E18EC92
:103120002EF0006E050EE15E00500001640EE86FA7
:10313000550EE96F96D1FD0EDB50006E016AD890F6
:10314000015004E6D10E005C000E015822E3FD0E92
:10315000DB50026E036AD890035004E6D60E025C80
:10316000000E035816E2D40EE66E5A0EE66E000EFE
:10317000E66E960EE66E090EE66E18EC2EF0006E08
:10318000050EE15E00500001640EE86F5A0EE96F13
:1031900068D1FD0EDB50006E016AD890015004E644
:1031A000D60E005C000E015822E3FD0EDB50026ECD
:1031B000036AD890035004E6DB0E025C000E03584D
:1031C00016E2E90EE66E5A0EE66E000EE66E960EFA
:1031D000E66E090EE66E18EC2EF0006E050EE15E4E
:1031E00000500001640EE86F5F0EE96F3AD1FD0EEA
:1031F000DB50006E016AD890015004E6DB0E005CE3
:10320000000E015821E3FD0EDB50026E036AD890D8
:10321000035004E6E00E025C000E035815E2FE0EB9
:10322000E66E5A0EE66E000EE66E960EE66E090E1D
:10323000E66E18EC2EF0006E050EE15E0050000107
:10324000640EE86FE96F0DD1FD0EDB50006E016A70
:10325000D890015004E6E00E005C000E015821E316
:10326000FD0EDB50026E036AD890035004E6E60EB2
:10327000025C000E035815E2130EE66E5B0EE66E5E
:10328000000EE66E960EE66E090EE66E18EC2EF057
:10329000006E050EE15E00500001640EE86FE96FFC
:1032A000E0D0FD0EDB50006E016AD890015004E6BC
:1032B000E60E005C000E015821E3FD0EDB50026EAD
:1032C000036AD890035004E6EB0E025C000E03582C
:1032D00015E2280EE66E5B0EE66E000EE66E960EAA
:1032E000E66E090EE66E18EC2EF0006E050EE15E3D
:1032F00000500001640EE86FE96FB3D0FD0EDB50A3
:10330000006E016AD890015004E6EB0E005C000EDE
:10331000015821E3FD0EDB50026E036AD890035082
:1033200004E6F00E025C000E035815E23D0EE66E58
:103330005B0EE66E000EE66E960EE66E090EE66E0B
:1033400018EC2EF0006E050EE15E00500001640ED8
:10335000E86FE96F86D0FD0EDB50006E016AD890F1
:10336000015004E6F00E005C000E015821E3FD0E52
:10337000DB50026E036AD890035004E6F50E025C3F
:10338000000E035815E2520EE66E5B0EE66E000E5E
:10339000E66E960EE66E090EE66E18EC2EF0006EE6
:1033A000050EE15E00500001640EE86FE96F59D030
:1033B000FD0EDB50006E016AD890015004E6F50E58
:1033C000005C000E015821E3FD0EDB50026E036A23
:1033D000D890035004E6FA0E025C000E035815E282
:1033E000670EE66E5B0EE66E000EE66E960EE66EFD
:1033F000090EE66E18EC2EF0006E050EE15E005030
:103400000001640EE86FE96F2CD0FD0EDB50006EFA
:10341000016AD890015004E6FA0E005C000E0158D3
:1034200020E3FD0EDB50026E036AD890035004E6E1
:10343000FF0E025C000E035814E27C0EE66E5B0E7B
:10344000E66E000EE66E960EE66E090EE66E18EC5F
:103450002EF0006E050EE15E00500001640EE86F74
:10346000E96F00D0E552E7CFD9FF12000901015101
:10347000030A31E0010A21E0030A11E0010A01E038
:1034800038D0800E0225E66E000EE66EE66AE66E25
:10349000E66AD1D9006E050EE15E00502AD0C00E5A
:1034A0000225E66E000EE66EE66AE66EE66AC3D9AF
:1034B000006E050EE15E00501CD0940E0225E66EF3
:1034C000000EE66EE66AE66EE66AB5D9006E050E97
:1034D000E15E00500ED0D40E0225E66E000EE66EC0
:1034E000E66AE66EE66AA7D9006E050EE15E005058
:1034F00000D012000901AB5101E1FCD7780EE66E55
:10350000000EE66EE66AE66EE66A95D9006E050E76
:10351000E15E00500901AB5101E1FCD7E66A62DAD5
:10352000E5520901AB5101E1FCD7080EE66E5ADA0B
:10353000E5520901AB5101E1FCD70C0EE66E52DAFF
:10354000E5520901AB5101E1FCD71E0EE66E4ADAE5
:10355000E5520901AB5101E1FCD71F0EE66E42DADC
:10356000E5520901AB5101E1FCD71E0EE66E3ADAD5
:10357000E5520901AB5101E1FCD70C0EE66E32DADF
:10358000E5520901AB5101E1FCD7080EE66E2ADADB
:10359000E55212000901AB5101E1FCD7500EE66E75
:1035A000000EE66EE66AE66EE66A45D9006E050E26
:1035B000E15E00500901AB5101E1FCD7100EE66E4F
:1035C00011DAE5520901AB5101E1FCD7100EE66EAC
:1035D00009DAE5520901AB5101E1FCD7100EE66EA4
:1035E00001DAE5520901AB5101E1FCD7100EE66E9C
:1035F000F9D9E5520901AB5101E1FCD7100EE66E95
:10360000F1D9E5520901AB5101E1FCD7100EE66E8C
:10361000E9D9E5520901AB5101E1FCD7100EE66E84
:10362000E1D9E5520901AB5101E1FCD7100EE66E7C
:10363000D9D9E5520901AB5101E1FCD7180EE66E6C
:10364000D1D9E5520901AB5101E1FCD7180EE66E64
:10365000C9D9E5520901AB5101E1FCD7180EE66E5C
:10366000C1D9E5520901AB5101E1FCD7180EE66E54
:10367000B9D9E5520901AB5101E1FCD7180EE66E4C
:10368000B1D9E5520901AB5101E1FCD7180EE66E44
:10369000A9D9E5520901AB5101E1FCD7180EE66E3C
:1036A000A1D9E5520901AB5101E1FCD7180EE66E34
:1036B00099D9E5520901AB5101E1FCD71C0EE66E28
:1036C00091D9E5520901AB5101E1FCD71C0EE66E20
:1036D00089D9E5520901AB5101E1FCD71C0EE66E18
:1036E00081D9E5520901AB5101E1FCD71C0EE66E10
:1036F00079D9E5520901AB5101E1FCD71C0EE66E08
:1037000071D9E5520901AB5101E1FCD71C0EE66EFF
:1037100069D9E5520901AB5101E1FCD71C0EE66EF7
:1037200061D9E5520901AB5101E1FCD71C0EE66EEF
:1037300059D9E5520901AB5101E1FCD71E0EE66EE5
:1037400051D9E5520901AB5101E1FCD71E0EE66EDD
:1037500049D9E5520901AB5101E1FCD71E0EE66ED5
:1037600041D9E5520901AB5101E1FCD71E0EE66ECD
:1037700039D9E5520901AB5101E1FCD71E0EE66EC5
:1037800031D9E5520901AB5101E1FCD71E0EE66EBD
:1037900029D9E5520901AB5101E1FCD71E0EE66EB5
:1037A00021D9E5520901AB5101E1FCD71E0EE66EAD
:1037B00019D9E5520901AB5101E1FCD71F0EE66EA4
:1037C00011D9E5520901AB5101E1FCD71F0EE66E9C
:1037D00009D9E5520901AB5101E1FCD71F0EE66E94
:1037E00001D9E5520901AB5101E1FCD71F0EE66E8C
:1037F000F9D8E5520901AB5101E1FCD71F0EE66E85
:10380000F1D8E5520901AB5101E1FCD71F0EE66E7C
:10381000E9D8E5520901AB5101E1FCD71F0EE66E74
:10382000E1D8E5520901AB5101E1FCD71F0EE66E6C
:10383000D9D8E5521200D9CFE6FFE1CFD9FF050E66
:10384000E126DE52F00EDD6E600EF36E020EF3CF57
:10385000DBFFF90EF36E030EF3CFDBFFC00EF36E4A
:10386000040EF3CFDBFFFA0EDB50DF6EF29E00009A
:103870000000828600008294000000008296FD0E07
:10388000DB50E8B0828AE8A0829A000082860000BD
:10389000000000008296FB0EDB50E8B0828AE8A0B0
:1038A000829A000082860000000000008296D9CF34
:1038B000E9FFDACFEAFFEF50800B02E0828A01D005
:1038C000829A000082860000000000008296D9CF14
:1038D000E9FFDACFEAFFEF50400B02E0828A01D025
:1038E000829A000082860000000000008296D9CFF4
:1038F000E9FFDACFEAFFEF50200B02E0828A01D025
:10390000829A000082860000000000008296D9CFD3
:10391000E9FFDACFEAFFEF50100B02E0828A01D014
:10392000829A000082860000000000008296D9CFB3
:10393000E9FFDACFEAFFEF50080B02E0828A01D0FC
:10394000829A000082860000000000008296D9CF93
:10395000E9FFDACFEAFFEF50040B02E0828A01D0E0
:10396000829A000082860000000000008296D9CF73
:10397000E9FFDACFEAFFEF50020B02E0828A01D0C2
:10398000829A000082860000000000008296D9CF53
:10399000E9FFDACFEAFFEF50010B02E0828A01D0A3
:1039A000829A00008286000082840901AB6BDF04EA
:1039B00007E1010EDB50B36E020EDB50B26E06D093
:1039C000030EDB50B36E040EDB50B26EB180F28E8C
:1039D000050EE15C02E2E16AE552E16EE552E7CFF5
:1039E000D9FF1200D9CFE6FFE1CFD9FFE652FE0E94
:1039F000DB50DF6EF29E00000000828600008294A1
:103A0000000000008296828A00008286000000008A
:103A100000008296829A000082860000000000006A
:103A20008296D9CFE9FFDACFEAFFEF50800B02E0B0
:103A3000828A01D0829A0000828600000000000085
:103A40008296D9CFE9FFDACFEAFFEF50400B02E0D0
:103A5000828A01D0829A0000828600000000000065
:103A60008296D9CFE9FFDACFEAFFEF50200B02E0D0
:103A7000828A01D0829A0000828600000000000045
:103A80008296D9CFE9FFDACFEAFFEF50100B02E0C0
:103A9000828A01D0829A0000828600000000000025
:103AA0008296D9CFE9FFDACFEAFFEF50080B02E0A8
:103AB000828A01D0829A0000828600000000000005
:103AC0008296D9CFE9FFDACFEAFFEF50040B02E08C
:103AD000828A01D0829A00008286000000000000E5
:103AE0008296D9CFE9FFDACFEAFFEF50020B02E06E
:103AF000828A01D0829A00008286000000000000C5
:103B00008296D9CFE9FFDACFEAFFEF50010B02E04E
:103B1000828A01D0829A0000828600008284090194
:103B2000AB6BF90EB36EC00EB26EB180F28EE55281
:103B3000E552E7CFD9FF120000016051000801E211
:103B40000ED00ED80901B26FB251000808E20E0182
:103B5000B20E086F090E096F43D80901B26B12004B
:103B6000D9CFE6FFE1CFD9FFE652DF6A050E0901A2
:103B7000B35D0AE281A8B42B81AAB52B81A6B62B2E
:103B800081A4B72BB32B1CD0B751020803E2040E5B
:103B9000DF6E11D0B651020803E2030EDF6E0BD0C8
:103BA000B451020803E2010EDF6E05D0B5510208E0
:103BB00002E2020EDF6EB76BB66BB46BB56BB36B24
:103BC000DF5004E10001010E606F03D00001190E07
:103BD000606FDF5000D0E552E552E7CFD9FF120009
:103BE000D9CFE6FFE1CFD9FFE65209010051170A0C
:103BF00001E129D2010A01E1D9D1030A01E19BD1F6
:103C0000010A01E159D11B0A01E125D1010A01E1B3
:103C1000FFD0030A01E1CBD0010A01E18AD0070AF3
:103C20004AE0010A18E00A0A01E054D208CEE9FF8E
:103C300009CEEAFFEF50030A01E00CD00A0E006F34
:103C4000E66AE66A010EE66E86EC02F0E552E5529F
:103C5000E55200D03FD208CEE9FF09CEEAFFEF508F
:103C6000020A1CE0010A0EE0070A01E023D0006B03
:103C7000E66AE66A010EE66E86EC02F0E552E5526F
:103C8000E55218D0140E006FE66AE66A010EE66E81
:103C900086EC02F0E552E552E5520CD00B0E006FB7
:103CA000E66AE66A010EE66E86EC02F0E552E5523F
:103CB000E55200D00FD208CEE9FF09CEEAFFEF505F
:103CC000020A2AE0030A1CE0020A0EE0070A01E0E9
:103CD0002FD0006BE66AE66A010EE66E86EC02F013
:103CE000E552E552E55224D01E0E006FE66AE66A00
:103CF000010EE66E86EC02F0E552E552E55218D070
:103D00000A0E006FE66AE66A010EE66E86EC02F0C5
:103D1000E552E552E5520CD00C0E006FE66AE66AF9
:103D2000010EE66E86EC02F0E552E552E55200D057
:103D3000D1D108CEE9FF09CEEAFFEF50020A2AE00E
:103D4000030A1CE0020A0EE0070A01E02FD0006B14
:103D5000E66AE66A010EE66E86EC02F0E552E5528E
:103D6000E55224D0500E006FE66AE66A010EE66E58
:103D700086EC02F0E552E552E55218D00B0E006FCA
:103D8000E66AE66A010EE66E86EC02F0E552E5525E
:103D9000E5520CD00D0E006FE66AE66A010EE66E83
:103DA00086EC02F0E552E552E55200D093D108CE00
:103DB000E9FF09CEEAFFEF50010A1DE0020A0DE01B
:103DC000070A01E024D0006BE66AE66A010EE66E9F
:103DD00086EC02F0E552E552E55209010E0E006F45
:103DE000E66AE66A010EE66E86EC02F0E552E552FE
:103DF000E5520DD00CD00C0E006FE66AE66A010E9B
:103E0000E66E86EC02F0E552E552E55200D062D152
:103E100008CEE9FF09CEEAFFEF50020A0FE0060ADA
:103E200001E018D00A0E006FE66AE66A010EE66E3F
:103E300086EC02F0E552E552E5520CD00F0E006F11
:103E4000E66AE66A010EE66E86EC02F0E552E5529D
:103E5000E55200D03FD108CEE9FF09CEEAFFEF508E
:103E6000010A1DE0020A0FE0070A01E024D00A0E51
:103E7000006FE66AE66A010EE66E86EC02F0E55235
:103E8000E552E55218D00A0E006FE66AE66A010EA6
:103E9000E66E86EC02F0E552E552E5520CD00E0ECD
:103EA000006FE66AE66A010EE66E86EC02F0E55205
:103EB000E552E55200D00ED108CEE9FF09CEEAFF67
:103EC000EF50020A2BE0010A14E0070A01E032D0A9
:103ED0000A0E006FE66AE66A010EE66E86EC02F0F4
:103EE000E552E552E552020EE66EE1EC24F0E552B1
:103EF00021D0150E006FE66AE66A010EE66E86ECCA
:103F000002F0E552E552E552010EE66EE1EC24F0D6
:103F1000E552010EE66EE3D8E5520CD0160E006FA6
:103F2000E66AE66A010EE66E86EC02F0E552E552BC
:103F3000E55200D0CFD008CEE9FF09CEEAFFEF501E
:103F4000020A27E0010A14E0070A01E02ED00A0E57
:103F5000006FE66AE66A010EE66E86EC02F0E55254
:103F6000E552E552020EE66EE1EC24F0E5521DD07A
:103F7000140E006FE66AE66A010EE66E86EC02F049
:103F8000E552E552E552020EE66EE1EC24F0E55210
:103F90000CD0160E006FE66AE66A010EE66E86EC3D
:103FA00002F0E552E552E55200D094D008CEE9FF88
:103FB00009CEEAFFEF50010A31E0020A14E0070AD5
:103FC00001E040D00A0E006FE66AE66A010EE66E76
:103FD00086EC02F0E552E552E552020EE66EE1ECA7
:103FE00024F0E5522FD0170E006FE66AE66A010E44
:103FF000E66E86EC02F0E552E552E552010EE66E01
:10400000A0EC28F0E55262C064F063C065F0E8C03F
:10401000EBF0E9C0ECF0EAC0EDF014D00F013DA1E7
:1040200004D00901150E006F03D00901140E006FB2
:10403000E66AE66A010EE66E86EC02F0E552E552AB
:10404000E55200D047D008CEE9FF09CEEAFFEF5095
:10405000030A26E0070A01E03CD00F013DA104D08D
:104060000901150E006F03D00901140E006FE66AF6
:10407000E66A010EE66E86EC02F0E552E552E55284
:10408000020EE66EA0EC28F0E55264C062F065C056
:1040900063F0EBC0E8F0ECC0E9F0EDC0EAF019D055
:1040A0000F013DA104D00901150E006F03D00901D5
:1040B000140E006FE66AE66A010EE66E86EC02F008
:1040C000E552E552E552020EE66EA0EC28F0E5520C
:1040D00000D000D0E552E552E7CFD9FF1200D9CF8A
:1040E000E6FFE1CFD9FFFE0EDB50030A0CE0010A28
:1040F00009E0030A01E00CD0D58ECD800901010E44
:10410000B96F06D005D00901B95101E101D000D045
:10411000E552E7CFD9FF12000C0E0901BA5D04E1A8
:104120000901010EBA6F02D00901BA2B0901BA5177
:104130000C0A01E1BFD2070A01E17FD2010A01E1C5
:104140003FD2030A01E1FFD1010A01E1BFD10F0A09
:1041500001E17FD1010A01E13FD1030A01E1FFD072
:10416000010A01E1BFD0070A01E17FD0010A40E066
:10417000030A01E0DCD2909C0000909E00008E9427
:10418000000090C069F091C06AF092C06BF000012D
:1041900090510001D880B75503E20001902B07D061
:1041A000000190510001B75D02E20001900700019B
:1041B00091510001D880B85503E20001912B07D03E
:1041C000000191510001B85D02E200019107000178
:1041D00092510001D880B95503E20001922B07D01B
:1041E000000192510001B95D02E200019207A3D2E1
:1041F0008E9600008E9800008E9A000093C06CF09E
:1042000094C06DF095C06EF0000193510001D8800C
:10421000BA5503E20001932B07D00001935100012E
:10422000BA5D02E200019307000194510001D880B9
:10423000BB5503E20001942B07D00001945100010B
:10424000BB5D02E200019407000195510001D88096
:10425000BC5503E20001952B07D0000195510001E8
:10426000BC5D02E20001950766D28E9C00008E9E26
:1042700000008F96000096C06FF097C070F098C055
:1042800071F0000196510001D880BD5503E2000194
:10429000962B07D0000196510001BD5D02E200019E
:1042A0009607000197510001D880BE5503E2000136
:1042B000972B07D0000197510001BE5D02E200017B
:1042C0009707000198510001D880BF5503E2000113
:1042D000982B07D0000198510001BF5D02E2000158
:1042E000980729D28F9400008F9200008F900000D1
:1042F00099C072F09AC073F09BC074F0000199519C
:104300000001D880C05503E20001992B07D00001BD
:1043100099510001C05D02E20001990700019A5124
:104320000001D880C15503E200019A2B07D000019B
:104330009A510001C15D02E200019A0700019B5100
:104340000001D880C25503E200019B2B07D0000179
:104350009B510001C25D02E200019B07ECD18D90F0
:1043600000008D920000909600009CC075F09DC0EA
:1043700076F09EC077F000019C510001D880C355B3
:1043800003E200019C2B07D000019C510001C35D9A
:1043900002E200019C0700019D510001D880C45534
:1043A00003E200019D2B07D000019D510001C45D77
:1043B00002E200019D0700019E510001D880C55511
:1043C00003E200019E2B07D000019E510001C55D54
:1043D00002E200019E07AFD190940000909200008D
:1043E000909000009FC078F0A0C079F0A1C07AF052
:1043F00000019F510001D880C65503E200019F2BA8
:1044000007D000019F510001C65D02E200019F0735
:104410000001A0510001D880C75503E20001A02B84
:1044200007D00001A0510001C75D02E20001A00712
:104430000001A1510001D880C85503E20001A12B61
:1044400007D00001A1510001C85D02E20001A107EF
:1044500072D18D9600008D9800008D9A0000A2C048
:104460007BF0A3C07CF0A4C07DF00001A25100014C
:10447000D880C95503E20001A22B07D00001A25148
:104480000001C95D02E20001A2070001A351000181
:10449000D880CA5503E20001A32B07D00001A35125
:1044A0000001CA5D02E20001A3070001A45100015E
:1044B000D880CB5503E20001A42B07D00001A45102
:1044C0000001CB5D02E20001A40735D18D9C000004
:1044D0008D9E00008C900000A5C07EF0A6C07FF0ED
:1044E000A7C080F00001A5510001D880CC5503E29F
:1044F0000001A52B07D00001A5510001CC5D02E20F
:104500000001A5070001A6510001D880CD5503E2A6
:104510000001A62B07D00001A6510001CD5D02E2EB
:104520000001A6070001A7510001D880CE5503E283
:104530000001A72B07D00001A7510001CE5D02E2C8
:104540000001A707F8D08C9200008C9400008C9694
:104550000000A8C081F0A9C082F0AAC083F00001C9
:10456000A8510001D880CF5503E20001A82B07D045
:104570000001A8510001CF5D02E20001A80700017F
:10458000A9510001D880D05503E20001A92B07D022
:104590000001A9510001D05D02E20001A90700015C
:1045A000AA510001D880D15503E20001AA2B07D0FF
:1045B0000001AA510001D15D02E20001AA07BBD0AF
:1045C0008C9800008C9A00008C9C0000ABC084F09A
:1045D000ACC085F0ADC086F00001AB510001D880C1
:1045E000D25503E20001AB2B07D00001AB51000113
:1045F000D25D02E20001AB070001AC510001D8809E
:10460000D35503E20001AC2B07D00001AC510001EF
:10461000D35D02E20001AC070001AD510001D8807A
:10462000D45503E20001AD2B07D00001AD510001CC
:10463000D45D02E20001AD077ED08C9E0000919017
:10464000000091920000AEC087F0AFC088F0B0C00B
:1046500089F00001AE510001D880D55503E2000178
:10466000AE2B07D00001AE510001D55D02E2000182
:10467000AE070001AF510001D880D65503E200011A
:10468000AF2B07D00001AF510001D65D02E200015F
:10469000AF070001B0510001D880D75503E20001F7
:1046A000B02B07D00001B0510001D75D02E200013C
:1046B000B00741D091940000919600008A900000CC
:1046C000B1C08AF0B2C08BF0B3C08CF00001B15120
:1046D0000001D880D85503E20001B12B07D00001BA
:1046E000B1510001D85D02E20001B1070001B251F1
:1046F0000001D880D95503E20001B22B07D0000198
:10470000B2510001D95D02E20001B2070001B351CC
:104710000001D880DA5503E20001B32B07D0000175
:10472000B3510001DA5D02E20001B30704D00901D0
:10473000010EBA6F00D0120090BC07D0640E0001C9
:10474000695D02E1908C01D0692B90BE07D0640EA8
:1047500000016A5D02E1908E01D06A2B8EB407D011
:10476000640E00016B5D02E18E8401D06B2B8EB66E
:1047700007D0640E00016C5D02E18E8601D06C2BC7
:104780008EB807D0640E00016D5D02E18E8801D005
:104790006D2B8EBA07D0640E00016E5D02E18E8A29
:1047A00001D06E2B8EBC07D0640E00016F5D02E15C
:1047B0008E8C01D06F2B8EBE07D0640E0001705D11
:1047C00002E18E8E01D0702B8FB607D0640E0001EF
:1047D000715D02E18F8601D0712B8FB407D0640E1A
:1047E0000001725D02E18F8401D0722B8FB207D07D
:1047F000640E0001735D02E18F8201D0732B8FB0D4
:1048000007D0640E0001745D02E18F8001D0742B2B
:104810008DB007D0640E0001755D02E18D8001D07E
:10482000752B8DB207D0640E0001765D02E18D829A
:1048300001D0762B90B607D0640E0001775D02E1BF
:10484000908601D0772B90B407D0640E0001785D7C
:1048500002E1908401D0782B90B207D0640E000161
:10486000795D02E1908201D0792B90B007D0640E7F
:1048700000017A5D02E1908001D07A2B8DB607D0DD
:10488000640E00017B5D02E18D8601D07B2B8DB82B
:1048900007D0640E00017C5D02E18D8801D07C2B85
:1048A0008DBA07D0640E00017D5D02E18D8A01D0D2
:1048B0007D2B8DBC07D0640E00017E5D02E18D8CE6
:1048C00001D07E2B8DBE07D0640E00017F5D02E11A
:1048D0008D8E01D07F2B8CB007D0640E0001805DDF
:1048E00002E18C8001D0802B8CB207D0640E0001D5
:1048F000815D02E18C8201D0812B8CB407D0640EE3
:104900000001825D02E18C8401D0822B8CB607D03D
:10491000640E0001835D02E18C8601D0832B8CB88C
:1049200007D0640E0001845D02E18C8801D0842BE5
:104930008CBA07D0640E0001855D02E18C8A01D03B
:10494000852B8CBC07D0640E0001865D02E18C8C47
:1049500001D0862B8CBE07D0640E0001875D02E17A
:104960008C8E01D0872B91B007D0640E0001885D3A
:1049700002E1918001D0882B91B207D0640E000132
:10498000895D02E1918201D0892B91B407D0640E38
:1049900000018A5D02E1918401D08A2B91B607D093
:1049A000640E00018B5D02E1918601D08B2B8AB0F1
:1049B00007D0640E00018C5D02E18A8001D08C2B4F
:1049C0001200D9CFE6FFE1CFD9FFE652FE0EDB5051
:1049D000040A01E193D1070A6EE0010A3AE0030AF2
:1049E00001E0A9D3010EDF6EDF500C0822E3DF5097
:1049F000EA6AE20FE96E090EEA22EF6ADF50EA6A1C
:104A0000EF0FE96E090EEA22EF6AEA6ADF34FE0B65
:104A1000EA36E96EC80EE926090EEA22EE6AED6A68
:104A2000DF50EA6ABB0FE96E090EEA22EF6ADF2A5D
:104A3000DBD70901FE6B0901FD6B0001616BBA96C2
:104A40000E01050E006F0F013D810901010EFC6F83
:104A500072D30F013D910901FC6B010EDF6EDF5037
:104A60000C0828E3DF50030DF3CFE9FFF4CFEAFF92
:104A7000B40EE926000EEA22EF6ADF50030DF3CFF1
:104A8000E9FFF4CFEAFFB40EE926000EEA22EE5267
:104A9000EF6ADF50030DF3CFE9FFF4CFEAFFB40E66
:104AA000E926000EEA22020EE926000EEA22EF6A4B
:104AB000DF2AD5D740D30901FC5101E13CD30001E5
:104AC000615101E138D38050080B01E0010E09016A
:104AD000E36F00008050040B01E0010E0901E46F58
:104AE00000008050200B01E0010E0901E56F00007D
:104AF0008050100B01E0010E0901E66F00008250AA
:104B0000020B01E0010E0901E76F00008250010B6A
:104B10000901E86F00008250400B01E0010E09011D
:104B2000E96F00008250800B01E0010E0901EA6F7D
:104B300000008850100B01E0010E0901EB6F00002E
:104B40008850200B01E0010E0901EC6F0000885035
:104B5000400B01E0010E0901ED6F00008850800B51
:104B600001E0010E0901EE6F0000010EDF6EDF5063
:104B70000C0875E3DF50EA6AE20FE96E090EEA22DB
:104B8000EFCF00F0DF50EA6AEF0FE96E090EEA227C
:104B9000EF50005C62E0DF50EA6AE20FE96E090E56
:104BA000EA22EF5031E0DF500C0A0BE00D0A01E081
:104BB00010D00901010EBC6F0901C76B0901BD6B63
:104BC0001FD00901010EC76F0901C66B0901BC6B3B
:104BD00017D0DF50EA6ABB0FE96E090EEA22010E18
:104BE000EF6EDF04EA6ABB0FE96E090EEA22EF6A94
:104BF000DF28EA6ABB0FE96E090EEA22EF6A00D0ED
:104C00000901010EFD6F18D0DF50EA6ABB0FE96E93
:104C1000090EEA22EF5010E0EA6ADF34FE0BEA36B2
:104C2000E96EC80EE926090EEA2262C0EEFF63C0F3
:104C3000EDFF0901010EFE6FDF50EA6AE20FE96E37
:104C4000090EEA22EF50E66EDF50EA6AEF0FE96ED6
:104C5000090EEA22E552E750EF6EDF2A88D70901F4
:104C6000FE5101E168D20901FE6B010EDF6EDF50DB
:104C70000C0841E3EA6ADF34FE0BEA36E96EC80E3F
:104C8000E926090EEA22EECF00F0EFCF01F0010E87
:104C9000001801E1015006E0005001E1015001E07F
:104CA00018D027D0EA6ADF34FE0BEA36E96EC80E68
:104CB000E926090EEA22EE06000EEF5ADF50EA6AF4
:104CC000BB0FE96E090EEA22EF6A0901010EFD6FC2
:104CD00010D0EA6ADF34FE0BEA36E96EC80EE92628
:104CE000090EEA22EE06000EEF5A0901010EFE6FD0
:104CF00000D0DF2ABCD70001616B1DD20901BC5175
:104D00000AE00001640EB76F0001640EB86F000185
:104D1000640EB96F20D00901C75103E10901BD51EB
:104D200007E0E8C0B7F0E8C0B8F0E8C0B9F013D0C9
:104D30000901C65103E10901BE5107E0E9C0B7F01E
:104D4000E9C0B8F0E9C0B9F006D00001B76B0001C6
:104D5000B86B0001B96B0901BD510AE00001640E96
:104D6000BA6F0001640EBB6F0001640EBC6F20D0EF
:104D70000901BC5103E10901BE5107E0E8C0BAF0E6
:104D8000E8C0BBF0E8C0BCF013D00901C75103E193
:104D90000901BF5107E0E9C0BAF0E9C0BBF0E9C0C2
:104DA000BCF006D00001BA6B0001BB6B0001BC6B0C
:104DB0000901BE510AE00001640EBD6F0001640EDE
:104DC000BE6F0001640EBF6F20D00901BD5103E129
:104DD0000901BF5107E0E8C0BDF0E8C0BEF0E8C07F
:104DE000BFF013D00901BC5103E10901C05107E034
:104DF000E9C0BDF0E9C0BEF0E9C0BFF006D00001D7
:104E0000BD6B0001BE6B0001BF6B0901BF510AE021
:104E10000001640EC06F0001640EC16F0001640EDA
:104E2000C26F20D00901BE5103E10901C05107E062
:104E3000E8C0C0F0E8C0C1F0E8C0C2F013D009017A
:104E4000BD5103E10901C15107E0E9C0C0F0E9C06B
:104E5000C1F0E9C0C2F006D00001C06B0001C16B17
:104E60000001C26B0901C0510AE00001640EC36F6A
:104E70000001640EC46F0001640EC56F20D00901EB
:104E8000BF5103E10901C15107E0E8C0C3F0E8C028
:104E9000C4F0E8C0C5F013D00901BE5103E1090117
:104EA000C25107E0E9C0C3F0E9C0C4F0E9C0C5F0F1
:104EB00006D00001C36B0001C46B0001C56B090182
:104EC000C1510AE00001640EC66F0001640EC76F95
:104ED0000001640EC86F20D00901C05103E109012F
:104EE000C25107E0E8C0C6F0E8C0C7F0E8C0C8F0AB
:104EF00013D00901BF5103E10901C35107E0E9C023
:104F0000C6F0E9C0C7F0E9C0C8F006D00001C66B22
:104F10000001C76B0001C86B0901C2510AE0000122
:104F2000640EC96F0001640ECA6F0001640ECB6F7E
:104F300020D00901C15103E10901C35107E0E8C0D4
:104F4000C9F0E8C0CAF0E8C0CBF013D00901C051E5
:104F500003E10901C45107E0E9C0C9F0E9C0CAF0A2
:104F6000E9C0CBF006D00001C96B0001CA6B00019B
:104F7000CB6B0901C3510AE00001640ECC6F000144
:104F8000640ECD6F0001640ECE6F20D00901C251B6
:104F900003E10901C45107E0E8C0CCF0E8C0CDF05E
:104FA000E8C0CEF013D00901C15103E10901C55198
:104FB00007E0E9C0CCF0E9C0CDF0E9C0CEF006D002
:104FC0000001CC6B0001CD6B0001CE6B0901C45117
:104FD0000AE00001640ECF6F0001640ED06F000183
:104FE000640ED16F20D00901C35103E10901C551FD
:104FF00007E0E8C0CFF0E8C0D0F0E8C0D1F013D0AF
:105000000901C25103E10901C65107E0E9C0CFF02F
:10501000E9C0D0F0E9C0D1F006D00001CF6B0001AB
:10502000D06B0001D16B0901C5510AE00001640E8B
:10503000D26F0001640ED36F0001640ED46F20D0D4
:105040000901C45103E10901C65107E0E8C0D2F0EB
:10505000E8C0D3F0E8C0D4F013D00901C35103E194
:105060000901C75107E0E9C0D2F0E9C0D3F0E9C0B7
:10507000D4F006D00001D26B0001D36B0001D46BD9
:105080000901C6510AE00001640ED56F0001640EEB
:10509000D66F0001640ED76F20D00901C55103E11E
:1050A0000901C75107E0E8C0D5F0E8C0D6F0E8C074
:1050B000D7F013D00901C45103E10901BC5107E045
:1050C000E9C0D5F0E9C0D6F0E9C0D7F006D00001BC
:1050D000D56B0001D66B0001D76B0901C7510AE0FF
:1050E0000001640ED86F0001640ED96F0001640ED8
:1050F000DA6F20D00901C65103E10901BC5107E074
:10510000E8C0D8F0E8C0D9F0E8C0DAF013D009015F
:10511000C55103E10901BD5107E0E9C0D8F0E9C07C
:10512000D9F0E9C0DAF006D00001D86B0001D96BE4
:105130000001DA6B00D0E552E552E7CFD9FF12004B
:10514000D9CFE6FFE1CFD9FFFE0EDB50030A24E002
:10515000010A1CE0030A01E060D0D3EC01F000007A
:10516000C46A0000C28000000A01010E006F0A013B
:10517000016B0A01026B0901AC6B9E920901010EE1
:10518000AD6FCA840901010EFF6F47D0C2900000C5
:10519000CA940901FF6B41D00901FF5101E13DD0E3
:1051A0000901AC5101E139D00A010051020A14E0B1
:1051B000030A01E02DD0C4CF01FA0000830EC2140F
:1051C0000409C26E00000A01020E006F0000C282D4
:1051D00000000901AC6B20D0C4CF02FA0000830E9E
:1051E000C2140009C26E00000A01010E006F000027
:1051F000C28200000901AC6B02CAE6FF01CAE6FFE9
:10520000020EE66E86EC02F0E552E552E55204D05D
:105210000A01010E006F00D000D0E552E7CFD9FFA0
:0252200012007A
:0E522200202020202020205354524F424520AF
:105230002020202020200020202020202020207638
:10524000312E30202020202020202000202020204F
:10525000202020202020202020202020202020204E
:1052600000202062793A205A616368617279204C8B
:10527000616E67202000202020204D6F74696F6EC2
:105280002053656E73696E67202000202020204D1A
:10529000616E75616C2020202020202020202000BD
:1052A000202020205354524F4245202020202020EF
:1052B000202020200020202020202020202020200E
:1052C0002020204E657874202000202020204F7060
:1052D00074696F6E73202020202020202020002061
:1052E00020202020202020202020202020202020BE
:1052F00020202000202020202020202020202020CE
:1053000020202020202020200020202020202020BD
:10531000202020202020204E65787420200020208E
:10532000202053746172742020202020202020200F
:10533000202000202020204F7074696F6E73202081
:10534000202020202020200020202020202020207D
:10535000202020202020202020202020002020533A
:1053600074617475733A202020204F464620202017
:1053700020002020202053746F7020202020202027
:1053800020202020202000202020204F7074696FD2
:105390006E7320202020202020202000202020208C
:1053A00020202020202020202020202020202020FD
:1053B0000020205374617475733A20202020204F00
:1053C0004E20202020002054696D656F75742044A4
:1053D000656C61793A20302E317300202020207CCA
:1053E000202020202020202020207C202020200081
:1053F000202020204C6967687420537072656164B6
:105400002020202000202020207C20202020202060
:10541000202020207C2020202000202020204C69DB
:10542000676874205370726561642020202000201A
:10543000207C202020202020202020202020202010
:105440007C20200020202020536176652020202011
:105450002020202020202020002020202043616EBA
:1054600063656C2020202020202020202000202088
:1054700020204D616E75616C204D6F646520202089
:10548000202000202020202020202020202020203C
:10549000202020202020200020203E204E65772044
:1054A000202020202020202020202020002020201C
:1054B000204C6F61642020202020202020202020EC
:1054C0002000202020204D616E75616C204D6F649E
:1054D00065202020202000202020202020202020A7
:1054E00020202020202020202020200020202020DC
:1054F0004E657720202020202020202020202020E2
:105500000020203E204C6F6164202020202020209D
:1055100020202020200020202020202053544147FC
:105520004520312020202020202000203E204368DC
:10553000616E676520436F6C6F7220202020200011
:105540002020204368616E67652044656C61792086
:10555000202020200020202020202020202020206B
:1055600020204E657874202020002020202020203C
:105570005354414745203220202020202020002065
:105580003E204368616E676520436F6C6F72202018
:10559000202020002020204368616E67652044653C
:1055A0006C61792020202020002020204261636B44
:1055B0002020202020204E65787420202000203ECE
:1055C0002052656420202020202020202020202020
:1055D000202000202020477265656E20202020209A
:1055E0002020202020202000202020426C756520D3
:1055F00020202020202020202020202000202020CB
:10560000536176652020202020202020202020208B
:105610002000203E2050726F66696C65203120208A
:105620002020202020200020202050726F66696CEE
:105630006520322020202020202020002020205003
:10564000726F66696C652033202020202020202086
:105650000020202050726F66696C65203420202065
:1056600020202020200020202050726F66696C6569
:105670002031202020202020202000203E20507299
:105680006F66696C652032202020202020202000B9
:1056900020202050726F66696C6520332020202006
:1056A000202020200020202050726F66696C652029
:1056B0003420202020202020200020202050726F25
:1056C00066696C65203120202020202020200020C9
:1056D000202050726F66696C6520322020202020C7
:1056E00020202000203E2050726F66696C652033B8
:1056F00020202020202020200020202050726F66B3
:10570000696C6520342020202020202020002020CB
:105710002050726F66696C65203120202020202087
:1057200020200020202050726F66696C6520322096
:10573000202020202020200020202050726F666929
:105740006C652033202020202020202000203E20B7
:1057500050726F66696C6520342020202020202044
:105760002000202020207C202020202020202020FD
:10577000207C2020202000202020207C02202020AF
:105780002020202020207C202020200020202020DD
:105790007C032020202020202020207C202020206E
:1057A00000202020207C04202020202020202020D9
:1057B0007C2020202000202020207C05202020206C
:1057C00020202020207C2020202000202020207C41
:1057D000062020202020202020207C2020202000A7
:1057E000202020207C060220202020202020207C39
:1057F0002020202000202020207C060320202020A4
:10580000202020207C2020202000202020207C061A
:105810000420202020202020207C20202020002068
:105820002020207C060520202020202020207C20F5
:1058300020202000202020207C0606202020202060
:105840002020207C2020202000202020207C0606F4
:1058500002202020202020207C202020200020202A
:1058600020207C060603202020202020207C2020D1
:10587000202000202020207C06060420202020203C
:1058800020207C2020202000202020207C060605CF
:10589000202020202020207C2020202000202020CC
:1058A000207C060606202020202020207C2020208E
:1058B0002000202020207C06060602202020202018
:1058C000207C2020202000202020207C06060603AB
:1058D0002020202020207C2020202000202020208C
:1058E0007C060606042020202020207C202020206A
:1058F00000202020207C06060605202020202020D5
:105900007C2020202000202020207C060606062067
:1059100020202020207C2020202000202020207CEF
:10592000060606060220202020207C2020202000C1
:10593000202020207C060606060320202020207C34
:105940002020202000202020207C0606060604209F
:10595000202020207C2020202000202020207C06C9
:105960000606060520202020207C20202020002064
:105970002020207C060606060620202020207C20F1
:1059800020202000202020207C060606060602207B
:105990002020207C2020202000202020207C0606A3
:1059A00006060603202020207C2020202000202026
:1059B00020207C060606060604202020207C2020CD
:1059C000202000202020207C060606060605202038
:1059D00020207C2020202000202020207C0606067D
:1059E000060606202020207C2020202000202020C9
:1059F000207C060606060606022020207C202020A9
:105A00002000202020207C06060606060603202013
:105A1000207C2020202000202020207C0606060656
:105A20000606042020207C2020202000202020208A
:105A30007C060606060606052020207C2020202065
:105A400000202020207C06060606060606202020D0
:105A50007C2020202000202020207C060606060630
:105A600006060220207C2020202000202020207CF0
:105A7000060606060606060320207C2020202000BD
:105A8000202020207C060606060606060420207C30
:105A90002020202000202020207C06060606060666
:105AA000060520207C2020202000202020207C06AD
:105AB0000606060606060620207C20202020002060
:105AC0002020207C060606060606060602207C200C
